{
	"controller.sol": {
		"ZeroComController": {
			"abi": [
				{
					"inputs": [
						{
							"internalType": "address",
							"name": "exchangeToken",
							"type": "address"
						}
					],
					"stateMutability": "nonpayable",
					"type": "constructor"
				},
				{
					"anonymous": false,
					"inputs": [
						{
							"indexed": false,
							"internalType": "address",
							"name": "agent",
							"type": "address"
						}
					],
					"name": "AgentActivated",
					"type": "event"
				},
				{
					"anonymous": false,
					"inputs": [
						{
							"indexed": false,
							"internalType": "address",
							"name": "agent",
							"type": "address"
						}
					],
					"name": "AgentFrozen",
					"type": "event"
				},
				{
					"anonymous": false,
					"inputs": [
						{
							"indexed": false,
							"internalType": "address",
							"name": "agent",
							"type": "address"
						}
					],
					"name": "AgentUnfrozen",
					"type": "event"
				},
				{
					"anonymous": false,
					"inputs": [
						{
							"indexed": false,
							"internalType": "address",
							"name": "agent",
							"type": "address"
						},
						{
							"indexed": false,
							"internalType": "uint256",
							"name": "amount",
							"type": "uint256"
						}
					],
					"name": "CreditsDeducted",
					"type": "event"
				},
				{
					"inputs": [],
					"name": "HIGH_RATE",
					"outputs": [
						{
							"internalType": "int64",
							"name": "",
							"type": "int64"
						}
					],
					"stateMutability": "view",
					"type": "function"
				},
				{
					"inputs": [],
					"name": "LOW_RATE",
					"outputs": [
						{
							"internalType": "int64",
							"name": "",
							"type": "int64"
						}
					],
					"stateMutability": "view",
					"type": "function"
				},
				{
					"inputs": [],
					"name": "MEDIUM_RATE",
					"outputs": [
						{
							"internalType": "int64",
							"name": "",
							"type": "int64"
						}
					],
					"stateMutability": "view",
					"type": "function"
				},
				{
					"inputs": [
						{
							"internalType": "address",
							"name": "",
							"type": "address"
						}
					],
					"name": "agents",
					"outputs": [
						{
							"internalType": "address",
							"name": "",
							"type": "address"
						}
					],
					"stateMutability": "view",
					"type": "function"
				},
				{
					"inputs": [
						{
							"internalType": "bool",
							"name": "freeze",
							"type": "bool"
						}
					],
					"name": "freezeAgent",
					"outputs": [],
					"stateMutability": "nonpayable",
					"type": "function"
				},
				{
					"inputs": [
						{
							"internalType": "address",
							"name": "agent",
							"type": "address"
						},
						{
							"internalType": "bytes32",
							"name": "requestHash",
							"type": "bytes32"
						},
						{
							"internalType": "enum ZeroComController.OperationType",
							"name": "predictedTokenUsage",
							"type": "uint8"
						}
					],
					"name": "generateIdempotencyKey",
					"outputs": [
						{
							"internalType": "bytes32",
							"name": "",
							"type": "bytes32"
						}
					],
					"stateMutability": "nonpayable",
					"type": "function"
				},
				{
					"inputs": [
						{
							"internalType": "address",
							"name": "user",
							"type": "address"
						}
					],
					"name": "getUserAgent",
					"outputs": [
						{
							"internalType": "address",
							"name": "",
							"type": "address"
						}
					],
					"stateMutability": "view",
					"type": "function"
				},
				{
					"inputs": [
						{
							"internalType": "bytes32",
							"name": "",
							"type": "bytes32"
						}
					],
					"name": "idempotencyKeys",
					"outputs": [
						{
							"internalType": "address",
							"name": "agent",
							"type": "address"
						},
						{
							"internalType": "enum ZeroComController.OperationType",
							"name": "predictedTokenUsage",
							"type": "uint8"
						},
						{
							"internalType": "bool",
							"name": "processed",
							"type": "bool"
						}
					],
					"stateMutability": "view",
					"type": "function"
				},
				{
					"inputs": [
						{
							"internalType": "address",
							"name": "",
							"type": "address"
						}
					],
					"name": "isAgentFrozen",
					"outputs": [
						{
							"internalType": "bool",
							"name": "",
							"type": "bool"
						}
					],
					"stateMutability": "view",
					"type": "function"
				},
				{
					"inputs": [
						{
							"internalType": "enum ZeroComController.OperationType",
							"name": "",
							"type": "uint8"
						}
					],
					"name": "operationRates",
					"outputs": [
						{
							"internalType": "uint256",
							"name": "",
							"type": "uint256"
						}
					],
					"stateMutability": "view",
					"type": "function"
				},
				{
					"inputs": [],
					"name": "owner",
					"outputs": [
						{
							"internalType": "address",
							"name": "",
							"type": "address"
						}
					],
					"stateMutability": "view",
					"type": "function"
				},
				{
					"inputs": [
						{
							"internalType": "address",
							"name": "agent",
							"type": "address"
						},
						{
							"internalType": "address",
							"name": "revenueTeam",
							"type": "address"
						},
						{
							"internalType": "bytes32",
							"name": "idempotencyKey",
							"type": "bytes32"
						},
						{
							"internalType": "int64",
							"name": "actualTokenUsage",
							"type": "int64"
						},
						{
							"internalType": "enum ZeroComController.OperationType",
							"name": "operation",
							"type": "uint8"
						}
					],
					"name": "processIdempotencyKey",
					"outputs": [],
					"stateMutability": "nonpayable",
					"type": "function"
				},
				{
					"inputs": [
						{
							"internalType": "address",
							"name": "_agent",
							"type": "address"
						},
						{
							"internalType": "address",
							"name": "_owner",
							"type": "address"
						},
						{
							"internalType": "uint256",
							"name": "_cap",
							"type": "uint256"
						}
					],
					"name": "registerAgent",
					"outputs": [],
					"stateMutability": "nonpayable",
					"type": "function"
				},
				{
					"inputs": [
						{
							"internalType": "enum ZeroComController.OperationType",
							"name": "operation",
							"type": "uint8"
						},
						{
							"internalType": "uint256",
							"name": "rate",
							"type": "uint256"
						}
					],
					"name": "setOperationRate",
					"outputs": [],
					"stateMutability": "nonpayable",
					"type": "function"
				},
				{
					"inputs": [
						{
							"internalType": "address",
							"name": "agent",
							"type": "address"
						},
						{
							"internalType": "uint256",
							"name": "cap",
							"type": "uint256"
						}
					],
					"name": "setSpendingCap",
					"outputs": [],
					"stateMutability": "nonpayable",
					"type": "function"
				},
				{
					"inputs": [
						{
							"internalType": "address",
							"name": "",
							"type": "address"
						}
					],
					"name": "spendingCaps",
					"outputs": [
						{
							"internalType": "uint256",
							"name": "",
							"type": "uint256"
						}
					],
					"stateMutability": "view",
					"type": "function"
				},
				{
					"inputs": [],
					"name": "token",
					"outputs": [
						{
							"internalType": "contract IERC20",
							"name": "",
							"type": "address"
						}
					],
					"stateMutability": "view",
					"type": "function"
				}
			],
			"devdoc": {
				"kind": "dev",
				"methods": {},
				"version": 1
			},
			"evm": {
				"assembly": "    /* \"controller.sol\":477:4606  contract ZeroComController {... */\n  mstore(0x40, 0x80)\n    /* \"controller.sol\":741:859  constructor(address exchangeToken) {... */\n  callvalue\n  dup1\n  iszero\n  tag_1\n  jumpi\n  0x00\n  dup1\n  revert\ntag_1:\n  pop\n  mload(0x40)\n  sub(codesize, bytecodeSize)\n  dup1\n  bytecodeSize\n  dup4\n  codecopy\n  dup2\n  dup2\n  add\n  0x40\n  mstore\n  dup2\n  add\n  swap1\n  tag_2\n  swap2\n  swap1\n  tag_3\n  jump\t// in\ntag_2:\n    /* \"controller.sol\":794:804  msg.sender */\n  caller\n    /* \"controller.sol\":786:791  owner */\n  0x00\n  dup1\n    /* \"controller.sol\":786:804  owner = msg.sender */\n  0x0100\n  exp\n  dup2\n  sload\n  dup2\n  0xffffffffffffffffffffffffffffffffffffffff\n  mul\n  not\n  and\n  swap1\n  dup4\n  0xffffffffffffffffffffffffffffffffffffffff\n  and\n  mul\n  or\n  swap1\n  sstore\n  pop\n    /* \"controller.sol\":837:850  exchangeToken */\n  dup1\n    /* \"controller.sol\":814:819  token */\n  0x01\n  0x00\n    /* \"controller.sol\":814:852  token = IERC20(address(exchangeToken)) */\n  0x0100\n  exp\n  dup2\n  sload\n  dup2\n  0xffffffffffffffffffffffffffffffffffffffff\n  mul\n  not\n  and\n  swap1\n  dup4\n  0xffffffffffffffffffffffffffffffffffffffff\n  and\n  mul\n  or\n  swap1\n  sstore\n  pop\n    /* \"controller.sol\":741:859  constructor(address exchangeToken) {... */\n  pop\n    /* \"controller.sol\":477:4606  contract ZeroComController {... */\n  jump(tag_6)\n    /* \"#utility.yul\":88:205   */\ntag_8:\n    /* \"#utility.yul\":197:198   */\n  0x00\n    /* \"#utility.yul\":194:195   */\n  dup1\n    /* \"#utility.yul\":187:199   */\n  revert\n    /* \"#utility.yul\":334:460   */\ntag_10:\n    /* \"#utility.yul\":371:378   */\n  0x00\n    /* \"#utility.yul\":411:453   */\n  0xffffffffffffffffffffffffffffffffffffffff\n    /* \"#utility.yul\":404:409   */\n  dup3\n    /* \"#utility.yul\":400:454   */\n  and\n    /* \"#utility.yul\":389:454   */\n  swap1\n  pop\n    /* \"#utility.yul\":334:460   */\n  swap2\n  swap1\n  pop\n  jump\t// out\n    /* \"#utility.yul\":466:562   */\ntag_11:\n    /* \"#utility.yul\":503:510   */\n  0x00\n    /* \"#utility.yul\":532:556   */\n  tag_20\n    /* \"#utility.yul\":550:555   */\n  dup3\n    /* \"#utility.yul\":532:556   */\n  tag_10\n  jump\t// in\ntag_20:\n    /* \"#utility.yul\":521:556   */\n  swap1\n  pop\n    /* \"#utility.yul\":466:562   */\n  swap2\n  swap1\n  pop\n  jump\t// out\n    /* \"#utility.yul\":568:690   */\ntag_12:\n    /* \"#utility.yul\":641:665   */\n  tag_22\n    /* \"#utility.yul\":659:664   */\n  dup2\n    /* \"#utility.yul\":641:665   */\n  tag_11\n  jump\t// in\ntag_22:\n    /* \"#utility.yul\":634:639   */\n  dup2\n    /* \"#utility.yul\":631:666   */\n  eq\n    /* \"#utility.yul\":621:684   */\n  tag_23\n  jumpi\n    /* \"#utility.yul\":680:681   */\n  0x00\n    /* \"#utility.yul\":677:678   */\n  dup1\n    /* \"#utility.yul\":670:682   */\n  revert\n    /* \"#utility.yul\":621:684   */\ntag_23:\n    /* \"#utility.yul\":568:690   */\n  pop\n  jump\t// out\n    /* \"#utility.yul\":696:839   */\ntag_13:\n    /* \"#utility.yul\":753:758   */\n  0x00\n    /* \"#utility.yul\":784:790   */\n  dup2\n    /* \"#utility.yul\":778:791   */\n  mload\n    /* \"#utility.yul\":769:791   */\n  swap1\n  pop\n    /* \"#utility.yul\":800:833   */\n  tag_25\n    /* \"#utility.yul\":827:832   */\n  dup2\n    /* \"#utility.yul\":800:833   */\n  tag_12\n  jump\t// in\ntag_25:\n    /* \"#utility.yul\":696:839   */\n  swap3\n  swap2\n  pop\n  pop\n  jump\t// out\n    /* \"#utility.yul\":845:1196   */\ntag_3:\n    /* \"#utility.yul\":915:921   */\n  0x00\n    /* \"#utility.yul\":964:966   */\n  0x20\n    /* \"#utility.yul\":952:961   */\n  dup3\n    /* \"#utility.yul\":943:950   */\n  dup5\n    /* \"#utility.yul\":939:962   */\n  sub\n    /* \"#utility.yul\":935:967   */\n  slt\n    /* \"#utility.yul\":932:1051   */\n  iszero\n  tag_27\n  jumpi\n    /* \"#utility.yul\":970:1049   */\n  tag_28\n  tag_8\n  jump\t// in\ntag_28:\n    /* \"#utility.yul\":932:1051   */\ntag_27:\n    /* \"#utility.yul\":1090:1091   */\n  0x00\n    /* \"#utility.yul\":1115:1179   */\n  tag_29\n    /* \"#utility.yul\":1171:1178   */\n  dup5\n    /* \"#utility.yul\":1162:1168   */\n  dup3\n    /* \"#utility.yul\":1151:1160   */\n  dup6\n    /* \"#utility.yul\":1147:1169   */\n  add\n    /* \"#utility.yul\":1115:1179   */\n  tag_13\n  jump\t// in\ntag_29:\n    /* \"#utility.yul\":1105:1179   */\n  swap2\n  pop\n    /* \"#utility.yul\":1061:1189   */\n  pop\n    /* \"#utility.yul\":845:1196   */\n  swap3\n  swap2\n  pop\n  pop\n  jump\t// out\n    /* \"controller.sol\":477:4606  contract ZeroComController {... */\ntag_6:\n  dataSize(sub_0)\n  dup1\n  dataOffset(sub_0)\n  0x00\n  codecopy\n  0x00\n  return\nstop\n\nsub_0: assembly {\n        /* \"controller.sol\":477:4606  contract ZeroComController {... */\n      mstore(0x40, 0x80)\n      callvalue\n      dup1\n      iszero\n      tag_1\n      jumpi\n      0x00\n      dup1\n      revert\n    tag_1:\n      pop\n      jumpi(tag_2, lt(calldatasize, 0x04))\n      shr(0xe0, calldataload(0x00))\n      dup1\n      0x7ee1ce1d\n      gt\n      tag_20\n      jumpi\n      dup1\n      0xa77e6222\n      gt\n      tag_21\n      jumpi\n      dup1\n      0xa77e6222\n      eq\n      tag_15\n      jumpi\n      dup1\n      0xc99de22f\n      eq\n      tag_16\n      jumpi\n      dup1\n      0xf710a6c3\n      eq\n      tag_17\n      jumpi\n      dup1\n      0xfc0c546a\n      eq\n      tag_18\n      jumpi\n      dup1\n      0xfd66091e\n      eq\n      tag_19\n      jumpi\n      jump(tag_2)\n    tag_21:\n      dup1\n      0x7ee1ce1d\n      eq\n      tag_11\n      jumpi\n      dup1\n      0x883c522d\n      eq\n      tag_12\n      jumpi\n      dup1\n      0x8da5cb5b\n      eq\n      tag_13\n      jumpi\n      dup1\n      0x983ea7da\n      eq\n      tag_14\n      jumpi\n      jump(tag_2)\n    tag_20:\n      dup1\n      0x5b424e48\n      gt\n      tag_22\n      jumpi\n      dup1\n      0x5b424e48\n      eq\n      tag_7\n      jumpi\n      dup1\n      0x6ff00940\n      eq\n      tag_8\n      jumpi\n      dup1\n      0x7043d6e0\n      eq\n      tag_9\n      jumpi\n      dup1\n      0x71d6a0e2\n      eq\n      tag_10\n      jumpi\n      jump(tag_2)\n    tag_22:\n      dup1\n      0x1a50c4f3\n      eq\n      tag_3\n      jumpi\n      dup1\n      0x1ee8866c\n      eq\n      tag_4\n      jumpi\n      dup1\n      0x399bd823\n      eq\n      tag_5\n      jumpi\n      dup1\n      0x54a97bbb\n      eq\n      tag_6\n      jumpi\n    tag_2:\n      0x00\n      dup1\n      revert\n        /* \"controller.sol\":1328:1383  mapping(OperationType => uint256) public operationRates */\n    tag_3:\n      tag_23\n      0x04\n      dup1\n      calldatasize\n      sub\n      dup2\n      add\n      swap1\n      tag_24\n      swap2\n      swap1\n      tag_25\n      jump\t// in\n    tag_24:\n      tag_26\n      jump\t// in\n    tag_23:\n      mload(0x40)\n      tag_27\n      swap2\n      swap1\n      tag_28\n      jump\t// in\n    tag_27:\n      mload(0x40)\n      dup1\n      swap2\n      sub\n      swap1\n      return\n        /* \"controller.sol\":1138:1175  int64 public constant MEDIUM_RATE = 5 */\n    tag_4:\n      tag_29\n      tag_30\n      jump\t// in\n    tag_29:\n      mload(0x40)\n      tag_31\n      swap2\n      swap1\n      tag_32\n      jump\t// in\n    tag_31:\n      mload(0x40)\n      dup1\n      swap2\n      sub\n      swap1\n      return\n        /* \"controller.sol\":1436:1494  mapping(bytes32 => IdempotencyData) public idempotencyKeys */\n    tag_5:\n      tag_33\n      0x04\n      dup1\n      calldatasize\n      sub\n      dup2\n      add\n      swap1\n      tag_34\n      swap2\n      swap1\n      tag_35\n      jump\t// in\n    tag_34:\n      tag_36\n      jump\t// in\n    tag_33:\n      mload(0x40)\n      tag_37\n      swap4\n      swap3\n      swap2\n      swap1\n      tag_38\n      jump\t// in\n    tag_37:\n      mload(0x40)\n      dup1\n      swap2\n      sub\n      swap1\n      return\n        /* \"controller.sol\":1224:1271  mapping(address => uint256) public spendingCaps */\n    tag_6:\n      tag_39\n      0x04\n      dup1\n      calldatasize\n      sub\n      dup2\n      add\n      swap1\n      tag_40\n      swap2\n      swap1\n      tag_41\n      jump\t// in\n    tag_40:\n      tag_42\n      jump\t// in\n    tag_39:\n      mload(0x40)\n      tag_43\n      swap2\n      swap1\n      tag_28\n      jump\t// in\n    tag_43:\n      mload(0x40)\n      dup1\n      swap2\n      sub\n      swap1\n      return\n        /* \"controller.sol\":4502:4604  function getUserAgent(address user) public view returns (address) {... */\n    tag_7:\n      tag_44\n      0x04\n      dup1\n      calldatasize\n      sub\n      dup2\n      add\n      swap1\n      tag_45\n      swap2\n      swap1\n      tag_41\n      jump\t// in\n    tag_45:\n      tag_46\n      jump\t// in\n    tag_44:\n      mload(0x40)\n      tag_47\n      swap2\n      swap1\n      tag_48\n      jump\t// in\n    tag_47:\n      mload(0x40)\n      dup1\n      swap2\n      sub\n      swap1\n      return\n        /* \"controller.sol\":3737:4496  function processIdempotencyKey(... */\n    tag_8:\n      tag_49\n      0x04\n      dup1\n      calldatasize\n      sub\n      dup2\n      add\n      swap1\n      tag_50\n      swap2\n      swap1\n      tag_51\n      jump\t// in\n    tag_50:\n      tag_52\n      jump\t// in\n    tag_49:\n      stop\n        /* \"controller.sol\":2798:3037  function freezeAgent(bool freeze) external onlyAgent {... */\n    tag_9:\n      tag_53\n      0x04\n      dup1\n      calldatasize\n      sub\n      dup2\n      add\n      swap1\n      tag_54\n      swap2\n      swap1\n      tag_55\n      jump\t// in\n    tag_54:\n      tag_56\n      jump\t// in\n    tag_53:\n      stop\n        /* \"controller.sol\":1098:1132  int64 public constant LOW_RATE = 2 */\n    tag_10:\n      tag_57\n      tag_58\n      jump\t// in\n    tag_57:\n      mload(0x40)\n      tag_59\n      swap2\n      swap1\n      tag_32\n      jump\t// in\n    tag_59:\n      mload(0x40)\n      dup1\n      swap2\n      sub\n      swap1\n      return\n        /* \"controller.sol\":2471:2711  function setSpendingCap(address agent, uint256 cap) external {... */\n    tag_11:\n      tag_60\n      0x04\n      dup1\n      calldatasize\n      sub\n      dup2\n      add\n      swap1\n      tag_61\n      swap2\n      swap1\n      tag_62\n      jump\t// in\n    tag_61:\n      tag_63\n      jump\t// in\n    tag_60:\n      stop\n        /* \"controller.sol\":3101:3731  function generateIdempotencyKey(... */\n    tag_12:\n      tag_64\n      0x04\n      dup1\n      calldatasize\n      sub\n      dup2\n      add\n      swap1\n      tag_65\n      swap2\n      swap1\n      tag_66\n      jump\t// in\n    tag_65:\n      tag_67\n      jump\t// in\n    tag_64:\n      mload(0x40)\n      tag_68\n      swap2\n      swap1\n      tag_69\n      jump\t// in\n    tag_68:\n      mload(0x40)\n      dup1\n      swap2\n      sub\n      swap1\n      return\n        /* \"controller.sol\":510:530  address public owner */\n    tag_13:\n      tag_70\n      tag_71\n      jump\t// in\n    tag_70:\n      mload(0x40)\n      tag_72\n      swap2\n      swap1\n      tag_48\n      jump\t// in\n    tag_72:\n      mload(0x40)\n      dup1\n      swap2\n      sub\n      swap1\n      return\n        /* \"controller.sol\":1277:1322  mapping(address => bool) public isAgentFrozen */\n    tag_14:\n      tag_73\n      0x04\n      dup1\n      calldatasize\n      sub\n      dup2\n      add\n      swap1\n      tag_74\n      swap2\n      swap1\n      tag_41\n      jump\t// in\n    tag_74:\n      tag_75\n      jump\t// in\n    tag_73:\n      mload(0x40)\n      tag_76\n      swap2\n      swap1\n      tag_77\n      jump\t// in\n    tag_76:\n      mload(0x40)\n      dup1\n      swap2\n      sub\n      swap1\n      return\n        /* \"controller.sol\":2079:2372  function registerAgent(... */\n    tag_15:\n      tag_78\n      0x04\n      dup1\n      calldatasize\n      sub\n      dup2\n      add\n      swap1\n      tag_79\n      swap2\n      swap1\n      tag_80\n      jump\t// in\n    tag_79:\n      tag_81\n      jump\t// in\n    tag_78:\n      stop\n        /* \"controller.sol\":1181:1217  int64 public constant HIGH_RATE = 10 */\n    tag_16:\n      tag_82\n      tag_83\n      jump\t// in\n    tag_82:\n      mload(0x40)\n      tag_84\n      swap2\n      swap1\n      tag_32\n      jump\t// in\n    tag_84:\n      mload(0x40)\n      dup1\n      swap2\n      sub\n      swap1\n      return\n        /* \"controller.sol\":1840:1995  function setOperationRate(... */\n    tag_17:\n      tag_85\n      0x04\n      dup1\n      calldatasize\n      sub\n      dup2\n      add\n      swap1\n      tag_86\n      swap2\n      swap1\n      tag_87\n      jump\t// in\n    tag_86:\n      tag_88\n      jump\t// in\n    tag_85:\n      stop\n        /* \"controller.sol\":537:556  IERC20 public token */\n    tag_18:\n      tag_89\n      tag_90\n      jump\t// in\n    tag_89:\n      mload(0x40)\n      tag_91\n      swap2\n      swap1\n      tag_92\n      jump\t// in\n    tag_91:\n      mload(0x40)\n      dup1\n      swap2\n      sub\n      swap1\n      return\n        /* \"controller.sol\":1389:1430  mapping(address => address) public agents */\n    tag_19:\n      tag_93\n      0x04\n      dup1\n      calldatasize\n      sub\n      dup2\n      add\n      swap1\n      tag_94\n      swap2\n      swap1\n      tag_41\n      jump\t// in\n    tag_94:\n      tag_95\n      jump\t// in\n    tag_93:\n      mload(0x40)\n      tag_96\n      swap2\n      swap1\n      tag_48\n      jump\t// in\n    tag_96:\n      mload(0x40)\n      dup1\n      swap2\n      sub\n      swap1\n      return\n        /* \"controller.sol\":1328:1383  mapping(OperationType => uint256) public operationRates */\n    tag_26:\n      mstore(0x20, 0x04)\n      dup1\n      0x00\n      mstore\n      keccak256(0x00, 0x40)\n      0x00\n      swap2\n      pop\n      swap1\n      pop\n      sload\n      dup2\n      jump\t// out\n        /* \"controller.sol\":1138:1175  int64 public constant MEDIUM_RATE = 5 */\n    tag_30:\n        /* \"controller.sol\":1174:1175  5 */\n      0x05\n        /* \"controller.sol\":1138:1175  int64 public constant MEDIUM_RATE = 5 */\n      dup2\n      jump\t// out\n        /* \"controller.sol\":1436:1494  mapping(bytes32 => IdempotencyData) public idempotencyKeys */\n    tag_36:\n      mstore(0x20, 0x06)\n      dup1\n      0x00\n      mstore\n      keccak256(0x00, 0x40)\n      0x00\n      swap2\n      pop\n      swap1\n      pop\n      dup1\n      0x00\n      add\n      0x00\n      swap1\n      sload\n      swap1\n      0x0100\n      exp\n      swap1\n      div\n      0xffffffffffffffffffffffffffffffffffffffff\n      and\n      swap1\n      dup1\n      0x00\n      add\n      0x14\n      swap1\n      sload\n      swap1\n      0x0100\n      exp\n      swap1\n      div\n      0xff\n      and\n      swap1\n      dup1\n      0x00\n      add\n      0x15\n      swap1\n      sload\n      swap1\n      0x0100\n      exp\n      swap1\n      div\n      0xff\n      and\n      swap1\n      pop\n      dup4\n      jump\t// out\n        /* \"controller.sol\":1224:1271  mapping(address => uint256) public spendingCaps */\n    tag_42:\n      mstore(0x20, 0x02)\n      dup1\n      0x00\n      mstore\n      keccak256(0x00, 0x40)\n      0x00\n      swap2\n      pop\n      swap1\n      pop\n      sload\n      dup2\n      jump\t// out\n        /* \"controller.sol\":4502:4604  function getUserAgent(address user) public view returns (address) {... */\n    tag_46:\n        /* \"controller.sol\":4559:4566  address */\n      0x00\n        /* \"controller.sol\":4585:4591  agents */\n      0x05\n        /* \"controller.sol\":4585:4597  agents[user] */\n      0x00\n        /* \"controller.sol\":4592:4596  user */\n      dup4\n        /* \"controller.sol\":4585:4597  agents[user] */\n      0xffffffffffffffffffffffffffffffffffffffff\n      and\n      0xffffffffffffffffffffffffffffffffffffffff\n      and\n      dup2\n      mstore\n      0x20\n      add\n      swap1\n      dup2\n      mstore\n      0x20\n      add\n      0x00\n      keccak256\n      0x00\n      swap1\n      sload\n      swap1\n      0x0100\n      exp\n      swap1\n      div\n      0xffffffffffffffffffffffffffffffffffffffff\n      and\n        /* \"controller.sol\":4578:4597  return agents[user] */\n      swap1\n      pop\n        /* \"controller.sol\":4502:4604  function getUserAgent(address user) public view returns (address) {... */\n      swap2\n      swap1\n      pop\n      jump\t// out\n        /* \"controller.sol\":3737:4496  function processIdempotencyKey(... */\n    tag_52:\n        /* \"controller.sol\":1554:1567  isAgentFrozen */\n      0x03\n        /* \"controller.sol\":1554:1579  isAgentFrozen[msg.sender] */\n      0x00\n        /* \"controller.sol\":1568:1578  msg.sender */\n      caller\n        /* \"controller.sol\":1554:1579  isAgentFrozen[msg.sender] */\n      0xffffffffffffffffffffffffffffffffffffffff\n      and\n      0xffffffffffffffffffffffffffffffffffffffff\n      and\n      dup2\n      mstore\n      0x20\n      add\n      swap1\n      dup2\n      mstore\n      0x20\n      add\n      0x00\n      keccak256\n      0x00\n      swap1\n      sload\n      swap1\n      0x0100\n      exp\n      swap1\n      div\n      0xff\n      and\n        /* \"controller.sol\":1553:1579  !isAgentFrozen[msg.sender] */\n      iszero\n        /* \"controller.sol\":1532:1640  require(... */\n      tag_99\n      jumpi\n      mload(0x40)\n      0x08c379a000000000000000000000000000000000000000000000000000000000\n      dup2\n      mstore\n      0x04\n      add\n      tag_100\n      swap1\n      tag_101\n      jump\t// in\n    tag_100:\n      mload(0x40)\n      dup1\n      swap2\n      sub\n      swap1\n      revert\n    tag_99:\n        /* \"controller.sol\":3952:3980  IdempotencyData storage data */\n      0x00\n        /* \"controller.sol\":3983:3998  idempotencyKeys */\n      0x06\n        /* \"controller.sol\":3983:4014  idempotencyKeys[idempotencyKey] */\n      0x00\n        /* \"controller.sol\":3999:4013  idempotencyKey */\n      dup6\n        /* \"controller.sol\":3983:4014  idempotencyKeys[idempotencyKey] */\n      dup2\n      mstore\n      0x20\n      add\n      swap1\n      dup2\n      mstore\n      0x20\n      add\n      0x00\n      keccak256\n        /* \"controller.sol\":3952:4014  IdempotencyData storage data = idempotencyKeys[idempotencyKey] */\n      swap1\n      pop\n        /* \"controller.sol\":4033:4037  data */\n      dup1\n        /* \"controller.sol\":4033:4047  data.processed */\n      0x00\n      add\n      0x15\n      swap1\n      sload\n      swap1\n      0x0100\n      exp\n      swap1\n      div\n      0xff\n      and\n        /* \"controller.sol\":4032:4047  !data.processed */\n      iszero\n        /* \"controller.sol\":4024:4073  require(!data.processed, \"Key already processed\") */\n      tag_103\n      jumpi\n      mload(0x40)\n      0x08c379a000000000000000000000000000000000000000000000000000000000\n      dup2\n      mstore\n      0x04\n      add\n      tag_104\n      swap1\n      tag_105\n      jump\t// in\n    tag_104:\n      mload(0x40)\n      dup1\n      swap2\n      sub\n      swap1\n      revert\n    tag_103:\n        /* \"controller.sol\":4084:4094  int64 rate */\n      0x00\n        /* \"controller.sol\":4121:4138  OperationType.Low */\n      dup1\n        /* \"controller.sol\":4108:4138  operation == OperationType.Low */\n      0x02\n      dup2\n      gt\n      iszero\n      tag_106\n      jumpi\n      tag_107\n      tag_108\n      jump\t// in\n    tag_107:\n    tag_106:\n        /* \"controller.sol\":4108:4117  operation */\n      dup4\n        /* \"controller.sol\":4108:4138  operation == OperationType.Low */\n      0x02\n      dup2\n      gt\n      iszero\n      tag_109\n      jumpi\n      tag_110\n      tag_108\n      jump\t// in\n    tag_110:\n    tag_109:\n      sub\n        /* \"controller.sol\":4104:4352  if (operation == OperationType.Low) {... */\n      tag_111\n      jumpi\n        /* \"controller.sol\":1131:1132  2 */\n      0x02\n        /* \"controller.sol\":4154:4169  rate = LOW_RATE */\n      swap1\n      pop\n        /* \"controller.sol\":4104:4352  if (operation == OperationType.Low) {... */\n      jump(tag_112)\n    tag_111:\n        /* \"controller.sol\":4203:4223  OperationType.Medium */\n      0x01\n        /* \"controller.sol\":4190:4223  operation == OperationType.Medium */\n      0x02\n      dup2\n      gt\n      iszero\n      tag_113\n      jumpi\n      tag_114\n      tag_108\n      jump\t// in\n    tag_114:\n    tag_113:\n        /* \"controller.sol\":4190:4199  operation */\n      dup4\n        /* \"controller.sol\":4190:4223  operation == OperationType.Medium */\n      0x02\n      dup2\n      gt\n      iszero\n      tag_115\n      jumpi\n      tag_116\n      tag_108\n      jump\t// in\n    tag_116:\n    tag_115:\n      sub\n        /* \"controller.sol\":4186:4352  if (operation == OperationType.Medium) {... */\n      tag_117\n      jumpi\n        /* \"controller.sol\":1174:1175  5 */\n      0x05\n        /* \"controller.sol\":4239:4257  rate = MEDIUM_RATE */\n      swap1\n      pop\n        /* \"controller.sol\":4186:4352  if (operation == OperationType.Medium) {... */\n      jump(tag_118)\n    tag_117:\n        /* \"controller.sol\":4291:4309  OperationType.High */\n      0x02\n        /* \"controller.sol\":4278:4309  operation == OperationType.High */\n      dup1\n      dup2\n      gt\n      iszero\n      tag_119\n      jumpi\n      tag_120\n      tag_108\n      jump\t// in\n    tag_120:\n    tag_119:\n        /* \"controller.sol\":4278:4287  operation */\n      dup4\n        /* \"controller.sol\":4278:4309  operation == OperationType.High */\n      0x02\n      dup2\n      gt\n      iszero\n      tag_121\n      jumpi\n      tag_122\n      tag_108\n      jump\t// in\n    tag_122:\n    tag_121:\n      sub\n        /* \"controller.sol\":4274:4352  if (operation == OperationType.High) {... */\n      tag_123\n      jumpi\n        /* \"controller.sol\":1215:1217  10 */\n      0x0a\n        /* \"controller.sol\":4325:4341  rate = HIGH_RATE */\n      swap1\n      pop\n        /* \"controller.sol\":4274:4352  if (operation == OperationType.High) {... */\n    tag_123:\n        /* \"controller.sol\":4186:4352  if (operation == OperationType.Medium) {... */\n    tag_118:\n        /* \"controller.sol\":4104:4352  if (operation == OperationType.Low) {... */\n    tag_112:\n        /* \"controller.sol\":4361:4370  int64 fee */\n      0x00\n        /* \"controller.sol\":4392:4396  rate */\n      dup2\n        /* \"controller.sol\":4373:4389  actualTokenUsage */\n      dup6\n        /* \"controller.sol\":4373:4396  actualTokenUsage * rate */\n      tag_124\n      swap2\n      swap1\n      tag_125\n      jump\t// in\n    tag_124:\n        /* \"controller.sol\":4361:4396  int64 fee = actualTokenUsage * rate */\n      swap1\n      pop\n        /* \"controller.sol\":4420:4425  agent */\n      dup8\n        /* \"controller.sol\":4406:4440  IZeroComAgent(agent).transferToken */\n      0xffffffffffffffffffffffffffffffffffffffff\n      and\n      0x63d96dbf\n        /* \"controller.sol\":4441:4452  revenueTeam */\n      dup9\n        /* \"controller.sol\":4454:4457  fee */\n      dup4\n        /* \"controller.sol\":4406:4458  IZeroComAgent(agent).transferToken(revenueTeam, fee) */\n      mload(0x40)\n      dup4\n      0xffffffff\n      and\n      0xe0\n      shl\n      dup2\n      mstore\n      0x04\n      add\n      tag_126\n      swap3\n      swap2\n      swap1\n      tag_127\n      jump\t// in\n    tag_126:\n      0x00\n      mload(0x40)\n      dup1\n      dup4\n      sub\n      dup2\n      0x00\n      dup8\n      dup1\n      extcodesize\n      iszero\n      dup1\n      iszero\n      tag_128\n      jumpi\n      0x00\n      dup1\n      revert\n    tag_128:\n      pop\n      gas\n      call\n      iszero\n      dup1\n      iszero\n      tag_130\n      jumpi\n      returndatasize\n      0x00\n      dup1\n      returndatacopy\n      revert(0x00, returndatasize)\n    tag_130:\n      pop\n      pop\n      pop\n      pop\n        /* \"controller.sol\":4485:4489  true */\n      0x01\n        /* \"controller.sol\":4468:4472  data */\n      dup4\n        /* \"controller.sol\":4468:4482  data.processed */\n      0x00\n      add\n      0x15\n        /* \"controller.sol\":4468:4489  data.processed = true */\n      0x0100\n      exp\n      dup2\n      sload\n      dup2\n      0xff\n      mul\n      not\n      and\n      swap1\n      dup4\n      iszero\n      iszero\n      mul\n      or\n      swap1\n      sstore\n      pop\n        /* \"controller.sol\":3942:4496  {... */\n      pop\n      pop\n      pop\n        /* \"controller.sol\":3737:4496  function processIdempotencyKey(... */\n      pop\n      pop\n      pop\n      pop\n      pop\n      jump\t// out\n        /* \"controller.sol\":2798:3037  function freezeAgent(bool freeze) external onlyAgent {... */\n    tag_56:\n        /* \"controller.sol\":1554:1567  isAgentFrozen */\n      0x03\n        /* \"controller.sol\":1554:1579  isAgentFrozen[msg.sender] */\n      0x00\n        /* \"controller.sol\":1568:1578  msg.sender */\n      caller\n        /* \"controller.sol\":1554:1579  isAgentFrozen[msg.sender] */\n      0xffffffffffffffffffffffffffffffffffffffff\n      and\n      0xffffffffffffffffffffffffffffffffffffffff\n      and\n      dup2\n      mstore\n      0x20\n      add\n      swap1\n      dup2\n      mstore\n      0x20\n      add\n      0x00\n      keccak256\n      0x00\n      swap1\n      sload\n      swap1\n      0x0100\n      exp\n      swap1\n      div\n      0xff\n      and\n        /* \"controller.sol\":1553:1579  !isAgentFrozen[msg.sender] */\n      iszero\n        /* \"controller.sol\":1532:1640  require(... */\n      tag_132\n      jumpi\n      mload(0x40)\n      0x08c379a000000000000000000000000000000000000000000000000000000000\n      dup2\n      mstore\n      0x04\n      add\n      tag_133\n      swap1\n      tag_101\n      jump\t// in\n    tag_133:\n      mload(0x40)\n      dup1\n      swap2\n      sub\n      swap1\n      revert\n    tag_132:\n        /* \"controller.sol\":2889:2895  freeze */\n      dup1\n        /* \"controller.sol\":2861:2874  isAgentFrozen */\n      0x03\n        /* \"controller.sol\":2861:2886  isAgentFrozen[msg.sender] */\n      0x00\n        /* \"controller.sol\":2875:2885  msg.sender */\n      caller\n        /* \"controller.sol\":2861:2886  isAgentFrozen[msg.sender] */\n      0xffffffffffffffffffffffffffffffffffffffff\n      and\n      0xffffffffffffffffffffffffffffffffffffffff\n      and\n      dup2\n      mstore\n      0x20\n      add\n      swap1\n      dup2\n      mstore\n      0x20\n      add\n      0x00\n      keccak256\n      0x00\n        /* \"controller.sol\":2861:2895  isAgentFrozen[msg.sender] = freeze */\n      0x0100\n      exp\n      dup2\n      sload\n      dup2\n      0xff\n      mul\n      not\n      and\n      swap1\n      dup4\n      iszero\n      iszero\n      mul\n      or\n      swap1\n      sstore\n      pop\n        /* \"controller.sol\":2909:2915  freeze */\n      dup1\n        /* \"controller.sol\":2905:3031  if (freeze) {... */\n      iszero\n      tag_135\n      jumpi\n        /* \"controller.sol\":2936:2959  AgentFrozen(msg.sender) */\n      0x9952a16eccd256462730e4f6bc004a7e5b1177d4ae73dd260c6e2f32bd839b50\n        /* \"controller.sol\":2948:2958  msg.sender */\n      caller\n        /* \"controller.sol\":2936:2959  AgentFrozen(msg.sender) */\n      mload(0x40)\n      tag_136\n      swap2\n      swap1\n      tag_48\n      jump\t// in\n    tag_136:\n      mload(0x40)\n      dup1\n      swap2\n      sub\n      swap1\n      log1\n        /* \"controller.sol\":2905:3031  if (freeze) {... */\n      jump(tag_137)\n    tag_135:\n        /* \"controller.sol\":2995:3020  AgentUnfrozen(msg.sender) */\n      0xa2671ddfcae8e909ada448839621cacd285875ccc6f146751e3e1bc4f2e1e9cd\n        /* \"controller.sol\":3009:3019  msg.sender */\n      caller\n        /* \"controller.sol\":2995:3020  AgentUnfrozen(msg.sender) */\n      mload(0x40)\n      tag_138\n      swap2\n      swap1\n      tag_48\n      jump\t// in\n    tag_138:\n      mload(0x40)\n      dup1\n      swap2\n      sub\n      swap1\n      log1\n        /* \"controller.sol\":2905:3031  if (freeze) {... */\n    tag_137:\n        /* \"controller.sol\":2798:3037  function freezeAgent(bool freeze) external onlyAgent {... */\n      pop\n      jump\t// out\n        /* \"controller.sol\":1098:1132  int64 public constant LOW_RATE = 2 */\n    tag_58:\n        /* \"controller.sol\":1131:1132  2 */\n      0x02\n        /* \"controller.sol\":1098:1132  int64 public constant LOW_RATE = 2 */\n      dup2\n      jump\t// out\n        /* \"controller.sol\":2471:2711  function setSpendingCap(address agent, uint256 cap) external {... */\n    tag_63:\n        /* \"controller.sol\":2598:2608  msg.sender */\n      caller\n        /* \"controller.sol\":2563:2608  IZeroComAgent(agent).getOwner() == msg.sender */\n      0xffffffffffffffffffffffffffffffffffffffff\n      and\n        /* \"controller.sol\":2577:2582  agent */\n      dup3\n        /* \"controller.sol\":2563:2592  IZeroComAgent(agent).getOwner */\n      0xffffffffffffffffffffffffffffffffffffffff\n      and\n      0x893d20e8\n        /* \"controller.sol\":2563:2594  IZeroComAgent(agent).getOwner() */\n      mload(0x40)\n      dup2\n      0xffffffff\n      and\n      0xe0\n      shl\n      dup2\n      mstore\n      0x04\n      add\n      0x20\n      mload(0x40)\n      dup1\n      dup4\n      sub\n      dup2\n      dup7\n      gas\n      staticcall\n      iszero\n      dup1\n      iszero\n      tag_141\n      jumpi\n      returndatasize\n      0x00\n      dup1\n      returndatacopy\n      revert(0x00, returndatasize)\n    tag_141:\n      pop\n      pop\n      pop\n      pop\n      mload(0x40)\n      returndatasize\n      not(0x1f)\n      0x1f\n      dup3\n      add\n      and\n      dup3\n      add\n      dup1\n      0x40\n      mstore\n      pop\n      dup2\n      add\n      swap1\n      tag_142\n      swap2\n      swap1\n      tag_143\n      jump\t// in\n    tag_142:\n        /* \"controller.sol\":2563:2608  IZeroComAgent(agent).getOwner() == msg.sender */\n      0xffffffffffffffffffffffffffffffffffffffff\n      and\n      eq\n        /* \"controller.sol\":2542:2669  require(... */\n      tag_144\n      jumpi\n      mload(0x40)\n      0x08c379a000000000000000000000000000000000000000000000000000000000\n      dup2\n      mstore\n      0x04\n      add\n      tag_145\n      swap1\n      tag_146\n      jump\t// in\n    tag_145:\n      mload(0x40)\n      dup1\n      swap2\n      sub\n      swap1\n      revert\n    tag_144:\n        /* \"controller.sol\":2701:2704  cap */\n      dup1\n        /* \"controller.sol\":2679:2691  spendingCaps */\n      0x02\n        /* \"controller.sol\":2679:2698  spendingCaps[agent] */\n      0x00\n        /* \"controller.sol\":2692:2697  agent */\n      dup5\n        /* \"controller.sol\":2679:2698  spendingCaps[agent] */\n      0xffffffffffffffffffffffffffffffffffffffff\n      and\n      0xffffffffffffffffffffffffffffffffffffffff\n      and\n      dup2\n      mstore\n      0x20\n      add\n      swap1\n      dup2\n      mstore\n      0x20\n      add\n      0x00\n      keccak256\n        /* \"controller.sol\":2679:2704  spendingCaps[agent] = cap */\n      dup2\n      swap1\n      sstore\n      pop\n        /* \"controller.sol\":2471:2711  function setSpendingCap(address agent, uint256 cap) external {... */\n      pop\n      pop\n      jump\t// out\n        /* \"controller.sol\":3101:3731  function generateIdempotencyKey(... */\n    tag_67:\n        /* \"controller.sol\":3262:3269  bytes32 */\n      0x00\n        /* \"controller.sol\":1554:1567  isAgentFrozen */\n      0x03\n        /* \"controller.sol\":1554:1579  isAgentFrozen[msg.sender] */\n      0x00\n        /* \"controller.sol\":1568:1578  msg.sender */\n      caller\n        /* \"controller.sol\":1554:1579  isAgentFrozen[msg.sender] */\n      0xffffffffffffffffffffffffffffffffffffffff\n      and\n      0xffffffffffffffffffffffffffffffffffffffff\n      and\n      dup2\n      mstore\n      0x20\n      add\n      swap1\n      dup2\n      mstore\n      0x20\n      add\n      0x00\n      keccak256\n      0x00\n      swap1\n      sload\n      swap1\n      0x0100\n      exp\n      swap1\n      div\n      0xff\n      and\n        /* \"controller.sol\":1553:1579  !isAgentFrozen[msg.sender] */\n      iszero\n        /* \"controller.sol\":1532:1640  require(... */\n      tag_148\n      jumpi\n      mload(0x40)\n      0x08c379a000000000000000000000000000000000000000000000000000000000\n      dup2\n      mstore\n      0x04\n      add\n      tag_149\n      swap1\n      tag_101\n      jump\t// in\n    tag_149:\n      mload(0x40)\n      dup1\n      swap2\n      sub\n      swap1\n      revert\n    tag_148:\n        /* \"controller.sol\":3281:3303  bytes32 idempotencyKey */\n      0x00\n        /* \"controller.sol\":3346:3351  agent */\n      dup5\n        /* \"controller.sol\":3353:3364  requestHash */\n      dup5\n        /* \"controller.sol\":3366:3381  block.timestamp */\n      timestamp\n        /* \"controller.sol\":3329:3382  abi.encodePacked(agent, requestHash, block.timestamp) */\n      add(0x20, mload(0x40))\n      tag_151\n      swap4\n      swap3\n      swap2\n      swap1\n      tag_152\n      jump\t// in\n    tag_151:\n      mload(0x40)\n      0x20\n      dup2\n      dup4\n      sub\n      sub\n      dup2\n      mstore\n      swap1\n      0x40\n      mstore\n        /* \"controller.sol\":3306:3392  keccak256(... */\n      dup1\n      mload\n      swap1\n      0x20\n      add\n      keccak256\n        /* \"controller.sol\":3281:3392  bytes32 idempotencyKey = keccak256(... */\n      swap1\n      pop\n        /* \"controller.sol\":3424:3439  idempotencyKeys */\n      0x06\n        /* \"controller.sol\":3424:3455  idempotencyKeys[idempotencyKey] */\n      0x00\n        /* \"controller.sol\":3440:3454  idempotencyKey */\n      dup3\n        /* \"controller.sol\":3424:3455  idempotencyKeys[idempotencyKey] */\n      dup2\n      mstore\n      0x20\n      add\n      swap1\n      dup2\n      mstore\n      0x20\n      add\n      0x00\n      keccak256\n        /* \"controller.sol\":3424:3465  idempotencyKeys[idempotencyKey].processed */\n      0x00\n      add\n      0x15\n      swap1\n      sload\n      swap1\n      0x0100\n      exp\n      swap1\n      div\n      0xff\n      and\n        /* \"controller.sol\":3423:3465  !idempotencyKeys[idempotencyKey].processed */\n      iszero\n        /* \"controller.sol\":3402:3512  require(... */\n      tag_153\n      jumpi\n      mload(0x40)\n      0x08c379a000000000000000000000000000000000000000000000000000000000\n      dup2\n      mstore\n      0x04\n      add\n      tag_154\n      swap1\n      tag_105\n      jump\t// in\n    tag_154:\n      mload(0x40)\n      dup1\n      swap2\n      sub\n      swap1\n      revert\n    tag_153:\n        /* \"controller.sol\":3556:3693  IdempotencyData({... */\n      mload(0x40)\n      dup1\n      0x60\n      add\n      0x40\n      mstore\n      dup1\n        /* \"controller.sol\":3593:3598  agent */\n      dup7\n        /* \"controller.sol\":3556:3693  IdempotencyData({... */\n      0xffffffffffffffffffffffffffffffffffffffff\n      and\n      dup2\n      mstore\n      0x20\n      add\n        /* \"controller.sol\":3633:3652  predictedTokenUsage */\n      dup5\n        /* \"controller.sol\":3556:3693  IdempotencyData({... */\n      0x02\n      dup2\n      gt\n      iszero\n      tag_155\n      jumpi\n      tag_156\n      tag_108\n      jump\t// in\n    tag_156:\n    tag_155:\n      dup2\n      mstore\n      0x20\n      add\n        /* \"controller.sol\":3677:3682  false */\n      0x00\n        /* \"controller.sol\":3556:3693  IdempotencyData({... */\n      iszero\n      iszero\n      dup2\n      mstore\n      pop\n        /* \"controller.sol\":3522:3537  idempotencyKeys */\n      0x06\n        /* \"controller.sol\":3522:3553  idempotencyKeys[idempotencyKey] */\n      0x00\n        /* \"controller.sol\":3538:3552  idempotencyKey */\n      dup4\n        /* \"controller.sol\":3522:3553  idempotencyKeys[idempotencyKey] */\n      dup2\n      mstore\n      0x20\n      add\n      swap1\n      dup2\n      mstore\n      0x20\n      add\n      0x00\n      keccak256\n        /* \"controller.sol\":3522:3693  idempotencyKeys[idempotencyKey] = IdempotencyData({... */\n      0x00\n      dup3\n      add\n      mload\n      dup2\n      0x00\n      add\n      exp(0x0100, 0x00)\n      dup2\n      sload\n      dup2\n      0xffffffffffffffffffffffffffffffffffffffff\n      mul\n      not\n      and\n      swap1\n      dup4\n      0xffffffffffffffffffffffffffffffffffffffff\n      and\n      mul\n      or\n      swap1\n      sstore\n      pop\n      0x20\n      dup3\n      add\n      mload\n      dup2\n      0x00\n      add\n      exp(0x0100, 0x14)\n      dup2\n      sload\n      dup2\n      0xff\n      mul\n      not\n      and\n      swap1\n      dup4\n      0x02\n      dup2\n      gt\n      iszero\n      tag_157\n      jumpi\n      tag_158\n      tag_108\n      jump\t// in\n    tag_158:\n    tag_157:\n      mul\n      or\n      swap1\n      sstore\n      pop\n      0x40\n      dup3\n      add\n      mload\n      dup2\n      0x00\n      add\n      exp(0x0100, 0x15)\n      dup2\n      sload\n      dup2\n      0xff\n      mul\n      not\n      and\n      swap1\n      dup4\n      iszero\n      iszero\n      mul\n      or\n      swap1\n      sstore\n      pop\n      swap1\n      pop\n      pop\n        /* \"controller.sol\":3710:3724  idempotencyKey */\n      dup1\n        /* \"controller.sol\":3703:3724  return idempotencyKey */\n      swap2\n      pop\n      pop\n        /* \"controller.sol\":3101:3731  function generateIdempotencyKey(... */\n      swap4\n      swap3\n      pop\n      pop\n      pop\n      jump\t// out\n        /* \"controller.sol\":510:530  address public owner */\n    tag_71:\n      0x00\n      dup1\n      sload\n      swap1\n      0x0100\n      exp\n      swap1\n      div\n      0xffffffffffffffffffffffffffffffffffffffff\n      and\n      dup2\n      jump\t// out\n        /* \"controller.sol\":1277:1322  mapping(address => bool) public isAgentFrozen */\n    tag_75:\n      mstore(0x20, 0x03)\n      dup1\n      0x00\n      mstore\n      keccak256(0x00, 0x40)\n      0x00\n      swap2\n      pop\n      sload\n      swap1\n      0x0100\n      exp\n      swap1\n      div\n      0xff\n      and\n      dup2\n      jump\t// out\n        /* \"controller.sol\":2079:2372  function registerAgent(... */\n    tag_81:\n        /* \"controller.sol\":2206:2219  isAgentFrozen */\n      0x03\n        /* \"controller.sol\":2206:2227  isAgentFrozen[_agent] */\n      0x00\n        /* \"controller.sol\":2220:2226  _agent */\n      dup5\n        /* \"controller.sol\":2206:2227  isAgentFrozen[_agent] */\n      0xffffffffffffffffffffffffffffffffffffffff\n      and\n      0xffffffffffffffffffffffffffffffffffffffff\n      and\n      dup2\n      mstore\n      0x20\n      add\n      swap1\n      dup2\n      mstore\n      0x20\n      add\n      0x00\n      keccak256\n      0x00\n      swap1\n      sload\n      swap1\n      0x0100\n      exp\n      swap1\n      div\n      0xff\n      and\n        /* \"controller.sol\":2205:2227  !isAgentFrozen[_agent] */\n      iszero\n        /* \"controller.sol\":2197:2258  require(!isAgentFrozen[_agent], \"Agent already initialized.\") */\n      tag_160\n      jumpi\n      mload(0x40)\n      0x08c379a000000000000000000000000000000000000000000000000000000000\n      dup2\n      mstore\n      0x04\n      add\n      tag_161\n      swap1\n      tag_162\n      jump\t// in\n    tag_161:\n      mload(0x40)\n      dup1\n      swap2\n      sub\n      swap1\n      revert\n    tag_160:\n        /* \"controller.sol\":2291:2295  _cap */\n      dup1\n        /* \"controller.sol\":2268:2280  spendingCaps */\n      0x02\n        /* \"controller.sol\":2268:2288  spendingCaps[_agent] */\n      0x00\n        /* \"controller.sol\":2281:2287  _agent */\n      dup6\n        /* \"controller.sol\":2268:2288  spendingCaps[_agent] */\n      0xffffffffffffffffffffffffffffffffffffffff\n      and\n      0xffffffffffffffffffffffffffffffffffffffff\n      and\n      dup2\n      mstore\n      0x20\n      add\n      swap1\n      dup2\n      mstore\n      0x20\n      add\n      0x00\n      keccak256\n        /* \"controller.sol\":2268:2295  spendingCaps[_agent] = _cap */\n      dup2\n      swap1\n      sstore\n      pop\n        /* \"controller.sol\":2322:2328  _agent */\n      dup3\n        /* \"controller.sol\":2305:2311  agents */\n      0x05\n        /* \"controller.sol\":2305:2319  agents[_owner] */\n      0x00\n        /* \"controller.sol\":2312:2318  _owner */\n      dup5\n        /* \"controller.sol\":2305:2319  agents[_owner] */\n      0xffffffffffffffffffffffffffffffffffffffff\n      and\n      0xffffffffffffffffffffffffffffffffffffffff\n      and\n      dup2\n      mstore\n      0x20\n      add\n      swap1\n      dup2\n      mstore\n      0x20\n      add\n      0x00\n      keccak256\n      0x00\n        /* \"controller.sol\":2305:2328  agents[_owner] = _agent */\n      0x0100\n      exp\n      dup2\n      sload\n      dup2\n      0xffffffffffffffffffffffffffffffffffffffff\n      mul\n      not\n      and\n      swap1\n      dup4\n      0xffffffffffffffffffffffffffffffffffffffff\n      and\n      mul\n      or\n      swap1\n      sstore\n      pop\n        /* \"controller.sol\":2343:2365  AgentActivated(_agent) */\n      0xa7a8c16b3ff27bf6a39d141c5c28cadca6b06341ed9cf03b462d263d2e4758a6\n        /* \"controller.sol\":2358:2364  _agent */\n      dup4\n        /* \"controller.sol\":2343:2365  AgentActivated(_agent) */\n      mload(0x40)\n      tag_163\n      swap2\n      swap1\n      tag_48\n      jump\t// in\n    tag_163:\n      mload(0x40)\n      dup1\n      swap2\n      sub\n      swap1\n      log1\n        /* \"controller.sol\":2079:2372  function registerAgent(... */\n      pop\n      pop\n      pop\n      jump\t// out\n        /* \"controller.sol\":1181:1217  int64 public constant HIGH_RATE = 10 */\n    tag_83:\n        /* \"controller.sol\":1215:1217  10 */\n      0x0a\n        /* \"controller.sol\":1181:1217  int64 public constant HIGH_RATE = 10 */\n      dup2\n      jump\t// out\n        /* \"controller.sol\":1840:1995  function setOperationRate(... */\n    tag_88:\n        /* \"controller.sol\":1712:1722  msg.sender */\n      caller\n        /* \"controller.sol\":1703:1722  owner == msg.sender */\n      0xffffffffffffffffffffffffffffffffffffffff\n      and\n        /* \"controller.sol\":1703:1708  owner */\n      0x00\n      dup1\n      sload\n      swap1\n      0x0100\n      exp\n      swap1\n      div\n      0xffffffffffffffffffffffffffffffffffffffff\n      and\n        /* \"controller.sol\":1703:1722  owner == msg.sender */\n      0xffffffffffffffffffffffffffffffffffffffff\n      and\n      eq\n        /* \"controller.sol\":1695:1740  require(owner == msg.sender, \"Unauthourized\") */\n      tag_165\n      jumpi\n      mload(0x40)\n      0x08c379a000000000000000000000000000000000000000000000000000000000\n      dup2\n      mstore\n      0x04\n      add\n      tag_166\n      swap1\n      tag_167\n      jump\t// in\n    tag_166:\n      mload(0x40)\n      dup1\n      swap2\n      sub\n      swap1\n      revert\n    tag_165:\n        /* \"controller.sol\":1984:1988  rate */\n      dup1\n        /* \"controller.sol\":1956:1970  operationRates */\n      0x04\n        /* \"controller.sol\":1956:1981  operationRates[operation] */\n      0x00\n        /* \"controller.sol\":1971:1980  operation */\n      dup5\n        /* \"controller.sol\":1956:1981  operationRates[operation] */\n      0x02\n      dup2\n      gt\n      iszero\n      tag_169\n      jumpi\n      tag_170\n      tag_108\n      jump\t// in\n    tag_170:\n    tag_169:\n      0x02\n      dup2\n      gt\n      iszero\n      tag_171\n      jumpi\n      tag_172\n      tag_108\n      jump\t// in\n    tag_172:\n    tag_171:\n      dup2\n      mstore\n      0x20\n      add\n      swap1\n      dup2\n      mstore\n      0x20\n      add\n      0x00\n      keccak256\n        /* \"controller.sol\":1956:1988  operationRates[operation] = rate */\n      dup2\n      swap1\n      sstore\n      pop\n        /* \"controller.sol\":1840:1995  function setOperationRate(... */\n      pop\n      pop\n      jump\t// out\n        /* \"controller.sol\":537:556  IERC20 public token */\n    tag_90:\n      0x01\n      0x00\n      swap1\n      sload\n      swap1\n      0x0100\n      exp\n      swap1\n      div\n      0xffffffffffffffffffffffffffffffffffffffff\n      and\n      dup2\n      jump\t// out\n        /* \"controller.sol\":1389:1430  mapping(address => address) public agents */\n    tag_95:\n      mstore(0x20, 0x05)\n      dup1\n      0x00\n      mstore\n      keccak256(0x00, 0x40)\n      0x00\n      swap2\n      pop\n      sload\n      swap1\n      0x0100\n      exp\n      swap1\n      div\n      0xffffffffffffffffffffffffffffffffffffffff\n      and\n      dup2\n      jump\t// out\n        /* \"#utility.yul\":88:205   */\n    tag_174:\n        /* \"#utility.yul\":197:198   */\n      0x00\n        /* \"#utility.yul\":194:195   */\n      dup1\n        /* \"#utility.yul\":187:199   */\n      revert\n        /* \"#utility.yul\":334:449   */\n    tag_176:\n        /* \"#utility.yul\":423:424   */\n      0x03\n        /* \"#utility.yul\":416:421   */\n      dup2\n        /* \"#utility.yul\":413:425   */\n      lt\n        /* \"#utility.yul\":403:443   */\n      tag_234\n      jumpi\n        /* \"#utility.yul\":439:440   */\n      0x00\n        /* \"#utility.yul\":436:437   */\n      dup1\n        /* \"#utility.yul\":429:441   */\n      revert\n        /* \"#utility.yul\":403:443   */\n    tag_234:\n        /* \"#utility.yul\":334:449   */\n      pop\n      jump\t// out\n        /* \"#utility.yul\":455:626   */\n    tag_177:\n        /* \"#utility.yul\":517:522   */\n      0x00\n        /* \"#utility.yul\":555:561   */\n      dup2\n        /* \"#utility.yul\":542:562   */\n      calldataload\n        /* \"#utility.yul\":533:562   */\n      swap1\n      pop\n        /* \"#utility.yul\":571:620   */\n      tag_236\n        /* \"#utility.yul\":614:619   */\n      dup2\n        /* \"#utility.yul\":571:620   */\n      tag_176\n      jump\t// in\n    tag_236:\n        /* \"#utility.yul\":455:626   */\n      swap3\n      swap2\n      pop\n      pop\n      jump\t// out\n        /* \"#utility.yul\":632:993   */\n    tag_25:\n        /* \"#utility.yul\":707:713   */\n      0x00\n        /* \"#utility.yul\":756:758   */\n      0x20\n        /* \"#utility.yul\":744:753   */\n      dup3\n        /* \"#utility.yul\":735:742   */\n      dup5\n        /* \"#utility.yul\":731:754   */\n      sub\n        /* \"#utility.yul\":727:759   */\n      slt\n        /* \"#utility.yul\":724:843   */\n      iszero\n      tag_238\n      jumpi\n        /* \"#utility.yul\":762:841   */\n      tag_239\n      tag_174\n      jump\t// in\n    tag_239:\n        /* \"#utility.yul\":724:843   */\n    tag_238:\n        /* \"#utility.yul\":882:883   */\n      0x00\n        /* \"#utility.yul\":907:976   */\n      tag_240\n        /* \"#utility.yul\":968:975   */\n      dup5\n        /* \"#utility.yul\":959:965   */\n      dup3\n        /* \"#utility.yul\":948:957   */\n      dup6\n        /* \"#utility.yul\":944:966   */\n      add\n        /* \"#utility.yul\":907:976   */\n      tag_177\n      jump\t// in\n    tag_240:\n        /* \"#utility.yul\":897:976   */\n      swap2\n      pop\n        /* \"#utility.yul\":853:986   */\n      pop\n        /* \"#utility.yul\":632:993   */\n      swap3\n      swap2\n      pop\n      pop\n      jump\t// out\n        /* \"#utility.yul\":999:1076   */\n    tag_178:\n        /* \"#utility.yul\":1036:1043   */\n      0x00\n        /* \"#utility.yul\":1065:1070   */\n      dup2\n        /* \"#utility.yul\":1054:1070   */\n      swap1\n      pop\n        /* \"#utility.yul\":999:1076   */\n      swap2\n      swap1\n      pop\n      jump\t// out\n        /* \"#utility.yul\":1082:1200   */\n    tag_179:\n        /* \"#utility.yul\":1169:1193   */\n      tag_243\n        /* \"#utility.yul\":1187:1192   */\n      dup2\n        /* \"#utility.yul\":1169:1193   */\n      tag_178\n      jump\t// in\n    tag_243:\n        /* \"#utility.yul\":1164:1167   */\n      dup3\n        /* \"#utility.yul\":1157:1194   */\n      mstore\n        /* \"#utility.yul\":1082:1200   */\n      pop\n      pop\n      jump\t// out\n        /* \"#utility.yul\":1206:1428   */\n    tag_28:\n        /* \"#utility.yul\":1299:1303   */\n      0x00\n        /* \"#utility.yul\":1337:1339   */\n      0x20\n        /* \"#utility.yul\":1326:1335   */\n      dup3\n        /* \"#utility.yul\":1322:1340   */\n      add\n        /* \"#utility.yul\":1314:1340   */\n      swap1\n      pop\n        /* \"#utility.yul\":1350:1421   */\n      tag_245\n        /* \"#utility.yul\":1418:1419   */\n      0x00\n        /* \"#utility.yul\":1407:1416   */\n      dup4\n        /* \"#utility.yul\":1403:1420   */\n      add\n        /* \"#utility.yul\":1394:1400   */\n      dup5\n        /* \"#utility.yul\":1350:1421   */\n      tag_179\n      jump\t// in\n    tag_245:\n        /* \"#utility.yul\":1206:1428   */\n      swap3\n      swap2\n      pop\n      pop\n      jump\t// out\n        /* \"#utility.yul\":1434:1524   */\n    tag_180:\n        /* \"#utility.yul\":1469:1476   */\n      0x00\n        /* \"#utility.yul\":1512:1517   */\n      dup2\n        /* \"#utility.yul\":1509:1510   */\n      0x07\n        /* \"#utility.yul\":1498:1518   */\n      signextend\n        /* \"#utility.yul\":1487:1518   */\n      swap1\n      pop\n        /* \"#utility.yul\":1434:1524   */\n      swap2\n      swap1\n      pop\n      jump\t// out\n        /* \"#utility.yul\":1530:1642   */\n    tag_181:\n        /* \"#utility.yul\":1613:1635   */\n      tag_248\n        /* \"#utility.yul\":1629:1634   */\n      dup2\n        /* \"#utility.yul\":1613:1635   */\n      tag_180\n      jump\t// in\n    tag_248:\n        /* \"#utility.yul\":1608:1611   */\n      dup3\n        /* \"#utility.yul\":1601:1636   */\n      mstore\n        /* \"#utility.yul\":1530:1642   */\n      pop\n      pop\n      jump\t// out\n        /* \"#utility.yul\":1648:1862   */\n    tag_32:\n        /* \"#utility.yul\":1737:1741   */\n      0x00\n        /* \"#utility.yul\":1775:1777   */\n      0x20\n        /* \"#utility.yul\":1764:1773   */\n      dup3\n        /* \"#utility.yul\":1760:1778   */\n      add\n        /* \"#utility.yul\":1752:1778   */\n      swap1\n      pop\n        /* \"#utility.yul\":1788:1855   */\n      tag_250\n        /* \"#utility.yul\":1852:1853   */\n      0x00\n        /* \"#utility.yul\":1841:1850   */\n      dup4\n        /* \"#utility.yul\":1837:1854   */\n      add\n        /* \"#utility.yul\":1828:1834   */\n      dup5\n        /* \"#utility.yul\":1788:1855   */\n      tag_181\n      jump\t// in\n    tag_250:\n        /* \"#utility.yul\":1648:1862   */\n      swap3\n      swap2\n      pop\n      pop\n      jump\t// out\n        /* \"#utility.yul\":1868:1945   */\n    tag_182:\n        /* \"#utility.yul\":1905:1912   */\n      0x00\n        /* \"#utility.yul\":1934:1939   */\n      dup2\n        /* \"#utility.yul\":1923:1939   */\n      swap1\n      pop\n        /* \"#utility.yul\":1868:1945   */\n      swap2\n      swap1\n      pop\n      jump\t// out\n        /* \"#utility.yul\":1951:2073   */\n    tag_183:\n        /* \"#utility.yul\":2024:2048   */\n      tag_253\n        /* \"#utility.yul\":2042:2047   */\n      dup2\n        /* \"#utility.yul\":2024:2048   */\n      tag_182\n      jump\t// in\n    tag_253:\n        /* \"#utility.yul\":2017:2022   */\n      dup2\n        /* \"#utility.yul\":2014:2049   */\n      eq\n        /* \"#utility.yul\":2004:2067   */\n      tag_254\n      jumpi\n        /* \"#utility.yul\":2063:2064   */\n      0x00\n        /* \"#utility.yul\":2060:2061   */\n      dup1\n        /* \"#utility.yul\":2053:2065   */\n      revert\n        /* \"#utility.yul\":2004:2067   */\n    tag_254:\n        /* \"#utility.yul\":1951:2073   */\n      pop\n      jump\t// out\n        /* \"#utility.yul\":2079:2218   */\n    tag_184:\n        /* \"#utility.yul\":2125:2130   */\n      0x00\n        /* \"#utility.yul\":2163:2169   */\n      dup2\n        /* \"#utility.yul\":2150:2170   */\n      calldataload\n        /* \"#utility.yul\":2141:2170   */\n      swap1\n      pop\n        /* \"#utility.yul\":2179:2212   */\n      tag_256\n        /* \"#utility.yul\":2206:2211   */\n      dup2\n        /* \"#utility.yul\":2179:2212   */\n      tag_183\n      jump\t// in\n    tag_256:\n        /* \"#utility.yul\":2079:2218   */\n      swap3\n      swap2\n      pop\n      pop\n      jump\t// out\n        /* \"#utility.yul\":2224:2553   */\n    tag_35:\n        /* \"#utility.yul\":2283:2289   */\n      0x00\n        /* \"#utility.yul\":2332:2334   */\n      0x20\n        /* \"#utility.yul\":2320:2329   */\n      dup3\n        /* \"#utility.yul\":2311:2318   */\n      dup5\n        /* \"#utility.yul\":2307:2330   */\n      sub\n        /* \"#utility.yul\":2303:2335   */\n      slt\n        /* \"#utility.yul\":2300:2419   */\n      iszero\n      tag_258\n      jumpi\n        /* \"#utility.yul\":2338:2417   */\n      tag_259\n      tag_174\n      jump\t// in\n    tag_259:\n        /* \"#utility.yul\":2300:2419   */\n    tag_258:\n        /* \"#utility.yul\":2458:2459   */\n      0x00\n        /* \"#utility.yul\":2483:2536   */\n      tag_260\n        /* \"#utility.yul\":2528:2535   */\n      dup5\n        /* \"#utility.yul\":2519:2525   */\n      dup3\n        /* \"#utility.yul\":2508:2517   */\n      dup6\n        /* \"#utility.yul\":2504:2526   */\n      add\n        /* \"#utility.yul\":2483:2536   */\n      tag_184\n      jump\t// in\n    tag_260:\n        /* \"#utility.yul\":2473:2536   */\n      swap2\n      pop\n        /* \"#utility.yul\":2429:2546   */\n      pop\n        /* \"#utility.yul\":2224:2553   */\n      swap3\n      swap2\n      pop\n      pop\n      jump\t// out\n        /* \"#utility.yul\":2559:2685   */\n    tag_185:\n        /* \"#utility.yul\":2596:2603   */\n      0x00\n        /* \"#utility.yul\":2636:2678   */\n      0xffffffffffffffffffffffffffffffffffffffff\n        /* \"#utility.yul\":2629:2634   */\n      dup3\n        /* \"#utility.yul\":2625:2679   */\n      and\n        /* \"#utility.yul\":2614:2679   */\n      swap1\n      pop\n        /* \"#utility.yul\":2559:2685   */\n      swap2\n      swap1\n      pop\n      jump\t// out\n        /* \"#utility.yul\":2691:2787   */\n    tag_186:\n        /* \"#utility.yul\":2728:2735   */\n      0x00\n        /* \"#utility.yul\":2757:2781   */\n      tag_263\n        /* \"#utility.yul\":2775:2780   */\n      dup3\n        /* \"#utility.yul\":2757:2781   */\n      tag_185\n      jump\t// in\n    tag_263:\n        /* \"#utility.yul\":2746:2781   */\n      swap1\n      pop\n        /* \"#utility.yul\":2691:2787   */\n      swap2\n      swap1\n      pop\n      jump\t// out\n        /* \"#utility.yul\":2793:2911   */\n    tag_187:\n        /* \"#utility.yul\":2880:2904   */\n      tag_265\n        /* \"#utility.yul\":2898:2903   */\n      dup2\n        /* \"#utility.yul\":2880:2904   */\n      tag_186\n      jump\t// in\n    tag_265:\n        /* \"#utility.yul\":2875:2878   */\n      dup3\n        /* \"#utility.yul\":2868:2905   */\n      mstore\n        /* \"#utility.yul\":2793:2911   */\n      pop\n      pop\n      jump\t// out\n        /* \"#utility.yul\":2917:3097   */\n    tag_108:\n        /* \"#utility.yul\":2965:3042   */\n      0x4e487b7100000000000000000000000000000000000000000000000000000000\n        /* \"#utility.yul\":2962:2963   */\n      0x00\n        /* \"#utility.yul\":2955:3043   */\n      mstore\n        /* \"#utility.yul\":3062:3066   */\n      0x21\n        /* \"#utility.yul\":3059:3060   */\n      0x04\n        /* \"#utility.yul\":3052:3067   */\n      mstore\n        /* \"#utility.yul\":3086:3090   */\n      0x24\n        /* \"#utility.yul\":3083:3084   */\n      0x00\n        /* \"#utility.yul\":3076:3091   */\n      revert\n        /* \"#utility.yul\":3103:3224   */\n    tag_188:\n        /* \"#utility.yul\":3192:3193   */\n      0x03\n        /* \"#utility.yul\":3185:3190   */\n      dup2\n        /* \"#utility.yul\":3182:3194   */\n      lt\n        /* \"#utility.yul\":3172:3218   */\n      tag_268\n      jumpi\n        /* \"#utility.yul\":3198:3216   */\n      tag_269\n      tag_108\n      jump\t// in\n    tag_269:\n        /* \"#utility.yul\":3172:3218   */\n    tag_268:\n        /* \"#utility.yul\":3103:3224   */\n      pop\n      jump\t// out\n        /* \"#utility.yul\":3230:3373   */\n    tag_189:\n        /* \"#utility.yul\":3283:3290   */\n      0x00\n        /* \"#utility.yul\":3312:3317   */\n      dup2\n        /* \"#utility.yul\":3301:3317   */\n      swap1\n      pop\n        /* \"#utility.yul\":3318:3367   */\n      tag_271\n        /* \"#utility.yul\":3361:3366   */\n      dup3\n        /* \"#utility.yul\":3318:3367   */\n      tag_188\n      jump\t// in\n    tag_271:\n        /* \"#utility.yul\":3230:3373   */\n      swap2\n      swap1\n      pop\n      jump\t// out\n        /* \"#utility.yul\":3379:3522   */\n    tag_190:\n        /* \"#utility.yul\":3443:3452   */\n      0x00\n        /* \"#utility.yul\":3476:3516   */\n      tag_273\n        /* \"#utility.yul\":3510:3515   */\n      dup3\n        /* \"#utility.yul\":3476:3516   */\n      tag_189\n      jump\t// in\n    tag_273:\n        /* \"#utility.yul\":3463:3516   */\n      swap1\n      pop\n        /* \"#utility.yul\":3379:3522   */\n      swap2\n      swap1\n      pop\n      jump\t// out\n        /* \"#utility.yul\":3528:3687   */\n    tag_191:\n        /* \"#utility.yul\":3629:3680   */\n      tag_275\n        /* \"#utility.yul\":3674:3679   */\n      dup2\n        /* \"#utility.yul\":3629:3680   */\n      tag_190\n      jump\t// in\n    tag_275:\n        /* \"#utility.yul\":3624:3627   */\n      dup3\n        /* \"#utility.yul\":3617:3681   */\n      mstore\n        /* \"#utility.yul\":3528:3687   */\n      pop\n      pop\n      jump\t// out\n        /* \"#utility.yul\":3693:3783   */\n    tag_192:\n        /* \"#utility.yul\":3727:3734   */\n      0x00\n        /* \"#utility.yul\":3770:3775   */\n      dup2\n        /* \"#utility.yul\":3763:3776   */\n      iszero\n        /* \"#utility.yul\":3756:3777   */\n      iszero\n        /* \"#utility.yul\":3745:3777   */\n      swap1\n      pop\n        /* \"#utility.yul\":3693:3783   */\n      swap2\n      swap1\n      pop\n      jump\t// out\n        /* \"#utility.yul\":3789:3898   */\n    tag_193:\n        /* \"#utility.yul\":3870:3891   */\n      tag_278\n        /* \"#utility.yul\":3885:3890   */\n      dup2\n        /* \"#utility.yul\":3870:3891   */\n      tag_192\n      jump\t// in\n    tag_278:\n        /* \"#utility.yul\":3865:3868   */\n      dup3\n        /* \"#utility.yul\":3858:3892   */\n      mstore\n        /* \"#utility.yul\":3789:3898   */\n      pop\n      pop\n      jump\t// out\n        /* \"#utility.yul\":3904:4362   */\n    tag_38:\n        /* \"#utility.yul\":4061:4065   */\n      0x00\n        /* \"#utility.yul\":4099:4101   */\n      0x60\n        /* \"#utility.yul\":4088:4097   */\n      dup3\n        /* \"#utility.yul\":4084:4102   */\n      add\n        /* \"#utility.yul\":4076:4102   */\n      swap1\n      pop\n        /* \"#utility.yul\":4112:4183   */\n      tag_280\n        /* \"#utility.yul\":4180:4181   */\n      0x00\n        /* \"#utility.yul\":4169:4178   */\n      dup4\n        /* \"#utility.yul\":4165:4182   */\n      add\n        /* \"#utility.yul\":4156:4162   */\n      dup7\n        /* \"#utility.yul\":4112:4183   */\n      tag_187\n      jump\t// in\n    tag_280:\n        /* \"#utility.yul\":4193:4279   */\n      tag_281\n        /* \"#utility.yul\":4275:4277   */\n      0x20\n        /* \"#utility.yul\":4264:4273   */\n      dup4\n        /* \"#utility.yul\":4260:4278   */\n      add\n        /* \"#utility.yul\":4251:4257   */\n      dup6\n        /* \"#utility.yul\":4193:4279   */\n      tag_191\n      jump\t// in\n    tag_281:\n        /* \"#utility.yul\":4289:4355   */\n      tag_282\n        /* \"#utility.yul\":4351:4353   */\n      0x40\n        /* \"#utility.yul\":4340:4349   */\n      dup4\n        /* \"#utility.yul\":4336:4354   */\n      add\n        /* \"#utility.yul\":4327:4333   */\n      dup5\n        /* \"#utility.yul\":4289:4355   */\n      tag_193\n      jump\t// in\n    tag_282:\n        /* \"#utility.yul\":3904:4362   */\n      swap5\n      swap4\n      pop\n      pop\n      pop\n      pop\n      jump\t// out\n        /* \"#utility.yul\":4368:4490   */\n    tag_194:\n        /* \"#utility.yul\":4441:4465   */\n      tag_284\n        /* \"#utility.yul\":4459:4464   */\n      dup2\n        /* \"#utility.yul\":4441:4465   */\n      tag_186\n      jump\t// in\n    tag_284:\n        /* \"#utility.yul\":4434:4439   */\n      dup2\n        /* \"#utility.yul\":4431:4466   */\n      eq\n        /* \"#utility.yul\":4421:4484   */\n      tag_285\n      jumpi\n        /* \"#utility.yul\":4480:4481   */\n      0x00\n        /* \"#utility.yul\":4477:4478   */\n      dup1\n        /* \"#utility.yul\":4470:4482   */\n      revert\n        /* \"#utility.yul\":4421:4484   */\n    tag_285:\n        /* \"#utility.yul\":4368:4490   */\n      pop\n      jump\t// out\n        /* \"#utility.yul\":4496:4635   */\n    tag_195:\n        /* \"#utility.yul\":4542:4547   */\n      0x00\n        /* \"#utility.yul\":4580:4586   */\n      dup2\n        /* \"#utility.yul\":4567:4587   */\n      calldataload\n        /* \"#utility.yul\":4558:4587   */\n      swap1\n      pop\n        /* \"#utility.yul\":4596:4629   */\n      tag_287\n        /* \"#utility.yul\":4623:4628   */\n      dup2\n        /* \"#utility.yul\":4596:4629   */\n      tag_194\n      jump\t// in\n    tag_287:\n        /* \"#utility.yul\":4496:4635   */\n      swap3\n      swap2\n      pop\n      pop\n      jump\t// out\n        /* \"#utility.yul\":4641:4970   */\n    tag_41:\n        /* \"#utility.yul\":4700:4706   */\n      0x00\n        /* \"#utility.yul\":4749:4751   */\n      0x20\n        /* \"#utility.yul\":4737:4746   */\n      dup3\n        /* \"#utility.yul\":4728:4735   */\n      dup5\n        /* \"#utility.yul\":4724:4747   */\n      sub\n        /* \"#utility.yul\":4720:4752   */\n      slt\n        /* \"#utility.yul\":4717:4836   */\n      iszero\n      tag_289\n      jumpi\n        /* \"#utility.yul\":4755:4834   */\n      tag_290\n      tag_174\n      jump\t// in\n    tag_290:\n        /* \"#utility.yul\":4717:4836   */\n    tag_289:\n        /* \"#utility.yul\":4875:4876   */\n      0x00\n        /* \"#utility.yul\":4900:4953   */\n      tag_291\n        /* \"#utility.yul\":4945:4952   */\n      dup5\n        /* \"#utility.yul\":4936:4942   */\n      dup3\n        /* \"#utility.yul\":4925:4934   */\n      dup6\n        /* \"#utility.yul\":4921:4943   */\n      add\n        /* \"#utility.yul\":4900:4953   */\n      tag_195\n      jump\t// in\n    tag_291:\n        /* \"#utility.yul\":4890:4953   */\n      swap2\n      pop\n        /* \"#utility.yul\":4846:4963   */\n      pop\n        /* \"#utility.yul\":4641:4970   */\n      swap3\n      swap2\n      pop\n      pop\n      jump\t// out\n        /* \"#utility.yul\":4976:5198   */\n    tag_48:\n        /* \"#utility.yul\":5069:5073   */\n      0x00\n        /* \"#utility.yul\":5107:5109   */\n      0x20\n        /* \"#utility.yul\":5096:5105   */\n      dup3\n        /* \"#utility.yul\":5092:5110   */\n      add\n        /* \"#utility.yul\":5084:5110   */\n      swap1\n      pop\n        /* \"#utility.yul\":5120:5191   */\n      tag_293\n        /* \"#utility.yul\":5188:5189   */\n      0x00\n        /* \"#utility.yul\":5177:5186   */\n      dup4\n        /* \"#utility.yul\":5173:5190   */\n      add\n        /* \"#utility.yul\":5164:5170   */\n      dup5\n        /* \"#utility.yul\":5120:5191   */\n      tag_187\n      jump\t// in\n    tag_293:\n        /* \"#utility.yul\":4976:5198   */\n      swap3\n      swap2\n      pop\n      pop\n      jump\t// out\n        /* \"#utility.yul\":5204:5322   */\n    tag_196:\n        /* \"#utility.yul\":5275:5297   */\n      tag_295\n        /* \"#utility.yul\":5291:5296   */\n      dup2\n        /* \"#utility.yul\":5275:5297   */\n      tag_180\n      jump\t// in\n    tag_295:\n        /* \"#utility.yul\":5268:5273   */\n      dup2\n        /* \"#utility.yul\":5265:5298   */\n      eq\n        /* \"#utility.yul\":5255:5316   */\n      tag_296\n      jumpi\n        /* \"#utility.yul\":5312:5313   */\n      0x00\n        /* \"#utility.yul\":5309:5310   */\n      dup1\n        /* \"#utility.yul\":5302:5314   */\n      revert\n        /* \"#utility.yul\":5255:5316   */\n    tag_296:\n        /* \"#utility.yul\":5204:5322   */\n      pop\n      jump\t// out\n        /* \"#utility.yul\":5328:5463   */\n    tag_197:\n        /* \"#utility.yul\":5372:5377   */\n      0x00\n        /* \"#utility.yul\":5410:5416   */\n      dup2\n        /* \"#utility.yul\":5397:5417   */\n      calldataload\n        /* \"#utility.yul\":5388:5417   */\n      swap1\n      pop\n        /* \"#utility.yul\":5426:5457   */\n      tag_298\n        /* \"#utility.yul\":5451:5456   */\n      dup2\n        /* \"#utility.yul\":5426:5457   */\n      tag_196\n      jump\t// in\n    tag_298:\n        /* \"#utility.yul\":5328:5463   */\n      swap3\n      swap2\n      pop\n      pop\n      jump\t// out\n        /* \"#utility.yul\":5469:6408   */\n    tag_51:\n        /* \"#utility.yul\":5578:5584   */\n      0x00\n        /* \"#utility.yul\":5586:5592   */\n      dup1\n        /* \"#utility.yul\":5594:5600   */\n      0x00\n        /* \"#utility.yul\":5602:5608   */\n      dup1\n        /* \"#utility.yul\":5610:5616   */\n      0x00\n        /* \"#utility.yul\":5659:5662   */\n      0xa0\n        /* \"#utility.yul\":5647:5656   */\n      dup7\n        /* \"#utility.yul\":5638:5645   */\n      dup9\n        /* \"#utility.yul\":5634:5657   */\n      sub\n        /* \"#utility.yul\":5630:5663   */\n      slt\n        /* \"#utility.yul\":5627:5747   */\n      iszero\n      tag_300\n      jumpi\n        /* \"#utility.yul\":5666:5745   */\n      tag_301\n      tag_174\n      jump\t// in\n    tag_301:\n        /* \"#utility.yul\":5627:5747   */\n    tag_300:\n        /* \"#utility.yul\":5786:5787   */\n      0x00\n        /* \"#utility.yul\":5811:5864   */\n      tag_302\n        /* \"#utility.yul\":5856:5863   */\n      dup9\n        /* \"#utility.yul\":5847:5853   */\n      dup3\n        /* \"#utility.yul\":5836:5845   */\n      dup10\n        /* \"#utility.yul\":5832:5854   */\n      add\n        /* \"#utility.yul\":5811:5864   */\n      tag_195\n      jump\t// in\n    tag_302:\n        /* \"#utility.yul\":5801:5864   */\n      swap6\n      pop\n        /* \"#utility.yul\":5757:5874   */\n      pop\n        /* \"#utility.yul\":5913:5915   */\n      0x20\n        /* \"#utility.yul\":5939:5992   */\n      tag_303\n        /* \"#utility.yul\":5984:5991   */\n      dup9\n        /* \"#utility.yul\":5975:5981   */\n      dup3\n        /* \"#utility.yul\":5964:5973   */\n      dup10\n        /* \"#utility.yul\":5960:5982   */\n      add\n        /* \"#utility.yul\":5939:5992   */\n      tag_195\n      jump\t// in\n    tag_303:\n        /* \"#utility.yul\":5929:5992   */\n      swap5\n      pop\n        /* \"#utility.yul\":5884:6002   */\n      pop\n        /* \"#utility.yul\":6041:6043   */\n      0x40\n        /* \"#utility.yul\":6067:6120   */\n      tag_304\n        /* \"#utility.yul\":6112:6119   */\n      dup9\n        /* \"#utility.yul\":6103:6109   */\n      dup3\n        /* \"#utility.yul\":6092:6101   */\n      dup10\n        /* \"#utility.yul\":6088:6110   */\n      add\n        /* \"#utility.yul\":6067:6120   */\n      tag_184\n      jump\t// in\n    tag_304:\n        /* \"#utility.yul\":6057:6120   */\n      swap4\n      pop\n        /* \"#utility.yul\":6012:6130   */\n      pop\n        /* \"#utility.yul\":6169:6171   */\n      0x60\n        /* \"#utility.yul\":6195:6246   */\n      tag_305\n        /* \"#utility.yul\":6238:6245   */\n      dup9\n        /* \"#utility.yul\":6229:6235   */\n      dup3\n        /* \"#utility.yul\":6218:6227   */\n      dup10\n        /* \"#utility.yul\":6214:6236   */\n      add\n        /* \"#utility.yul\":6195:6246   */\n      tag_197\n      jump\t// in\n    tag_305:\n        /* \"#utility.yul\":6185:6246   */\n      swap3\n      pop\n        /* \"#utility.yul\":6140:6256   */\n      pop\n        /* \"#utility.yul\":6295:6298   */\n      0x80\n        /* \"#utility.yul\":6322:6391   */\n      tag_306\n        /* \"#utility.yul\":6383:6390   */\n      dup9\n        /* \"#utility.yul\":6374:6380   */\n      dup3\n        /* \"#utility.yul\":6363:6372   */\n      dup10\n        /* \"#utility.yul\":6359:6381   */\n      add\n        /* \"#utility.yul\":6322:6391   */\n      tag_177\n      jump\t// in\n    tag_306:\n        /* \"#utility.yul\":6312:6391   */\n      swap2\n      pop\n        /* \"#utility.yul\":6266:6401   */\n      pop\n        /* \"#utility.yul\":5469:6408   */\n      swap3\n      swap6\n      pop\n      swap3\n      swap6\n      swap1\n      swap4\n      pop\n      jump\t// out\n        /* \"#utility.yul\":6414:6530   */\n    tag_198:\n        /* \"#utility.yul\":6484:6505   */\n      tag_308\n        /* \"#utility.yul\":6499:6504   */\n      dup2\n        /* \"#utility.yul\":6484:6505   */\n      tag_192\n      jump\t// in\n    tag_308:\n        /* \"#utility.yul\":6477:6482   */\n      dup2\n        /* \"#utility.yul\":6474:6506   */\n      eq\n        /* \"#utility.yul\":6464:6524   */\n      tag_309\n      jumpi\n        /* \"#utility.yul\":6520:6521   */\n      0x00\n        /* \"#utility.yul\":6517:6518   */\n      dup1\n        /* \"#utility.yul\":6510:6522   */\n      revert\n        /* \"#utility.yul\":6464:6524   */\n    tag_309:\n        /* \"#utility.yul\":6414:6530   */\n      pop\n      jump\t// out\n        /* \"#utility.yul\":6536:6669   */\n    tag_199:\n        /* \"#utility.yul\":6579:6584   */\n      0x00\n        /* \"#utility.yul\":6617:6623   */\n      dup2\n        /* \"#utility.yul\":6604:6624   */\n      calldataload\n        /* \"#utility.yul\":6595:6624   */\n      swap1\n      pop\n        /* \"#utility.yul\":6633:6663   */\n      tag_311\n        /* \"#utility.yul\":6657:6662   */\n      dup2\n        /* \"#utility.yul\":6633:6663   */\n      tag_198\n      jump\t// in\n    tag_311:\n        /* \"#utility.yul\":6536:6669   */\n      swap3\n      swap2\n      pop\n      pop\n      jump\t// out\n        /* \"#utility.yul\":6675:6998   */\n    tag_55:\n        /* \"#utility.yul\":6731:6737   */\n      0x00\n        /* \"#utility.yul\":6780:6782   */\n      0x20\n        /* \"#utility.yul\":6768:6777   */\n      dup3\n        /* \"#utility.yul\":6759:6766   */\n      dup5\n        /* \"#utility.yul\":6755:6778   */\n      sub\n        /* \"#utility.yul\":6751:6783   */\n      slt\n        /* \"#utility.yul\":6748:6867   */\n      iszero\n      tag_313\n      jumpi\n        /* \"#utility.yul\":6786:6865   */\n      tag_314\n      tag_174\n      jump\t// in\n    tag_314:\n        /* \"#utility.yul\":6748:6867   */\n    tag_313:\n        /* \"#utility.yul\":6906:6907   */\n      0x00\n        /* \"#utility.yul\":6931:6981   */\n      tag_315\n        /* \"#utility.yul\":6973:6980   */\n      dup5\n        /* \"#utility.yul\":6964:6970   */\n      dup3\n        /* \"#utility.yul\":6953:6962   */\n      dup6\n        /* \"#utility.yul\":6949:6971   */\n      add\n        /* \"#utility.yul\":6931:6981   */\n      tag_199\n      jump\t// in\n    tag_315:\n        /* \"#utility.yul\":6921:6981   */\n      swap2\n      pop\n        /* \"#utility.yul\":6877:6991   */\n      pop\n        /* \"#utility.yul\":6675:6998   */\n      swap3\n      swap2\n      pop\n      pop\n      jump\t// out\n        /* \"#utility.yul\":7004:7126   */\n    tag_200:\n        /* \"#utility.yul\":7077:7101   */\n      tag_317\n        /* \"#utility.yul\":7095:7100   */\n      dup2\n        /* \"#utility.yul\":7077:7101   */\n      tag_178\n      jump\t// in\n    tag_317:\n        /* \"#utility.yul\":7070:7075   */\n      dup2\n        /* \"#utility.yul\":7067:7102   */\n      eq\n        /* \"#utility.yul\":7057:7120   */\n      tag_318\n      jumpi\n        /* \"#utility.yul\":7116:7117   */\n      0x00\n        /* \"#utility.yul\":7113:7114   */\n      dup1\n        /* \"#utility.yul\":7106:7118   */\n      revert\n        /* \"#utility.yul\":7057:7120   */\n    tag_318:\n        /* \"#utility.yul\":7004:7126   */\n      pop\n      jump\t// out\n        /* \"#utility.yul\":7132:7271   */\n    tag_201:\n        /* \"#utility.yul\":7178:7183   */\n      0x00\n        /* \"#utility.yul\":7216:7222   */\n      dup2\n        /* \"#utility.yul\":7203:7223   */\n      calldataload\n        /* \"#utility.yul\":7194:7223   */\n      swap1\n      pop\n        /* \"#utility.yul\":7232:7265   */\n      tag_320\n        /* \"#utility.yul\":7259:7264   */\n      dup2\n        /* \"#utility.yul\":7232:7265   */\n      tag_200\n      jump\t// in\n    tag_320:\n        /* \"#utility.yul\":7132:7271   */\n      swap3\n      swap2\n      pop\n      pop\n      jump\t// out\n        /* \"#utility.yul\":7277:7751   */\n    tag_62:\n        /* \"#utility.yul\":7345:7351   */\n      0x00\n        /* \"#utility.yul\":7353:7359   */\n      dup1\n        /* \"#utility.yul\":7402:7404   */\n      0x40\n        /* \"#utility.yul\":7390:7399   */\n      dup4\n        /* \"#utility.yul\":7381:7388   */\n      dup6\n        /* \"#utility.yul\":7377:7400   */\n      sub\n        /* \"#utility.yul\":7373:7405   */\n      slt\n        /* \"#utility.yul\":7370:7489   */\n      iszero\n      tag_322\n      jumpi\n        /* \"#utility.yul\":7408:7487   */\n      tag_323\n      tag_174\n      jump\t// in\n    tag_323:\n        /* \"#utility.yul\":7370:7489   */\n    tag_322:\n        /* \"#utility.yul\":7528:7529   */\n      0x00\n        /* \"#utility.yul\":7553:7606   */\n      tag_324\n        /* \"#utility.yul\":7598:7605   */\n      dup6\n        /* \"#utility.yul\":7589:7595   */\n      dup3\n        /* \"#utility.yul\":7578:7587   */\n      dup7\n        /* \"#utility.yul\":7574:7596   */\n      add\n        /* \"#utility.yul\":7553:7606   */\n      tag_195\n      jump\t// in\n    tag_324:\n        /* \"#utility.yul\":7543:7606   */\n      swap3\n      pop\n        /* \"#utility.yul\":7499:7616   */\n      pop\n        /* \"#utility.yul\":7655:7657   */\n      0x20\n        /* \"#utility.yul\":7681:7734   */\n      tag_325\n        /* \"#utility.yul\":7726:7733   */\n      dup6\n        /* \"#utility.yul\":7717:7723   */\n      dup3\n        /* \"#utility.yul\":7706:7715   */\n      dup7\n        /* \"#utility.yul\":7702:7724   */\n      add\n        /* \"#utility.yul\":7681:7734   */\n      tag_201\n      jump\t// in\n    tag_325:\n        /* \"#utility.yul\":7671:7734   */\n      swap2\n      pop\n        /* \"#utility.yul\":7626:7744   */\n      pop\n        /* \"#utility.yul\":7277:7751   */\n      swap3\n      pop\n      swap3\n      swap1\n      pop\n      jump\t// out\n        /* \"#utility.yul\":7757:8408   */\n    tag_66:\n        /* \"#utility.yul\":7850:7856   */\n      0x00\n        /* \"#utility.yul\":7858:7864   */\n      dup1\n        /* \"#utility.yul\":7866:7872   */\n      0x00\n        /* \"#utility.yul\":7915:7917   */\n      0x60\n        /* \"#utility.yul\":7903:7912   */\n      dup5\n        /* \"#utility.yul\":7894:7901   */\n      dup7\n        /* \"#utility.yul\":7890:7913   */\n      sub\n        /* \"#utility.yul\":7886:7918   */\n      slt\n        /* \"#utility.yul\":7883:8002   */\n      iszero\n      tag_327\n      jumpi\n        /* \"#utility.yul\":7921:8000   */\n      tag_328\n      tag_174\n      jump\t// in\n    tag_328:\n        /* \"#utility.yul\":7883:8002   */\n    tag_327:\n        /* \"#utility.yul\":8041:8042   */\n      0x00\n        /* \"#utility.yul\":8066:8119   */\n      tag_329\n        /* \"#utility.yul\":8111:8118   */\n      dup7\n        /* \"#utility.yul\":8102:8108   */\n      dup3\n        /* \"#utility.yul\":8091:8100   */\n      dup8\n        /* \"#utility.yul\":8087:8109   */\n      add\n        /* \"#utility.yul\":8066:8119   */\n      tag_195\n      jump\t// in\n    tag_329:\n        /* \"#utility.yul\":8056:8119   */\n      swap4\n      pop\n        /* \"#utility.yul\":8012:8129   */\n      pop\n        /* \"#utility.yul\":8168:8170   */\n      0x20\n        /* \"#utility.yul\":8194:8247   */\n      tag_330\n        /* \"#utility.yul\":8239:8246   */\n      dup7\n        /* \"#utility.yul\":8230:8236   */\n      dup3\n        /* \"#utility.yul\":8219:8228   */\n      dup8\n        /* \"#utility.yul\":8215:8237   */\n      add\n        /* \"#utility.yul\":8194:8247   */\n      tag_184\n      jump\t// in\n    tag_330:\n        /* \"#utility.yul\":8184:8247   */\n      swap3\n      pop\n        /* \"#utility.yul\":8139:8257   */\n      pop\n        /* \"#utility.yul\":8296:8298   */\n      0x40\n        /* \"#utility.yul\":8322:8391   */\n      tag_331\n        /* \"#utility.yul\":8383:8390   */\n      dup7\n        /* \"#utility.yul\":8374:8380   */\n      dup3\n        /* \"#utility.yul\":8363:8372   */\n      dup8\n        /* \"#utility.yul\":8359:8381   */\n      add\n        /* \"#utility.yul\":8322:8391   */\n      tag_177\n      jump\t// in\n    tag_331:\n        /* \"#utility.yul\":8312:8391   */\n      swap2\n      pop\n        /* \"#utility.yul\":8267:8401   */\n      pop\n        /* \"#utility.yul\":7757:8408   */\n      swap3\n      pop\n      swap3\n      pop\n      swap3\n      jump\t// out\n        /* \"#utility.yul\":8414:8532   */\n    tag_202:\n        /* \"#utility.yul\":8501:8525   */\n      tag_333\n        /* \"#utility.yul\":8519:8524   */\n      dup2\n        /* \"#utility.yul\":8501:8525   */\n      tag_182\n      jump\t// in\n    tag_333:\n        /* \"#utility.yul\":8496:8499   */\n      dup3\n        /* \"#utility.yul\":8489:8526   */\n      mstore\n        /* \"#utility.yul\":8414:8532   */\n      pop\n      pop\n      jump\t// out\n        /* \"#utility.yul\":8538:8760   */\n    tag_69:\n        /* \"#utility.yul\":8631:8635   */\n      0x00\n        /* \"#utility.yul\":8669:8671   */\n      0x20\n        /* \"#utility.yul\":8658:8667   */\n      dup3\n        /* \"#utility.yul\":8654:8672   */\n      add\n        /* \"#utility.yul\":8646:8672   */\n      swap1\n      pop\n        /* \"#utility.yul\":8682:8753   */\n      tag_335\n        /* \"#utility.yul\":8750:8751   */\n      0x00\n        /* \"#utility.yul\":8739:8748   */\n      dup4\n        /* \"#utility.yul\":8735:8752   */\n      add\n        /* \"#utility.yul\":8726:8732   */\n      dup5\n        /* \"#utility.yul\":8682:8753   */\n      tag_202\n      jump\t// in\n    tag_335:\n        /* \"#utility.yul\":8538:8760   */\n      swap3\n      swap2\n      pop\n      pop\n      jump\t// out\n        /* \"#utility.yul\":8766:8976   */\n    tag_77:\n        /* \"#utility.yul\":8853:8857   */\n      0x00\n        /* \"#utility.yul\":8891:8893   */\n      0x20\n        /* \"#utility.yul\":8880:8889   */\n      dup3\n        /* \"#utility.yul\":8876:8894   */\n      add\n        /* \"#utility.yul\":8868:8894   */\n      swap1\n      pop\n        /* \"#utility.yul\":8904:8969   */\n      tag_337\n        /* \"#utility.yul\":8966:8967   */\n      0x00\n        /* \"#utility.yul\":8955:8964   */\n      dup4\n        /* \"#utility.yul\":8951:8968   */\n      add\n        /* \"#utility.yul\":8942:8948   */\n      dup5\n        /* \"#utility.yul\":8904:8969   */\n      tag_193\n      jump\t// in\n    tag_337:\n        /* \"#utility.yul\":8766:8976   */\n      swap3\n      swap2\n      pop\n      pop\n      jump\t// out\n        /* \"#utility.yul\":8982:9601   */\n    tag_80:\n        /* \"#utility.yul\":9059:9065   */\n      0x00\n        /* \"#utility.yul\":9067:9073   */\n      dup1\n        /* \"#utility.yul\":9075:9081   */\n      0x00\n        /* \"#utility.yul\":9124:9126   */\n      0x60\n        /* \"#utility.yul\":9112:9121   */\n      dup5\n        /* \"#utility.yul\":9103:9110   */\n      dup7\n        /* \"#utility.yul\":9099:9122   */\n      sub\n        /* \"#utility.yul\":9095:9127   */\n      slt\n        /* \"#utility.yul\":9092:9211   */\n      iszero\n      tag_339\n      jumpi\n        /* \"#utility.yul\":9130:9209   */\n      tag_340\n      tag_174\n      jump\t// in\n    tag_340:\n        /* \"#utility.yul\":9092:9211   */\n    tag_339:\n        /* \"#utility.yul\":9250:9251   */\n      0x00\n        /* \"#utility.yul\":9275:9328   */\n      tag_341\n        /* \"#utility.yul\":9320:9327   */\n      dup7\n        /* \"#utility.yul\":9311:9317   */\n      dup3\n        /* \"#utility.yul\":9300:9309   */\n      dup8\n        /* \"#utility.yul\":9296:9318   */\n      add\n        /* \"#utility.yul\":9275:9328   */\n      tag_195\n      jump\t// in\n    tag_341:\n        /* \"#utility.yul\":9265:9328   */\n      swap4\n      pop\n        /* \"#utility.yul\":9221:9338   */\n      pop\n        /* \"#utility.yul\":9377:9379   */\n      0x20\n        /* \"#utility.yul\":9403:9456   */\n      tag_342\n        /* \"#utility.yul\":9448:9455   */\n      dup7\n        /* \"#utility.yul\":9439:9445   */\n      dup3\n        /* \"#utility.yul\":9428:9437   */\n      dup8\n        /* \"#utility.yul\":9424:9446   */\n      add\n        /* \"#utility.yul\":9403:9456   */\n      tag_195\n      jump\t// in\n    tag_342:\n        /* \"#utility.yul\":9393:9456   */\n      swap3\n      pop\n        /* \"#utility.yul\":9348:9466   */\n      pop\n        /* \"#utility.yul\":9505:9507   */\n      0x40\n        /* \"#utility.yul\":9531:9584   */\n      tag_343\n        /* \"#utility.yul\":9576:9583   */\n      dup7\n        /* \"#utility.yul\":9567:9573   */\n      dup3\n        /* \"#utility.yul\":9556:9565   */\n      dup8\n        /* \"#utility.yul\":9552:9574   */\n      add\n        /* \"#utility.yul\":9531:9584   */\n      tag_201\n      jump\t// in\n    tag_343:\n        /* \"#utility.yul\":9521:9584   */\n      swap2\n      pop\n        /* \"#utility.yul\":9476:9594   */\n      pop\n        /* \"#utility.yul\":8982:9601   */\n      swap3\n      pop\n      swap3\n      pop\n      swap3\n      jump\t// out\n        /* \"#utility.yul\":9607:10113   */\n    tag_87:\n        /* \"#utility.yul\":9691:9697   */\n      0x00\n        /* \"#utility.yul\":9699:9705   */\n      dup1\n        /* \"#utility.yul\":9748:9750   */\n      0x40\n        /* \"#utility.yul\":9736:9745   */\n      dup4\n        /* \"#utility.yul\":9727:9734   */\n      dup6\n        /* \"#utility.yul\":9723:9746   */\n      sub\n        /* \"#utility.yul\":9719:9751   */\n      slt\n        /* \"#utility.yul\":9716:9835   */\n      iszero\n      tag_345\n      jumpi\n        /* \"#utility.yul\":9754:9833   */\n      tag_346\n      tag_174\n      jump\t// in\n    tag_346:\n        /* \"#utility.yul\":9716:9835   */\n    tag_345:\n        /* \"#utility.yul\":9874:9875   */\n      0x00\n        /* \"#utility.yul\":9899:9968   */\n      tag_347\n        /* \"#utility.yul\":9960:9967   */\n      dup6\n        /* \"#utility.yul\":9951:9957   */\n      dup3\n        /* \"#utility.yul\":9940:9949   */\n      dup7\n        /* \"#utility.yul\":9936:9958   */\n      add\n        /* \"#utility.yul\":9899:9968   */\n      tag_177\n      jump\t// in\n    tag_347:\n        /* \"#utility.yul\":9889:9968   */\n      swap3\n      pop\n        /* \"#utility.yul\":9845:9978   */\n      pop\n        /* \"#utility.yul\":10017:10019   */\n      0x20\n        /* \"#utility.yul\":10043:10096   */\n      tag_348\n        /* \"#utility.yul\":10088:10095   */\n      dup6\n        /* \"#utility.yul\":10079:10085   */\n      dup3\n        /* \"#utility.yul\":10068:10077   */\n      dup7\n        /* \"#utility.yul\":10064:10086   */\n      add\n        /* \"#utility.yul\":10043:10096   */\n      tag_201\n      jump\t// in\n    tag_348:\n        /* \"#utility.yul\":10033:10096   */\n      swap2\n      pop\n        /* \"#utility.yul\":9988:10106   */\n      pop\n        /* \"#utility.yul\":9607:10113   */\n      swap3\n      pop\n      swap3\n      swap1\n      pop\n      jump\t// out\n        /* \"#utility.yul\":10119:10179   */\n    tag_203:\n        /* \"#utility.yul\":10147:10150   */\n      0x00\n        /* \"#utility.yul\":10168:10173   */\n      dup2\n        /* \"#utility.yul\":10161:10173   */\n      swap1\n      pop\n        /* \"#utility.yul\":10119:10179   */\n      swap2\n      swap1\n      pop\n      jump\t// out\n        /* \"#utility.yul\":10185:10327   */\n    tag_204:\n        /* \"#utility.yul\":10235:10244   */\n      0x00\n        /* \"#utility.yul\":10268:10321   */\n      tag_351\n        /* \"#utility.yul\":10286:10320   */\n      tag_352\n        /* \"#utility.yul\":10295:10319   */\n      tag_353\n        /* \"#utility.yul\":10313:10318   */\n      dup5\n        /* \"#utility.yul\":10295:10319   */\n      tag_185\n      jump\t// in\n    tag_353:\n        /* \"#utility.yul\":10286:10320   */\n      tag_203\n      jump\t// in\n    tag_352:\n        /* \"#utility.yul\":10268:10321   */\n      tag_185\n      jump\t// in\n    tag_351:\n        /* \"#utility.yul\":10255:10321   */\n      swap1\n      pop\n        /* \"#utility.yul\":10185:10327   */\n      swap2\n      swap1\n      pop\n      jump\t// out\n        /* \"#utility.yul\":10333:10459   */\n    tag_205:\n        /* \"#utility.yul\":10383:10392   */\n      0x00\n        /* \"#utility.yul\":10416:10453   */\n      tag_355\n        /* \"#utility.yul\":10447:10452   */\n      dup3\n        /* \"#utility.yul\":10416:10453   */\n      tag_204\n      jump\t// in\n    tag_355:\n        /* \"#utility.yul\":10403:10453   */\n      swap1\n      pop\n        /* \"#utility.yul\":10333:10459   */\n      swap2\n      swap1\n      pop\n      jump\t// out\n        /* \"#utility.yul\":10465:10604   */\n    tag_206:\n        /* \"#utility.yul\":10528:10537   */\n      0x00\n        /* \"#utility.yul\":10561:10598   */\n      tag_357\n        /* \"#utility.yul\":10592:10597   */\n      dup3\n        /* \"#utility.yul\":10561:10598   */\n      tag_205\n      jump\t// in\n    tag_357:\n        /* \"#utility.yul\":10548:10598   */\n      swap1\n      pop\n        /* \"#utility.yul\":10465:10604   */\n      swap2\n      swap1\n      pop\n      jump\t// out\n        /* \"#utility.yul\":10610:10767   */\n    tag_207:\n        /* \"#utility.yul\":10710:10760   */\n      tag_359\n        /* \"#utility.yul\":10754:10759   */\n      dup2\n        /* \"#utility.yul\":10710:10760   */\n      tag_206\n      jump\t// in\n    tag_359:\n        /* \"#utility.yul\":10705:10708   */\n      dup3\n        /* \"#utility.yul\":10698:10761   */\n      mstore\n        /* \"#utility.yul\":10610:10767   */\n      pop\n      pop\n      jump\t// out\n        /* \"#utility.yul\":10773:11021   */\n    tag_92:\n        /* \"#utility.yul\":10879:10883   */\n      0x00\n        /* \"#utility.yul\":10917:10919   */\n      0x20\n        /* \"#utility.yul\":10906:10915   */\n      dup3\n        /* \"#utility.yul\":10902:10920   */\n      add\n        /* \"#utility.yul\":10894:10920   */\n      swap1\n      pop\n        /* \"#utility.yul\":10930:11014   */\n      tag_361\n        /* \"#utility.yul\":11011:11012   */\n      0x00\n        /* \"#utility.yul\":11000:11009   */\n      dup4\n        /* \"#utility.yul\":10996:11013   */\n      add\n        /* \"#utility.yul\":10987:10993   */\n      dup5\n        /* \"#utility.yul\":10930:11014   */\n      tag_207\n      jump\t// in\n    tag_361:\n        /* \"#utility.yul\":10773:11021   */\n      swap3\n      swap2\n      pop\n      pop\n      jump\t// out\n        /* \"#utility.yul\":11027:11196   */\n    tag_208:\n        /* \"#utility.yul\":11111:11122   */\n      0x00\n        /* \"#utility.yul\":11145:11151   */\n      dup3\n        /* \"#utility.yul\":11140:11143   */\n      dup3\n        /* \"#utility.yul\":11133:11152   */\n      mstore\n        /* \"#utility.yul\":11185:11189   */\n      0x20\n        /* \"#utility.yul\":11180:11183   */\n      dup3\n        /* \"#utility.yul\":11176:11190   */\n      add\n        /* \"#utility.yul\":11161:11190   */\n      swap1\n      pop\n        /* \"#utility.yul\":11027:11196   */\n      swap3\n      swap2\n      pop\n      pop\n      jump\t// out\n        /* \"#utility.yul\":11202:11424   */\n    tag_209:\n        /* \"#utility.yul\":11342:11376   */\n      0x4167656e742069732066726f7a656e20616e642063616e6e6f74206f70657261\n        /* \"#utility.yul\":11338:11339   */\n      0x00\n        /* \"#utility.yul\":11330:11336   */\n      dup3\n        /* \"#utility.yul\":11326:11340   */\n      add\n        /* \"#utility.yul\":11319:11377   */\n      mstore\n        /* \"#utility.yul\":11411:11416   */\n      0x74652e0000000000000000000000000000000000000000000000000000000000\n        /* \"#utility.yul\":11406:11408   */\n      0x20\n        /* \"#utility.yul\":11398:11404   */\n      dup3\n        /* \"#utility.yul\":11394:11409   */\n      add\n        /* \"#utility.yul\":11387:11417   */\n      mstore\n        /* \"#utility.yul\":11202:11424   */\n      pop\n      jump\t// out\n        /* \"#utility.yul\":11430:11796   */\n    tag_210:\n        /* \"#utility.yul\":11572:11575   */\n      0x00\n        /* \"#utility.yul\":11593:11660   */\n      tag_365\n        /* \"#utility.yul\":11657:11659   */\n      0x23\n        /* \"#utility.yul\":11652:11655   */\n      dup4\n        /* \"#utility.yul\":11593:11660   */\n      tag_208\n      jump\t// in\n    tag_365:\n        /* \"#utility.yul\":11586:11660   */\n      swap2\n      pop\n        /* \"#utility.yul\":11669:11762   */\n      tag_366\n        /* \"#utility.yul\":11758:11761   */\n      dup3\n        /* \"#utility.yul\":11669:11762   */\n      tag_209\n      jump\t// in\n    tag_366:\n        /* \"#utility.yul\":11787:11789   */\n      0x40\n        /* \"#utility.yul\":11782:11785   */\n      dup3\n        /* \"#utility.yul\":11778:11790   */\n      add\n        /* \"#utility.yul\":11771:11790   */\n      swap1\n      pop\n        /* \"#utility.yul\":11430:11796   */\n      swap2\n      swap1\n      pop\n      jump\t// out\n        /* \"#utility.yul\":11802:12221   */\n    tag_101:\n        /* \"#utility.yul\":11968:11972   */\n      0x00\n        /* \"#utility.yul\":12006:12008   */\n      0x20\n        /* \"#utility.yul\":11995:12004   */\n      dup3\n        /* \"#utility.yul\":11991:12009   */\n      add\n        /* \"#utility.yul\":11983:12009   */\n      swap1\n      pop\n        /* \"#utility.yul\":12055:12064   */\n      dup2\n        /* \"#utility.yul\":12049:12053   */\n      dup2\n        /* \"#utility.yul\":12045:12065   */\n      sub\n        /* \"#utility.yul\":12041:12042   */\n      0x00\n        /* \"#utility.yul\":12030:12039   */\n      dup4\n        /* \"#utility.yul\":12026:12043   */\n      add\n        /* \"#utility.yul\":12019:12066   */\n      mstore\n        /* \"#utility.yul\":12083:12214   */\n      tag_368\n        /* \"#utility.yul\":12209:12213   */\n      dup2\n        /* \"#utility.yul\":12083:12214   */\n      tag_210\n      jump\t// in\n    tag_368:\n        /* \"#utility.yul\":12075:12214   */\n      swap1\n      pop\n        /* \"#utility.yul\":11802:12221   */\n      swap2\n      swap1\n      pop\n      jump\t// out\n        /* \"#utility.yul\":12227:12398   */\n    tag_211:\n        /* \"#utility.yul\":12367:12390   */\n      0x4b657920616c72656164792070726f6365737365640000000000000000000000\n        /* \"#utility.yul\":12363:12364   */\n      0x00\n        /* \"#utility.yul\":12355:12361   */\n      dup3\n        /* \"#utility.yul\":12351:12365   */\n      add\n        /* \"#utility.yul\":12344:12391   */\n      mstore\n        /* \"#utility.yul\":12227:12398   */\n      pop\n      jump\t// out\n        /* \"#utility.yul\":12404:12770   */\n    tag_212:\n        /* \"#utility.yul\":12546:12549   */\n      0x00\n        /* \"#utility.yul\":12567:12634   */\n      tag_371\n        /* \"#utility.yul\":12631:12633   */\n      0x15\n        /* \"#utility.yul\":12626:12629   */\n      dup4\n        /* \"#utility.yul\":12567:12634   */\n      tag_208\n      jump\t// in\n    tag_371:\n        /* \"#utility.yul\":12560:12634   */\n      swap2\n      pop\n        /* \"#utility.yul\":12643:12736   */\n      tag_372\n        /* \"#utility.yul\":12732:12735   */\n      dup3\n        /* \"#utility.yul\":12643:12736   */\n      tag_211\n      jump\t// in\n    tag_372:\n        /* \"#utility.yul\":12761:12763   */\n      0x20\n        /* \"#utility.yul\":12756:12759   */\n      dup3\n        /* \"#utility.yul\":12752:12764   */\n      add\n        /* \"#utility.yul\":12745:12764   */\n      swap1\n      pop\n        /* \"#utility.yul\":12404:12770   */\n      swap2\n      swap1\n      pop\n      jump\t// out\n        /* \"#utility.yul\":12776:13195   */\n    tag_105:\n        /* \"#utility.yul\":12942:12946   */\n      0x00\n        /* \"#utility.yul\":12980:12982   */\n      0x20\n        /* \"#utility.yul\":12969:12978   */\n      dup3\n        /* \"#utility.yul\":12965:12983   */\n      add\n        /* \"#utility.yul\":12957:12983   */\n      swap1\n      pop\n        /* \"#utility.yul\":13029:13038   */\n      dup2\n        /* \"#utility.yul\":13023:13027   */\n      dup2\n        /* \"#utility.yul\":13019:13039   */\n      sub\n        /* \"#utility.yul\":13015:13016   */\n      0x00\n        /* \"#utility.yul\":13004:13013   */\n      dup4\n        /* \"#utility.yul\":13000:13017   */\n      add\n        /* \"#utility.yul\":12993:13040   */\n      mstore\n        /* \"#utility.yul\":13057:13188   */\n      tag_374\n        /* \"#utility.yul\":13183:13187   */\n      dup2\n        /* \"#utility.yul\":13057:13188   */\n      tag_212\n      jump\t// in\n    tag_374:\n        /* \"#utility.yul\":13049:13188   */\n      swap1\n      pop\n        /* \"#utility.yul\":12776:13195   */\n      swap2\n      swap1\n      pop\n      jump\t// out\n        /* \"#utility.yul\":13201:13381   */\n    tag_213:\n        /* \"#utility.yul\":13249:13326   */\n      0x4e487b7100000000000000000000000000000000000000000000000000000000\n        /* \"#utility.yul\":13246:13247   */\n      0x00\n        /* \"#utility.yul\":13239:13327   */\n      mstore\n        /* \"#utility.yul\":13346:13350   */\n      0x11\n        /* \"#utility.yul\":13343:13344   */\n      0x04\n        /* \"#utility.yul\":13336:13351   */\n      mstore\n        /* \"#utility.yul\":13370:13374   */\n      0x24\n        /* \"#utility.yul\":13367:13368   */\n      0x00\n        /* \"#utility.yul\":13360:13375   */\n      revert\n        /* \"#utility.yul\":13387:13658   */\n    tag_125:\n        /* \"#utility.yul\":13425:13432   */\n      0x00\n        /* \"#utility.yul\":13448:13466   */\n      tag_377\n        /* \"#utility.yul\":13464:13465   */\n      dup3\n        /* \"#utility.yul\":13448:13466   */\n      tag_180\n      jump\t// in\n    tag_377:\n        /* \"#utility.yul\":13443:13466   */\n      swap2\n      pop\n        /* \"#utility.yul\":13480:13498   */\n      tag_378\n        /* \"#utility.yul\":13496:13497   */\n      dup4\n        /* \"#utility.yul\":13480:13498   */\n      tag_180\n      jump\t// in\n    tag_378:\n        /* \"#utility.yul\":13475:13498   */\n      swap3\n      pop\n        /* \"#utility.yul\":13533:13534   */\n      dup3\n        /* \"#utility.yul\":13530:13531   */\n      dup3\n        /* \"#utility.yul\":13526:13535   */\n      mul\n        /* \"#utility.yul\":13555:13583   */\n      tag_379\n        /* \"#utility.yul\":13571:13582   */\n      dup2\n        /* \"#utility.yul\":13555:13583   */\n      tag_180\n      jump\t// in\n    tag_379:\n        /* \"#utility.yul\":13544:13583   */\n      swap2\n      pop\n        /* \"#utility.yul\":13615:13626   */\n      dup1\n        /* \"#utility.yul\":13606:13613   */\n      dup3\n        /* \"#utility.yul\":13603:13627   */\n      eq\n        /* \"#utility.yul\":13593:13651   */\n      tag_380\n      jumpi\n        /* \"#utility.yul\":13631:13649   */\n      tag_381\n      tag_213\n      jump\t// in\n    tag_381:\n        /* \"#utility.yul\":13593:13651   */\n    tag_380:\n        /* \"#utility.yul\":13433:13658   */\n      pop\n        /* \"#utility.yul\":13387:13658   */\n      swap3\n      swap2\n      pop\n      pop\n      jump\t// out\n        /* \"#utility.yul\":13664:13988   */\n    tag_127:\n        /* \"#utility.yul\":13781:13785   */\n      0x00\n        /* \"#utility.yul\":13819:13821   */\n      0x40\n        /* \"#utility.yul\":13808:13817   */\n      dup3\n        /* \"#utility.yul\":13804:13822   */\n      add\n        /* \"#utility.yul\":13796:13822   */\n      swap1\n      pop\n        /* \"#utility.yul\":13832:13903   */\n      tag_383\n        /* \"#utility.yul\":13900:13901   */\n      0x00\n        /* \"#utility.yul\":13889:13898   */\n      dup4\n        /* \"#utility.yul\":13885:13902   */\n      add\n        /* \"#utility.yul\":13876:13882   */\n      dup6\n        /* \"#utility.yul\":13832:13903   */\n      tag_187\n      jump\t// in\n    tag_383:\n        /* \"#utility.yul\":13913:13981   */\n      tag_384\n        /* \"#utility.yul\":13977:13979   */\n      0x20\n        /* \"#utility.yul\":13966:13975   */\n      dup4\n        /* \"#utility.yul\":13962:13980   */\n      add\n        /* \"#utility.yul\":13953:13959   */\n      dup5\n        /* \"#utility.yul\":13913:13981   */\n      tag_181\n      jump\t// in\n    tag_384:\n        /* \"#utility.yul\":13664:13988   */\n      swap4\n      swap3\n      pop\n      pop\n      pop\n      jump\t// out\n        /* \"#utility.yul\":13994:14137   */\n    tag_214:\n        /* \"#utility.yul\":14051:14056   */\n      0x00\n        /* \"#utility.yul\":14082:14088   */\n      dup2\n        /* \"#utility.yul\":14076:14089   */\n      mload\n        /* \"#utility.yul\":14067:14089   */\n      swap1\n      pop\n        /* \"#utility.yul\":14098:14131   */\n      tag_386\n        /* \"#utility.yul\":14125:14130   */\n      dup2\n        /* \"#utility.yul\":14098:14131   */\n      tag_194\n      jump\t// in\n    tag_386:\n        /* \"#utility.yul\":13994:14137   */\n      swap3\n      swap2\n      pop\n      pop\n      jump\t// out\n        /* \"#utility.yul\":14143:14494   */\n    tag_143:\n        /* \"#utility.yul\":14213:14219   */\n      0x00\n        /* \"#utility.yul\":14262:14264   */\n      0x20\n        /* \"#utility.yul\":14250:14259   */\n      dup3\n        /* \"#utility.yul\":14241:14248   */\n      dup5\n        /* \"#utility.yul\":14237:14260   */\n      sub\n        /* \"#utility.yul\":14233:14265   */\n      slt\n        /* \"#utility.yul\":14230:14349   */\n      iszero\n      tag_388\n      jumpi\n        /* \"#utility.yul\":14268:14347   */\n      tag_389\n      tag_174\n      jump\t// in\n    tag_389:\n        /* \"#utility.yul\":14230:14349   */\n    tag_388:\n        /* \"#utility.yul\":14388:14389   */\n      0x00\n        /* \"#utility.yul\":14413:14477   */\n      tag_390\n        /* \"#utility.yul\":14469:14476   */\n      dup5\n        /* \"#utility.yul\":14460:14466   */\n      dup3\n        /* \"#utility.yul\":14449:14458   */\n      dup6\n        /* \"#utility.yul\":14445:14467   */\n      add\n        /* \"#utility.yul\":14413:14477   */\n      tag_214\n      jump\t// in\n    tag_390:\n        /* \"#utility.yul\":14403:14477   */\n      swap2\n      pop\n        /* \"#utility.yul\":14359:14487   */\n      pop\n        /* \"#utility.yul\":14143:14494   */\n      swap3\n      swap2\n      pop\n      pop\n      jump\t// out\n        /* \"#utility.yul\":14500:14722   */\n    tag_215:\n        /* \"#utility.yul\":14640:14674   */\n      0x556e617574686f72697a65643a204e6f7420746865206167656e742773206f77\n        /* \"#utility.yul\":14636:14637   */\n      0x00\n        /* \"#utility.yul\":14628:14634   */\n      dup3\n        /* \"#utility.yul\":14624:14638   */\n      add\n        /* \"#utility.yul\":14617:14675   */\n      mstore\n        /* \"#utility.yul\":14709:14714   */\n      0x6e65720000000000000000000000000000000000000000000000000000000000\n        /* \"#utility.yul\":14704:14706   */\n      0x20\n        /* \"#utility.yul\":14696:14702   */\n      dup3\n        /* \"#utility.yul\":14692:14707   */\n      add\n        /* \"#utility.yul\":14685:14715   */\n      mstore\n        /* \"#utility.yul\":14500:14722   */\n      pop\n      jump\t// out\n        /* \"#utility.yul\":14728:15094   */\n    tag_216:\n        /* \"#utility.yul\":14870:14873   */\n      0x00\n        /* \"#utility.yul\":14891:14958   */\n      tag_393\n        /* \"#utility.yul\":14955:14957   */\n      0x23\n        /* \"#utility.yul\":14950:14953   */\n      dup4\n        /* \"#utility.yul\":14891:14958   */\n      tag_208\n      jump\t// in\n    tag_393:\n        /* \"#utility.yul\":14884:14958   */\n      swap2\n      pop\n        /* \"#utility.yul\":14967:15060   */\n      tag_394\n        /* \"#utility.yul\":15056:15059   */\n      dup3\n        /* \"#utility.yul\":14967:15060   */\n      tag_215\n      jump\t// in\n    tag_394:\n        /* \"#utility.yul\":15085:15087   */\n      0x40\n        /* \"#utility.yul\":15080:15083   */\n      dup3\n        /* \"#utility.yul\":15076:15088   */\n      add\n        /* \"#utility.yul\":15069:15088   */\n      swap1\n      pop\n        /* \"#utility.yul\":14728:15094   */\n      swap2\n      swap1\n      pop\n      jump\t// out\n        /* \"#utility.yul\":15100:15519   */\n    tag_146:\n        /* \"#utility.yul\":15266:15270   */\n      0x00\n        /* \"#utility.yul\":15304:15306   */\n      0x20\n        /* \"#utility.yul\":15293:15302   */\n      dup3\n        /* \"#utility.yul\":15289:15307   */\n      add\n        /* \"#utility.yul\":15281:15307   */\n      swap1\n      pop\n        /* \"#utility.yul\":15353:15362   */\n      dup2\n        /* \"#utility.yul\":15347:15351   */\n      dup2\n        /* \"#utility.yul\":15343:15363   */\n      sub\n        /* \"#utility.yul\":15339:15340   */\n      0x00\n        /* \"#utility.yul\":15328:15337   */\n      dup4\n        /* \"#utility.yul\":15324:15341   */\n      add\n        /* \"#utility.yul\":15317:15364   */\n      mstore\n        /* \"#utility.yul\":15381:15512   */\n      tag_396\n        /* \"#utility.yul\":15507:15511   */\n      dup2\n        /* \"#utility.yul\":15381:15512   */\n      tag_216\n      jump\t// in\n    tag_396:\n        /* \"#utility.yul\":15373:15512   */\n      swap1\n      pop\n        /* \"#utility.yul\":15100:15519   */\n      swap2\n      swap1\n      pop\n      jump\t// out\n        /* \"#utility.yul\":15525:15619   */\n    tag_217:\n        /* \"#utility.yul\":15558:15566   */\n      0x00\n        /* \"#utility.yul\":15606:15611   */\n      dup2\n        /* \"#utility.yul\":15602:15604   */\n      0x60\n        /* \"#utility.yul\":15598:15612   */\n      shl\n        /* \"#utility.yul\":15577:15612   */\n      swap1\n      pop\n        /* \"#utility.yul\":15525:15619   */\n      swap2\n      swap1\n      pop\n      jump\t// out\n        /* \"#utility.yul\":15625:15719   */\n    tag_218:\n        /* \"#utility.yul\":15664:15671   */\n      0x00\n        /* \"#utility.yul\":15693:15713   */\n      tag_399\n        /* \"#utility.yul\":15707:15712   */\n      dup3\n        /* \"#utility.yul\":15693:15713   */\n      tag_217\n      jump\t// in\n    tag_399:\n        /* \"#utility.yul\":15682:15713   */\n      swap1\n      pop\n        /* \"#utility.yul\":15625:15719   */\n      swap2\n      swap1\n      pop\n      jump\t// out\n        /* \"#utility.yul\":15725:15825   */\n    tag_219:\n        /* \"#utility.yul\":15764:15771   */\n      0x00\n        /* \"#utility.yul\":15793:15819   */\n      tag_401\n        /* \"#utility.yul\":15813:15818   */\n      dup3\n        /* \"#utility.yul\":15793:15819   */\n      tag_218\n      jump\t// in\n    tag_401:\n        /* \"#utility.yul\":15782:15819   */\n      swap1\n      pop\n        /* \"#utility.yul\":15725:15825   */\n      swap2\n      swap1\n      pop\n      jump\t// out\n        /* \"#utility.yul\":15831:15988   */\n    tag_220:\n        /* \"#utility.yul\":15936:15981   */\n      tag_403\n        /* \"#utility.yul\":15956:15980   */\n      tag_404\n        /* \"#utility.yul\":15974:15979   */\n      dup3\n        /* \"#utility.yul\":15956:15980   */\n      tag_186\n      jump\t// in\n    tag_404:\n        /* \"#utility.yul\":15936:15981   */\n      tag_219\n      jump\t// in\n    tag_403:\n        /* \"#utility.yul\":15931:15934   */\n      dup3\n        /* \"#utility.yul\":15924:15982   */\n      mstore\n        /* \"#utility.yul\":15831:15988   */\n      pop\n      pop\n      jump\t// out\n        /* \"#utility.yul\":15994:16073   */\n    tag_221:\n        /* \"#utility.yul\":16033:16040   */\n      0x00\n        /* \"#utility.yul\":16062:16067   */\n      dup2\n        /* \"#utility.yul\":16051:16067   */\n      swap1\n      pop\n        /* \"#utility.yul\":15994:16073   */\n      swap2\n      swap1\n      pop\n      jump\t// out\n        /* \"#utility.yul\":16079:16236   */\n    tag_222:\n        /* \"#utility.yul\":16184:16229   */\n      tag_407\n        /* \"#utility.yul\":16204:16228   */\n      tag_408\n        /* \"#utility.yul\":16222:16227   */\n      dup3\n        /* \"#utility.yul\":16204:16228   */\n      tag_182\n      jump\t// in\n    tag_408:\n        /* \"#utility.yul\":16184:16229   */\n      tag_221\n      jump\t// in\n    tag_407:\n        /* \"#utility.yul\":16179:16182   */\n      dup3\n        /* \"#utility.yul\":16172:16230   */\n      mstore\n        /* \"#utility.yul\":16079:16236   */\n      pop\n      pop\n      jump\t// out\n        /* \"#utility.yul\":16242:16321   */\n    tag_223:\n        /* \"#utility.yul\":16281:16288   */\n      0x00\n        /* \"#utility.yul\":16310:16315   */\n      dup2\n        /* \"#utility.yul\":16299:16315   */\n      swap1\n      pop\n        /* \"#utility.yul\":16242:16321   */\n      swap2\n      swap1\n      pop\n      jump\t// out\n        /* \"#utility.yul\":16327:16484   */\n    tag_224:\n        /* \"#utility.yul\":16432:16477   */\n      tag_411\n        /* \"#utility.yul\":16452:16476   */\n      tag_412\n        /* \"#utility.yul\":16470:16475   */\n      dup3\n        /* \"#utility.yul\":16452:16476   */\n      tag_178\n      jump\t// in\n    tag_412:\n        /* \"#utility.yul\":16432:16477   */\n      tag_223\n      jump\t// in\n    tag_411:\n        /* \"#utility.yul\":16427:16430   */\n      dup3\n        /* \"#utility.yul\":16420:16478   */\n      mstore\n        /* \"#utility.yul\":16327:16484   */\n      pop\n      pop\n      jump\t// out\n        /* \"#utility.yul\":16490:17028   */\n    tag_152:\n        /* \"#utility.yul\":16658:16661   */\n      0x00\n        /* \"#utility.yul\":16673:16748   */\n      tag_414\n        /* \"#utility.yul\":16744:16747   */\n      dup3\n        /* \"#utility.yul\":16735:16741   */\n      dup7\n        /* \"#utility.yul\":16673:16748   */\n      tag_220\n      jump\t// in\n    tag_414:\n        /* \"#utility.yul\":16773:16775   */\n      0x14\n        /* \"#utility.yul\":16768:16771   */\n      dup3\n        /* \"#utility.yul\":16764:16776   */\n      add\n        /* \"#utility.yul\":16757:16776   */\n      swap2\n      pop\n        /* \"#utility.yul\":16786:16861   */\n      tag_415\n        /* \"#utility.yul\":16857:16860   */\n      dup3\n        /* \"#utility.yul\":16848:16854   */\n      dup6\n        /* \"#utility.yul\":16786:16861   */\n      tag_222\n      jump\t// in\n    tag_415:\n        /* \"#utility.yul\":16886:16888   */\n      0x20\n        /* \"#utility.yul\":16881:16884   */\n      dup3\n        /* \"#utility.yul\":16877:16889   */\n      add\n        /* \"#utility.yul\":16870:16889   */\n      swap2\n      pop\n        /* \"#utility.yul\":16899:16974   */\n      tag_416\n        /* \"#utility.yul\":16970:16973   */\n      dup3\n        /* \"#utility.yul\":16961:16967   */\n      dup5\n        /* \"#utility.yul\":16899:16974   */\n      tag_224\n      jump\t// in\n    tag_416:\n        /* \"#utility.yul\":16999:17001   */\n      0x20\n        /* \"#utility.yul\":16994:16997   */\n      dup3\n        /* \"#utility.yul\":16990:17002   */\n      add\n        /* \"#utility.yul\":16983:17002   */\n      swap2\n      pop\n        /* \"#utility.yul\":17019:17022   */\n      dup2\n        /* \"#utility.yul\":17012:17022   */\n      swap1\n      pop\n        /* \"#utility.yul\":16490:17028   */\n      swap5\n      swap4\n      pop\n      pop\n      pop\n      pop\n      jump\t// out\n        /* \"#utility.yul\":17034:17210   */\n    tag_225:\n        /* \"#utility.yul\":17174:17202   */\n      0x4167656e7420616c726561647920696e697469616c697a65642e000000000000\n        /* \"#utility.yul\":17170:17171   */\n      0x00\n        /* \"#utility.yul\":17162:17168   */\n      dup3\n        /* \"#utility.yul\":17158:17172   */\n      add\n        /* \"#utility.yul\":17151:17203   */\n      mstore\n        /* \"#utility.yul\":17034:17210   */\n      pop\n      jump\t// out\n        /* \"#utility.yul\":17216:17582   */\n    tag_226:\n        /* \"#utility.yul\":17358:17361   */\n      0x00\n        /* \"#utility.yul\":17379:17446   */\n      tag_419\n        /* \"#utility.yul\":17443:17445   */\n      0x1a\n        /* \"#utility.yul\":17438:17441   */\n      dup4\n        /* \"#utility.yul\":17379:17446   */\n      tag_208\n      jump\t// in\n    tag_419:\n        /* \"#utility.yul\":17372:17446   */\n      swap2\n      pop\n        /* \"#utility.yul\":17455:17548   */\n      tag_420\n        /* \"#utility.yul\":17544:17547   */\n      dup3\n        /* \"#utility.yul\":17455:17548   */\n      tag_225\n      jump\t// in\n    tag_420:\n        /* \"#utility.yul\":17573:17575   */\n      0x20\n        /* \"#utility.yul\":17568:17571   */\n      dup3\n        /* \"#utility.yul\":17564:17576   */\n      add\n        /* \"#utility.yul\":17557:17576   */\n      swap1\n      pop\n        /* \"#utility.yul\":17216:17582   */\n      swap2\n      swap1\n      pop\n      jump\t// out\n        /* \"#utility.yul\":17588:18007   */\n    tag_162:\n        /* \"#utility.yul\":17754:17758   */\n      0x00\n        /* \"#utility.yul\":17792:17794   */\n      0x20\n        /* \"#utility.yul\":17781:17790   */\n      dup3\n        /* \"#utility.yul\":17777:17795   */\n      add\n        /* \"#utility.yul\":17769:17795   */\n      swap1\n      pop\n        /* \"#utility.yul\":17841:17850   */\n      dup2\n        /* \"#utility.yul\":17835:17839   */\n      dup2\n        /* \"#utility.yul\":17831:17851   */\n      sub\n        /* \"#utility.yul\":17827:17828   */\n      0x00\n        /* \"#utility.yul\":17816:17825   */\n      dup4\n        /* \"#utility.yul\":17812:17829   */\n      add\n        /* \"#utility.yul\":17805:17852   */\n      mstore\n        /* \"#utility.yul\":17869:18000   */\n      tag_422\n        /* \"#utility.yul\":17995:17999   */\n      dup2\n        /* \"#utility.yul\":17869:18000   */\n      tag_226\n      jump\t// in\n    tag_422:\n        /* \"#utility.yul\":17861:18000   */\n      swap1\n      pop\n        /* \"#utility.yul\":17588:18007   */\n      swap2\n      swap1\n      pop\n      jump\t// out\n        /* \"#utility.yul\":18013:18176   */\n    tag_227:\n        /* \"#utility.yul\":18153:18168   */\n      0x556e617574686f7572697a656400000000000000000000000000000000000000\n        /* \"#utility.yul\":18149:18150   */\n      0x00\n        /* \"#utility.yul\":18141:18147   */\n      dup3\n        /* \"#utility.yul\":18137:18151   */\n      add\n        /* \"#utility.yul\":18130:18169   */\n      mstore\n        /* \"#utility.yul\":18013:18176   */\n      pop\n      jump\t// out\n        /* \"#utility.yul\":18182:18548   */\n    tag_228:\n        /* \"#utility.yul\":18324:18327   */\n      0x00\n        /* \"#utility.yul\":18345:18412   */\n      tag_425\n        /* \"#utility.yul\":18409:18411   */\n      0x0d\n        /* \"#utility.yul\":18404:18407   */\n      dup4\n        /* \"#utility.yul\":18345:18412   */\n      tag_208\n      jump\t// in\n    tag_425:\n        /* \"#utility.yul\":18338:18412   */\n      swap2\n      pop\n        /* \"#utility.yul\":18421:18514   */\n      tag_426\n        /* \"#utility.yul\":18510:18513   */\n      dup3\n        /* \"#utility.yul\":18421:18514   */\n      tag_227\n      jump\t// in\n    tag_426:\n        /* \"#utility.yul\":18539:18541   */\n      0x20\n        /* \"#utility.yul\":18534:18537   */\n      dup3\n        /* \"#utility.yul\":18530:18542   */\n      add\n        /* \"#utility.yul\":18523:18542   */\n      swap1\n      pop\n        /* \"#utility.yul\":18182:18548   */\n      swap2\n      swap1\n      pop\n      jump\t// out\n        /* \"#utility.yul\":18554:18973   */\n    tag_167:\n        /* \"#utility.yul\":18720:18724   */\n      0x00\n        /* \"#utility.yul\":18758:18760   */\n      0x20\n        /* \"#utility.yul\":18747:18756   */\n      dup3\n        /* \"#utility.yul\":18743:18761   */\n      add\n        /* \"#utility.yul\":18735:18761   */\n      swap1\n      pop\n        /* \"#utility.yul\":18807:18816   */\n      dup2\n        /* \"#utility.yul\":18801:18805   */\n      dup2\n        /* \"#utility.yul\":18797:18817   */\n      sub\n        /* \"#utility.yul\":18793:18794   */\n      0x00\n        /* \"#utility.yul\":18782:18791   */\n      dup4\n        /* \"#utility.yul\":18778:18795   */\n      add\n        /* \"#utility.yul\":18771:18818   */\n      mstore\n        /* \"#utility.yul\":18835:18966   */\n      tag_428\n        /* \"#utility.yul\":18961:18965   */\n      dup2\n        /* \"#utility.yul\":18835:18966   */\n      tag_228\n      jump\t// in\n    tag_428:\n        /* \"#utility.yul\":18827:18966   */\n      swap1\n      pop\n        /* \"#utility.yul\":18554:18973   */\n      swap2\n      swap1\n      pop\n      jump\t// out\n\n    auxdata: 0xa2646970667358221220efc75e6ca969142ea26b94a153711f3af8ba0871bfb01c51f7d0847f36e53ffa64736f6c63430008140033\n}\n",
				"bytecode": {
					"linkReferences": {},
					"object": "60806040523480156200001157600080fd5b50604051620019ce380380620019ce833981810160405281019062000037919062000129565b336000806101000a81548173ffffffffffffffffffffffffffffffffffffffff021916908373ffffffffffffffffffffffffffffffffffffffff16021790555080600160006101000a81548173ffffffffffffffffffffffffffffffffffffffff021916908373ffffffffffffffffffffffffffffffffffffffff160217905550506200015b565b600080fd5b600073ffffffffffffffffffffffffffffffffffffffff82169050919050565b6000620000f182620000c4565b9050919050565b6200010381620000e4565b81146200010f57600080fd5b50565b6000815190506200012381620000f8565b92915050565b600060208284031215620001425762000141620000bf565b5b6000620001528482850162000112565b91505092915050565b611863806200016b6000396000f3fe608060405234801561001057600080fd5b506004361061010b5760003560e01c80637ee1ce1d116100a2578063a77e622211610071578063a77e6222146102e0578063c99de22f146102fc578063f710a6c31461031a578063fc0c546a14610336578063fd66091e146103545761010b565b80637ee1ce1d14610246578063883c522d146102625780638da5cb5b14610292578063983ea7da146102b05761010b565b80635b424e48116100de5780635b424e48146101c05780636ff00940146101f05780637043d6e01461020c57806371d6a0e2146102285761010b565b80631a50c4f3146101105780631ee8866c14610140578063399bd8231461015e57806354a97bbb14610190575b600080fd5b61012a60048036038101906101259190610e8c565b610384565b6040516101379190610ed2565b60405180910390f35b61014861039c565b6040516101559190610f09565b60405180910390f35b61017860048036038101906101739190610f5a565b6103a1565b6040516101879392919061105a565b60405180910390f35b6101aa60048036038101906101a591906110bd565b610405565b6040516101b79190610ed2565b60405180910390f35b6101da60048036038101906101d591906110bd565b61041d565b6040516101e791906110ea565b60405180910390f35b61020a60048036038101906102059190611131565b610486565b005b610226600480360381019061022191906111d8565b6106bd565b005b61023061081e565b60405161023d9190610f09565b60405180910390f35b610260600480360381019061025b9190611231565b610823565b005b61027c60048036038101906102779190611271565b610947565b60405161028991906112d3565b60405180910390f35b61029a610b67565b6040516102a791906110ea565b60405180910390f35b6102ca60048036038101906102c591906110bd565b610b8b565b6040516102d791906112ee565b60405180910390f35b6102fa60048036038101906102f59190611309565b610bab565b005b610304610d36565b6040516103119190610f09565b60405180910390f35b610334600480360381019061032f919061135c565b610d3b565b005b61033e610e09565b60405161034b91906113fb565b60405180910390f35b61036e600480360381019061036991906110bd565b610e2f565b60405161037b91906110ea565b60405180910390f35b60046020528060005260406000206000915090505481565b600581565b60066020528060005260406000206000915090508060000160009054906101000a900473ffffffffffffffffffffffffffffffffffffffff16908060000160149054906101000a900460ff16908060000160159054906101000a900460ff16905083565b60026020528060005260406000206000915090505481565b6000600560008373ffffffffffffffffffffffffffffffffffffffff1673ffffffffffffffffffffffffffffffffffffffff16815260200190815260200160002060009054906101000a900473ffffffffffffffffffffffffffffffffffffffff169050919050565b600360003373ffffffffffffffffffffffffffffffffffffffff1673ffffffffffffffffffffffffffffffffffffffff16815260200190815260200160002060009054906101000a900460ff1615610513576040517f08c379a000000000000000000000000000000000000000000000000000000000815260040161050a90611499565b60405180910390fd5b60006006600085815260200190815260200160002090508060000160159054906101000a900460ff161561057c576040517f08c379a000000000000000000000000000000000000000000000000000000000815260040161057390611505565b60405180910390fd5b600080600281111561059157610590610fc8565b5b8360028111156105a4576105a3610fc8565b5b036105b25760029050610619565b600160028111156105c6576105c5610fc8565b5b8360028111156105d9576105d8610fc8565b5b036105e75760059050610618565b6002808111156105fa576105f9610fc8565b5b83600281111561060d5761060c610fc8565b5b0361061757600a90505b5b5b600081856106279190611554565b90508773ffffffffffffffffffffffffffffffffffffffff166363d96dbf88836040518363ffffffff1660e01b8152600401610664929190611591565b600060405180830381600087803b15801561067e57600080fd5b505af1158015610692573d6000803e3d6000fd5b5050505060018360000160156101000a81548160ff0219169083151502179055505050505050505050565b600360003373ffffffffffffffffffffffffffffffffffffffff1673ffffffffffffffffffffffffffffffffffffffff16815260200190815260200160002060009054906101000a900460ff161561074a576040517f08c379a000000000000000000000000000000000000000000000000000000000815260040161074190611499565b60405180910390fd5b80600360003373ffffffffffffffffffffffffffffffffffffffff1673ffffffffffffffffffffffffffffffffffffffff16815260200190815260200160002060006101000a81548160ff02191690831515021790555080156107e3577f9952a16eccd256462730e4f6bc004a7e5b1177d4ae73dd260c6e2f32bd839b50336040516107d691906110ea565b60405180910390a161081b565b7fa2671ddfcae8e909ada448839621cacd285875ccc6f146751e3e1bc4f2e1e9cd3360405161081291906110ea565b60405180910390a15b50565b600281565b3373ffffffffffffffffffffffffffffffffffffffff168273ffffffffffffffffffffffffffffffffffffffff1663893d20e86040518163ffffffff1660e01b8152600401602060405180830381865afa158015610885573d6000803e3d6000fd5b505050506040513d601f19601f820116820180604052508101906108a991906115cf565b73ffffffffffffffffffffffffffffffffffffffff16146108ff576040517f08c379a00000000000000000000000000000000000000000000000000000000081526004016108f69061166e565b60405180910390fd5b80600260008473ffffffffffffffffffffffffffffffffffffffff1673ffffffffffffffffffffffffffffffffffffffff168152602001908152602001600020819055505050565b6000600360003373ffffffffffffffffffffffffffffffffffffffff1673ffffffffffffffffffffffffffffffffffffffff16815260200190815260200160002060009054906101000a900460ff16156109d6576040517f08c379a00000000000000000000000000000000000000000000000000000000081526004016109cd90611499565b60405180910390fd5b60008484426040516020016109ed93929190611718565b6040516020818303038152906040528051906020012090506006600082815260200190815260200160002060000160159054906101000a900460ff1615610a69576040517f08c379a0000000000000000000000000000000000000000000000000000000008152600401610a6090611505565b60405180910390fd5b60405180606001604052808673ffffffffffffffffffffffffffffffffffffffff168152602001846002811115610aa357610aa2610fc8565b5b8152602001600015158152506006600083815260200190815260200160002060008201518160000160006101000a81548173ffffffffffffffffffffffffffffffffffffffff021916908373ffffffffffffffffffffffffffffffffffffffff16021790555060208201518160000160146101000a81548160ff02191690836002811115610b3457610b33610fc8565b5b021790555060408201518160000160156101000a81548160ff021916908315150217905550905050809150509392505050565b60008054906101000a900473ffffffffffffffffffffffffffffffffffffffff1681565b60036020528060005260406000206000915054906101000a900460ff1681565b600360008473ffffffffffffffffffffffffffffffffffffffff1673ffffffffffffffffffffffffffffffffffffffff16815260200190815260200160002060009054906101000a900460ff1615610c38576040517f08c379a0000000000000000000000000000000000000000000000000000000008152600401610c2f906117a1565b60405180910390fd5b80600260008573ffffffffffffffffffffffffffffffffffffffff1673ffffffffffffffffffffffffffffffffffffffff1681526020019081526020016000208190555082600560008473ffffffffffffffffffffffffffffffffffffffff1673ffffffffffffffffffffffffffffffffffffffff16815260200190815260200160002060006101000a81548173ffffffffffffffffffffffffffffffffffffffff021916908373ffffffffffffffffffffffffffffffffffffffff1602179055507fa7a8c16b3ff27bf6a39d141c5c28cadca6b06341ed9cf03b462d263d2e4758a683604051610d2991906110ea565b60405180910390a1505050565b600a81565b3373ffffffffffffffffffffffffffffffffffffffff1660008054906101000a900473ffffffffffffffffffffffffffffffffffffffff1673ffffffffffffffffffffffffffffffffffffffff1614610dc9576040517f08c379a0000000000000000000000000000000000000000000000000000000008152600401610dc09061180d565b60405180910390fd5b8060046000846002811115610de157610de0610fc8565b5b6002811115610df357610df2610fc8565b5b8152602001908152602001600020819055505050565b600160009054906101000a900473ffffffffffffffffffffffffffffffffffffffff1681565b60056020528060005260406000206000915054906101000a900473ffffffffffffffffffffffffffffffffffffffff1681565b600080fd5b60038110610e7457600080fd5b50565b600081359050610e8681610e67565b92915050565b600060208284031215610ea257610ea1610e62565b5b6000610eb084828501610e77565b91505092915050565b6000819050919050565b610ecc81610eb9565b82525050565b6000602082019050610ee76000830184610ec3565b92915050565b60008160070b9050919050565b610f0381610eed565b82525050565b6000602082019050610f1e6000830184610efa565b92915050565b6000819050919050565b610f3781610f24565b8114610f4257600080fd5b50565b600081359050610f5481610f2e565b92915050565b600060208284031215610f7057610f6f610e62565b5b6000610f7e84828501610f45565b91505092915050565b600073ffffffffffffffffffffffffffffffffffffffff82169050919050565b6000610fb282610f87565b9050919050565b610fc281610fa7565b82525050565b7f4e487b7100000000000000000000000000000000000000000000000000000000600052602160045260246000fd5b6003811061100857611007610fc8565b5b50565b600081905061101982610ff7565b919050565b60006110298261100b565b9050919050565b6110398161101e565b82525050565b60008115159050919050565b6110548161103f565b82525050565b600060608201905061106f6000830186610fb9565b61107c6020830185611030565b611089604083018461104b565b949350505050565b61109a81610fa7565b81146110a557600080fd5b50565b6000813590506110b781611091565b92915050565b6000602082840312156110d3576110d2610e62565b5b60006110e1848285016110a8565b91505092915050565b60006020820190506110ff6000830184610fb9565b92915050565b61110e81610eed565b811461111957600080fd5b50565b60008135905061112b81611105565b92915050565b600080600080600060a0868803121561114d5761114c610e62565b5b600061115b888289016110a8565b955050602061116c888289016110a8565b945050604061117d88828901610f45565b935050606061118e8882890161111c565b925050608061119f88828901610e77565b9150509295509295909350565b6111b58161103f565b81146111c057600080fd5b50565b6000813590506111d2816111ac565b92915050565b6000602082840312156111ee576111ed610e62565b5b60006111fc848285016111c3565b91505092915050565b61120e81610eb9565b811461121957600080fd5b50565b60008135905061122b81611205565b92915050565b6000806040838503121561124857611247610e62565b5b6000611256858286016110a8565b92505060206112678582860161121c565b9150509250929050565b60008060006060848603121561128a57611289610e62565b5b6000611298868287016110a8565b93505060206112a986828701610f45565b92505060406112ba86828701610e77565b9150509250925092565b6112cd81610f24565b82525050565b60006020820190506112e860008301846112c4565b92915050565b6000602082019050611303600083018461104b565b92915050565b60008060006060848603121561132257611321610e62565b5b6000611330868287016110a8565b9350506020611341868287016110a8565b92505060406113528682870161121c565b9150509250925092565b6000806040838503121561137357611372610e62565b5b600061138185828601610e77565b92505060206113928582860161121c565b9150509250929050565b6000819050919050565b60006113c16113bc6113b784610f87565b61139c565b610f87565b9050919050565b60006113d3826113a6565b9050919050565b60006113e5826113c8565b9050919050565b6113f5816113da565b82525050565b600060208201905061141060008301846113ec565b92915050565b600082825260208201905092915050565b7f4167656e742069732066726f7a656e20616e642063616e6e6f74206f7065726160008201527f74652e0000000000000000000000000000000000000000000000000000000000602082015250565b6000611483602383611416565b915061148e82611427565b604082019050919050565b600060208201905081810360008301526114b281611476565b9050919050565b7f4b657920616c72656164792070726f6365737365640000000000000000000000600082015250565b60006114ef601583611416565b91506114fa826114b9565b602082019050919050565b6000602082019050818103600083015261151e816114e2565b9050919050565b7f4e487b7100000000000000000000000000000000000000000000000000000000600052601160045260246000fd5b600061155f82610eed565b915061156a83610eed565b925082820261157881610eed565b915080821461158a57611589611525565b5b5092915050565b60006040820190506115a66000830185610fb9565b6115b36020830184610efa565b9392505050565b6000815190506115c981611091565b92915050565b6000602082840312156115e5576115e4610e62565b5b60006115f3848285016115ba565b91505092915050565b7f556e617574686f72697a65643a204e6f7420746865206167656e742773206f7760008201527f6e65720000000000000000000000000000000000000000000000000000000000602082015250565b6000611658602383611416565b9150611663826115fc565b604082019050919050565b600060208201905081810360008301526116878161164b565b9050919050565b60008160601b9050919050565b60006116a68261168e565b9050919050565b60006116b88261169b565b9050919050565b6116d06116cb82610fa7565b6116ad565b82525050565b6000819050919050565b6116f16116ec82610f24565b6116d6565b82525050565b6000819050919050565b61171261170d82610eb9565b6116f7565b82525050565b600061172482866116bf565b60148201915061173482856116e0565b6020820191506117448284611701565b602082019150819050949350505050565b7f4167656e7420616c726561647920696e697469616c697a65642e000000000000600082015250565b600061178b601a83611416565b915061179682611755565b602082019050919050565b600060208201905081810360008301526117ba8161177e565b9050919050565b7f556e617574686f7572697a656400000000000000000000000000000000000000600082015250565b60006117f7600d83611416565b9150611802826117c1565b602082019050919050565b60006020820190508181036000830152611826816117ea565b905091905056fea2646970667358221220efc75e6ca969142ea26b94a153711f3af8ba0871bfb01c51f7d0847f36e53ffa64736f6c63430008140033",
					"opcodes": "PUSH1 0x80 PUSH1 0x40 MSTORE CALLVALUE DUP1 ISZERO PUSH3 0x11 JUMPI PUSH1 0x0 DUP1 REVERT JUMPDEST POP PUSH1 0x40 MLOAD PUSH3 0x19CE CODESIZE SUB DUP1 PUSH3 0x19CE DUP4 CODECOPY DUP2 DUP2 ADD PUSH1 0x40 MSTORE DUP2 ADD SWAP1 PUSH3 0x37 SWAP2 SWAP1 PUSH3 0x129 JUMP JUMPDEST CALLER PUSH1 0x0 DUP1 PUSH2 0x100 EXP DUP2 SLOAD DUP2 PUSH20 0xFFFFFFFFFFFFFFFFFFFFFFFFFFFFFFFFFFFFFFFF MUL NOT AND SWAP1 DUP4 PUSH20 0xFFFFFFFFFFFFFFFFFFFFFFFFFFFFFFFFFFFFFFFF AND MUL OR SWAP1 SSTORE POP DUP1 PUSH1 0x1 PUSH1 0x0 PUSH2 0x100 EXP DUP2 SLOAD DUP2 PUSH20 0xFFFFFFFFFFFFFFFFFFFFFFFFFFFFFFFFFFFFFFFF MUL NOT AND SWAP1 DUP4 PUSH20 0xFFFFFFFFFFFFFFFFFFFFFFFFFFFFFFFFFFFFFFFF AND MUL OR SWAP1 SSTORE POP POP PUSH3 0x15B JUMP JUMPDEST PUSH1 0x0 DUP1 REVERT JUMPDEST PUSH1 0x0 PUSH20 0xFFFFFFFFFFFFFFFFFFFFFFFFFFFFFFFFFFFFFFFF DUP3 AND SWAP1 POP SWAP2 SWAP1 POP JUMP JUMPDEST PUSH1 0x0 PUSH3 0xF1 DUP3 PUSH3 0xC4 JUMP JUMPDEST SWAP1 POP SWAP2 SWAP1 POP JUMP JUMPDEST PUSH3 0x103 DUP2 PUSH3 0xE4 JUMP JUMPDEST DUP2 EQ PUSH3 0x10F JUMPI PUSH1 0x0 DUP1 REVERT JUMPDEST POP JUMP JUMPDEST PUSH1 0x0 DUP2 MLOAD SWAP1 POP PUSH3 0x123 DUP2 PUSH3 0xF8 JUMP JUMPDEST SWAP3 SWAP2 POP POP JUMP JUMPDEST PUSH1 0x0 PUSH1 0x20 DUP3 DUP5 SUB SLT ISZERO PUSH3 0x142 JUMPI PUSH3 0x141 PUSH3 0xBF JUMP JUMPDEST JUMPDEST PUSH1 0x0 PUSH3 0x152 DUP5 DUP3 DUP6 ADD PUSH3 0x112 JUMP JUMPDEST SWAP2 POP POP SWAP3 SWAP2 POP POP JUMP JUMPDEST PUSH2 0x1863 DUP1 PUSH3 0x16B PUSH1 0x0 CODECOPY PUSH1 0x0 RETURN INVALID PUSH1 0x80 PUSH1 0x40 MSTORE CALLVALUE DUP1 ISZERO PUSH2 0x10 JUMPI PUSH1 0x0 DUP1 REVERT JUMPDEST POP PUSH1 0x4 CALLDATASIZE LT PUSH2 0x10B JUMPI PUSH1 0x0 CALLDATALOAD PUSH1 0xE0 SHR DUP1 PUSH4 0x7EE1CE1D GT PUSH2 0xA2 JUMPI DUP1 PUSH4 0xA77E6222 GT PUSH2 0x71 JUMPI DUP1 PUSH4 0xA77E6222 EQ PUSH2 0x2E0 JUMPI DUP1 PUSH4 0xC99DE22F EQ PUSH2 0x2FC JUMPI DUP1 PUSH4 0xF710A6C3 EQ PUSH2 0x31A JUMPI DUP1 PUSH4 0xFC0C546A EQ PUSH2 0x336 JUMPI DUP1 PUSH4 0xFD66091E EQ PUSH2 0x354 JUMPI PUSH2 0x10B JUMP JUMPDEST DUP1 PUSH4 0x7EE1CE1D EQ PUSH2 0x246 JUMPI DUP1 PUSH4 0x883C522D EQ PUSH2 0x262 JUMPI DUP1 PUSH4 0x8DA5CB5B EQ PUSH2 0x292 JUMPI DUP1 PUSH4 0x983EA7DA EQ PUSH2 0x2B0 JUMPI PUSH2 0x10B JUMP JUMPDEST DUP1 PUSH4 0x5B424E48 GT PUSH2 0xDE JUMPI DUP1 PUSH4 0x5B424E48 EQ PUSH2 0x1C0 JUMPI DUP1 PUSH4 0x6FF00940 EQ PUSH2 0x1F0 JUMPI DUP1 PUSH4 0x7043D6E0 EQ PUSH2 0x20C JUMPI DUP1 PUSH4 0x71D6A0E2 EQ PUSH2 0x228 JUMPI PUSH2 0x10B JUMP JUMPDEST DUP1 PUSH4 0x1A50C4F3 EQ PUSH2 0x110 JUMPI DUP1 PUSH4 0x1EE8866C EQ PUSH2 0x140 JUMPI DUP1 PUSH4 0x399BD823 EQ PUSH2 0x15E JUMPI DUP1 PUSH4 0x54A97BBB EQ PUSH2 0x190 JUMPI JUMPDEST PUSH1 0x0 DUP1 REVERT JUMPDEST PUSH2 0x12A PUSH1 0x4 DUP1 CALLDATASIZE SUB DUP2 ADD SWAP1 PUSH2 0x125 SWAP2 SWAP1 PUSH2 0xE8C JUMP JUMPDEST PUSH2 0x384 JUMP JUMPDEST PUSH1 0x40 MLOAD PUSH2 0x137 SWAP2 SWAP1 PUSH2 0xED2 JUMP JUMPDEST PUSH1 0x40 MLOAD DUP1 SWAP2 SUB SWAP1 RETURN JUMPDEST PUSH2 0x148 PUSH2 0x39C JUMP JUMPDEST PUSH1 0x40 MLOAD PUSH2 0x155 SWAP2 SWAP1 PUSH2 0xF09 JUMP JUMPDEST PUSH1 0x40 MLOAD DUP1 SWAP2 SUB SWAP1 RETURN JUMPDEST PUSH2 0x178 PUSH1 0x4 DUP1 CALLDATASIZE SUB DUP2 ADD SWAP1 PUSH2 0x173 SWAP2 SWAP1 PUSH2 0xF5A JUMP JUMPDEST PUSH2 0x3A1 JUMP JUMPDEST PUSH1 0x40 MLOAD PUSH2 0x187 SWAP4 SWAP3 SWAP2 SWAP1 PUSH2 0x105A JUMP JUMPDEST PUSH1 0x40 MLOAD DUP1 SWAP2 SUB SWAP1 RETURN JUMPDEST PUSH2 0x1AA PUSH1 0x4 DUP1 CALLDATASIZE SUB DUP2 ADD SWAP1 PUSH2 0x1A5 SWAP2 SWAP1 PUSH2 0x10BD JUMP JUMPDEST PUSH2 0x405 JUMP JUMPDEST PUSH1 0x40 MLOAD PUSH2 0x1B7 SWAP2 SWAP1 PUSH2 0xED2 JUMP JUMPDEST PUSH1 0x40 MLOAD DUP1 SWAP2 SUB SWAP1 RETURN JUMPDEST PUSH2 0x1DA PUSH1 0x4 DUP1 CALLDATASIZE SUB DUP2 ADD SWAP1 PUSH2 0x1D5 SWAP2 SWAP1 PUSH2 0x10BD JUMP JUMPDEST PUSH2 0x41D JUMP JUMPDEST PUSH1 0x40 MLOAD PUSH2 0x1E7 SWAP2 SWAP1 PUSH2 0x10EA JUMP JUMPDEST PUSH1 0x40 MLOAD DUP1 SWAP2 SUB SWAP1 RETURN JUMPDEST PUSH2 0x20A PUSH1 0x4 DUP1 CALLDATASIZE SUB DUP2 ADD SWAP1 PUSH2 0x205 SWAP2 SWAP1 PUSH2 0x1131 JUMP JUMPDEST PUSH2 0x486 JUMP JUMPDEST STOP JUMPDEST PUSH2 0x226 PUSH1 0x4 DUP1 CALLDATASIZE SUB DUP2 ADD SWAP1 PUSH2 0x221 SWAP2 SWAP1 PUSH2 0x11D8 JUMP JUMPDEST PUSH2 0x6BD JUMP JUMPDEST STOP JUMPDEST PUSH2 0x230 PUSH2 0x81E JUMP JUMPDEST PUSH1 0x40 MLOAD PUSH2 0x23D SWAP2 SWAP1 PUSH2 0xF09 JUMP JUMPDEST PUSH1 0x40 MLOAD DUP1 SWAP2 SUB SWAP1 RETURN JUMPDEST PUSH2 0x260 PUSH1 0x4 DUP1 CALLDATASIZE SUB DUP2 ADD SWAP1 PUSH2 0x25B SWAP2 SWAP1 PUSH2 0x1231 JUMP JUMPDEST PUSH2 0x823 JUMP JUMPDEST STOP JUMPDEST PUSH2 0x27C PUSH1 0x4 DUP1 CALLDATASIZE SUB DUP2 ADD SWAP1 PUSH2 0x277 SWAP2 SWAP1 PUSH2 0x1271 JUMP JUMPDEST PUSH2 0x947 JUMP JUMPDEST PUSH1 0x40 MLOAD PUSH2 0x289 SWAP2 SWAP1 PUSH2 0x12D3 JUMP JUMPDEST PUSH1 0x40 MLOAD DUP1 SWAP2 SUB SWAP1 RETURN JUMPDEST PUSH2 0x29A PUSH2 0xB67 JUMP JUMPDEST PUSH1 0x40 MLOAD PUSH2 0x2A7 SWAP2 SWAP1 PUSH2 0x10EA JUMP JUMPDEST PUSH1 0x40 MLOAD DUP1 SWAP2 SUB SWAP1 RETURN JUMPDEST PUSH2 0x2CA PUSH1 0x4 DUP1 CALLDATASIZE SUB DUP2 ADD SWAP1 PUSH2 0x2C5 SWAP2 SWAP1 PUSH2 0x10BD JUMP JUMPDEST PUSH2 0xB8B JUMP JUMPDEST PUSH1 0x40 MLOAD PUSH2 0x2D7 SWAP2 SWAP1 PUSH2 0x12EE JUMP JUMPDEST PUSH1 0x40 MLOAD DUP1 SWAP2 SUB SWAP1 RETURN JUMPDEST PUSH2 0x2FA PUSH1 0x4 DUP1 CALLDATASIZE SUB DUP2 ADD SWAP1 PUSH2 0x2F5 SWAP2 SWAP1 PUSH2 0x1309 JUMP JUMPDEST PUSH2 0xBAB JUMP JUMPDEST STOP JUMPDEST PUSH2 0x304 PUSH2 0xD36 JUMP JUMPDEST PUSH1 0x40 MLOAD PUSH2 0x311 SWAP2 SWAP1 PUSH2 0xF09 JUMP JUMPDEST PUSH1 0x40 MLOAD DUP1 SWAP2 SUB SWAP1 RETURN JUMPDEST PUSH2 0x334 PUSH1 0x4 DUP1 CALLDATASIZE SUB DUP2 ADD SWAP1 PUSH2 0x32F SWAP2 SWAP1 PUSH2 0x135C JUMP JUMPDEST PUSH2 0xD3B JUMP JUMPDEST STOP JUMPDEST PUSH2 0x33E PUSH2 0xE09 JUMP JUMPDEST PUSH1 0x40 MLOAD PUSH2 0x34B SWAP2 SWAP1 PUSH2 0x13FB JUMP JUMPDEST PUSH1 0x40 MLOAD DUP1 SWAP2 SUB SWAP1 RETURN JUMPDEST PUSH2 0x36E PUSH1 0x4 DUP1 CALLDATASIZE SUB DUP2 ADD SWAP1 PUSH2 0x369 SWAP2 SWAP1 PUSH2 0x10BD JUMP JUMPDEST PUSH2 0xE2F JUMP JUMPDEST PUSH1 0x40 MLOAD PUSH2 0x37B SWAP2 SWAP1 PUSH2 0x10EA JUMP JUMPDEST PUSH1 0x40 MLOAD DUP1 SWAP2 SUB SWAP1 RETURN JUMPDEST PUSH1 0x4 PUSH1 0x20 MSTORE DUP1 PUSH1 0x0 MSTORE PUSH1 0x40 PUSH1 0x0 KECCAK256 PUSH1 0x0 SWAP2 POP SWAP1 POP SLOAD DUP2 JUMP JUMPDEST PUSH1 0x5 DUP2 JUMP JUMPDEST PUSH1 0x6 PUSH1 0x20 MSTORE DUP1 PUSH1 0x0 MSTORE PUSH1 0x40 PUSH1 0x0 KECCAK256 PUSH1 0x0 SWAP2 POP SWAP1 POP DUP1 PUSH1 0x0 ADD PUSH1 0x0 SWAP1 SLOAD SWAP1 PUSH2 0x100 EXP SWAP1 DIV PUSH20 0xFFFFFFFFFFFFFFFFFFFFFFFFFFFFFFFFFFFFFFFF AND SWAP1 DUP1 PUSH1 0x0 ADD PUSH1 0x14 SWAP1 SLOAD SWAP1 PUSH2 0x100 EXP SWAP1 DIV PUSH1 0xFF AND SWAP1 DUP1 PUSH1 0x0 ADD PUSH1 0x15 SWAP1 SLOAD SWAP1 PUSH2 0x100 EXP SWAP1 DIV PUSH1 0xFF AND SWAP1 POP DUP4 JUMP JUMPDEST PUSH1 0x2 PUSH1 0x20 MSTORE DUP1 PUSH1 0x0 MSTORE PUSH1 0x40 PUSH1 0x0 KECCAK256 PUSH1 0x0 SWAP2 POP SWAP1 POP SLOAD DUP2 JUMP JUMPDEST PUSH1 0x0 PUSH1 0x5 PUSH1 0x0 DUP4 PUSH20 0xFFFFFFFFFFFFFFFFFFFFFFFFFFFFFFFFFFFFFFFF AND PUSH20 0xFFFFFFFFFFFFFFFFFFFFFFFFFFFFFFFFFFFFFFFF AND DUP2 MSTORE PUSH1 0x20 ADD SWAP1 DUP2 MSTORE PUSH1 0x20 ADD PUSH1 0x0 KECCAK256 PUSH1 0x0 SWAP1 SLOAD SWAP1 PUSH2 0x100 EXP SWAP1 DIV PUSH20 0xFFFFFFFFFFFFFFFFFFFFFFFFFFFFFFFFFFFFFFFF AND SWAP1 POP SWAP2 SWAP1 POP JUMP JUMPDEST PUSH1 0x3 PUSH1 0x0 CALLER PUSH20 0xFFFFFFFFFFFFFFFFFFFFFFFFFFFFFFFFFFFFFFFF AND PUSH20 0xFFFFFFFFFFFFFFFFFFFFFFFFFFFFFFFFFFFFFFFF AND DUP2 MSTORE PUSH1 0x20 ADD SWAP1 DUP2 MSTORE PUSH1 0x20 ADD PUSH1 0x0 KECCAK256 PUSH1 0x0 SWAP1 SLOAD SWAP1 PUSH2 0x100 EXP SWAP1 DIV PUSH1 0xFF AND ISZERO PUSH2 0x513 JUMPI PUSH1 0x40 MLOAD PUSH32 0x8C379A000000000000000000000000000000000000000000000000000000000 DUP2 MSTORE PUSH1 0x4 ADD PUSH2 0x50A SWAP1 PUSH2 0x1499 JUMP JUMPDEST PUSH1 0x40 MLOAD DUP1 SWAP2 SUB SWAP1 REVERT JUMPDEST PUSH1 0x0 PUSH1 0x6 PUSH1 0x0 DUP6 DUP2 MSTORE PUSH1 0x20 ADD SWAP1 DUP2 MSTORE PUSH1 0x20 ADD PUSH1 0x0 KECCAK256 SWAP1 POP DUP1 PUSH1 0x0 ADD PUSH1 0x15 SWAP1 SLOAD SWAP1 PUSH2 0x100 EXP SWAP1 DIV PUSH1 0xFF AND ISZERO PUSH2 0x57C JUMPI PUSH1 0x40 MLOAD PUSH32 0x8C379A000000000000000000000000000000000000000000000000000000000 DUP2 MSTORE PUSH1 0x4 ADD PUSH2 0x573 SWAP1 PUSH2 0x1505 JUMP JUMPDEST PUSH1 0x40 MLOAD DUP1 SWAP2 SUB SWAP1 REVERT JUMPDEST PUSH1 0x0 DUP1 PUSH1 0x2 DUP2 GT ISZERO PUSH2 0x591 JUMPI PUSH2 0x590 PUSH2 0xFC8 JUMP JUMPDEST JUMPDEST DUP4 PUSH1 0x2 DUP2 GT ISZERO PUSH2 0x5A4 JUMPI PUSH2 0x5A3 PUSH2 0xFC8 JUMP JUMPDEST JUMPDEST SUB PUSH2 0x5B2 JUMPI PUSH1 0x2 SWAP1 POP PUSH2 0x619 JUMP JUMPDEST PUSH1 0x1 PUSH1 0x2 DUP2 GT ISZERO PUSH2 0x5C6 JUMPI PUSH2 0x5C5 PUSH2 0xFC8 JUMP JUMPDEST JUMPDEST DUP4 PUSH1 0x2 DUP2 GT ISZERO PUSH2 0x5D9 JUMPI PUSH2 0x5D8 PUSH2 0xFC8 JUMP JUMPDEST JUMPDEST SUB PUSH2 0x5E7 JUMPI PUSH1 0x5 SWAP1 POP PUSH2 0x618 JUMP JUMPDEST PUSH1 0x2 DUP1 DUP2 GT ISZERO PUSH2 0x5FA JUMPI PUSH2 0x5F9 PUSH2 0xFC8 JUMP JUMPDEST JUMPDEST DUP4 PUSH1 0x2 DUP2 GT ISZERO PUSH2 0x60D JUMPI PUSH2 0x60C PUSH2 0xFC8 JUMP JUMPDEST JUMPDEST SUB PUSH2 0x617 JUMPI PUSH1 0xA SWAP1 POP JUMPDEST JUMPDEST JUMPDEST PUSH1 0x0 DUP2 DUP6 PUSH2 0x627 SWAP2 SWAP1 PUSH2 0x1554 JUMP JUMPDEST SWAP1 POP DUP8 PUSH20 0xFFFFFFFFFFFFFFFFFFFFFFFFFFFFFFFFFFFFFFFF AND PUSH4 0x63D96DBF DUP9 DUP4 PUSH1 0x40 MLOAD DUP4 PUSH4 0xFFFFFFFF AND PUSH1 0xE0 SHL DUP2 MSTORE PUSH1 0x4 ADD PUSH2 0x664 SWAP3 SWAP2 SWAP1 PUSH2 0x1591 JUMP JUMPDEST PUSH1 0x0 PUSH1 0x40 MLOAD DUP1 DUP4 SUB DUP2 PUSH1 0x0 DUP8 DUP1 EXTCODESIZE ISZERO DUP1 ISZERO PUSH2 0x67E JUMPI PUSH1 0x0 DUP1 REVERT JUMPDEST POP GAS CALL ISZERO DUP1 ISZERO PUSH2 0x692 JUMPI RETURNDATASIZE PUSH1 0x0 DUP1 RETURNDATACOPY RETURNDATASIZE PUSH1 0x0 REVERT JUMPDEST POP POP POP POP PUSH1 0x1 DUP4 PUSH1 0x0 ADD PUSH1 0x15 PUSH2 0x100 EXP DUP2 SLOAD DUP2 PUSH1 0xFF MUL NOT AND SWAP1 DUP4 ISZERO ISZERO MUL OR SWAP1 SSTORE POP POP POP POP POP POP POP POP POP JUMP JUMPDEST PUSH1 0x3 PUSH1 0x0 CALLER PUSH20 0xFFFFFFFFFFFFFFFFFFFFFFFFFFFFFFFFFFFFFFFF AND PUSH20 0xFFFFFFFFFFFFFFFFFFFFFFFFFFFFFFFFFFFFFFFF AND DUP2 MSTORE PUSH1 0x20 ADD SWAP1 DUP2 MSTORE PUSH1 0x20 ADD PUSH1 0x0 KECCAK256 PUSH1 0x0 SWAP1 SLOAD SWAP1 PUSH2 0x100 EXP SWAP1 DIV PUSH1 0xFF AND ISZERO PUSH2 0x74A JUMPI PUSH1 0x40 MLOAD PUSH32 0x8C379A000000000000000000000000000000000000000000000000000000000 DUP2 MSTORE PUSH1 0x4 ADD PUSH2 0x741 SWAP1 PUSH2 0x1499 JUMP JUMPDEST PUSH1 0x40 MLOAD DUP1 SWAP2 SUB SWAP1 REVERT JUMPDEST DUP1 PUSH1 0x3 PUSH1 0x0 CALLER PUSH20 0xFFFFFFFFFFFFFFFFFFFFFFFFFFFFFFFFFFFFFFFF AND PUSH20 0xFFFFFFFFFFFFFFFFFFFFFFFFFFFFFFFFFFFFFFFF AND DUP2 MSTORE PUSH1 0x20 ADD SWAP1 DUP2 MSTORE PUSH1 0x20 ADD PUSH1 0x0 KECCAK256 PUSH1 0x0 PUSH2 0x100 EXP DUP2 SLOAD DUP2 PUSH1 0xFF MUL NOT AND SWAP1 DUP4 ISZERO ISZERO MUL OR SWAP1 SSTORE POP DUP1 ISZERO PUSH2 0x7E3 JUMPI PUSH32 0x9952A16ECCD256462730E4F6BC004A7E5B1177D4AE73DD260C6E2F32BD839B50 CALLER PUSH1 0x40 MLOAD PUSH2 0x7D6 SWAP2 SWAP1 PUSH2 0x10EA JUMP JUMPDEST PUSH1 0x40 MLOAD DUP1 SWAP2 SUB SWAP1 LOG1 PUSH2 0x81B JUMP JUMPDEST PUSH32 0xA2671DDFCAE8E909ADA448839621CACD285875CCC6F146751E3E1BC4F2E1E9CD CALLER PUSH1 0x40 MLOAD PUSH2 0x812 SWAP2 SWAP1 PUSH2 0x10EA JUMP JUMPDEST PUSH1 0x40 MLOAD DUP1 SWAP2 SUB SWAP1 LOG1 JUMPDEST POP JUMP JUMPDEST PUSH1 0x2 DUP2 JUMP JUMPDEST CALLER PUSH20 0xFFFFFFFFFFFFFFFFFFFFFFFFFFFFFFFFFFFFFFFF AND DUP3 PUSH20 0xFFFFFFFFFFFFFFFFFFFFFFFFFFFFFFFFFFFFFFFF AND PUSH4 0x893D20E8 PUSH1 0x40 MLOAD DUP2 PUSH4 0xFFFFFFFF AND PUSH1 0xE0 SHL DUP2 MSTORE PUSH1 0x4 ADD PUSH1 0x20 PUSH1 0x40 MLOAD DUP1 DUP4 SUB DUP2 DUP7 GAS STATICCALL ISZERO DUP1 ISZERO PUSH2 0x885 JUMPI RETURNDATASIZE PUSH1 0x0 DUP1 RETURNDATACOPY RETURNDATASIZE PUSH1 0x0 REVERT JUMPDEST POP POP POP POP PUSH1 0x40 MLOAD RETURNDATASIZE PUSH1 0x1F NOT PUSH1 0x1F DUP3 ADD AND DUP3 ADD DUP1 PUSH1 0x40 MSTORE POP DUP2 ADD SWAP1 PUSH2 0x8A9 SWAP2 SWAP1 PUSH2 0x15CF JUMP JUMPDEST PUSH20 0xFFFFFFFFFFFFFFFFFFFFFFFFFFFFFFFFFFFFFFFF AND EQ PUSH2 0x8FF JUMPI PUSH1 0x40 MLOAD PUSH32 0x8C379A000000000000000000000000000000000000000000000000000000000 DUP2 MSTORE PUSH1 0x4 ADD PUSH2 0x8F6 SWAP1 PUSH2 0x166E JUMP JUMPDEST PUSH1 0x40 MLOAD DUP1 SWAP2 SUB SWAP1 REVERT JUMPDEST DUP1 PUSH1 0x2 PUSH1 0x0 DUP5 PUSH20 0xFFFFFFFFFFFFFFFFFFFFFFFFFFFFFFFFFFFFFFFF AND PUSH20 0xFFFFFFFFFFFFFFFFFFFFFFFFFFFFFFFFFFFFFFFF AND DUP2 MSTORE PUSH1 0x20 ADD SWAP1 DUP2 MSTORE PUSH1 0x20 ADD PUSH1 0x0 KECCAK256 DUP2 SWAP1 SSTORE POP POP POP JUMP JUMPDEST PUSH1 0x0 PUSH1 0x3 PUSH1 0x0 CALLER PUSH20 0xFFFFFFFFFFFFFFFFFFFFFFFFFFFFFFFFFFFFFFFF AND PUSH20 0xFFFFFFFFFFFFFFFFFFFFFFFFFFFFFFFFFFFFFFFF AND DUP2 MSTORE PUSH1 0x20 ADD SWAP1 DUP2 MSTORE PUSH1 0x20 ADD PUSH1 0x0 KECCAK256 PUSH1 0x0 SWAP1 SLOAD SWAP1 PUSH2 0x100 EXP SWAP1 DIV PUSH1 0xFF AND ISZERO PUSH2 0x9D6 JUMPI PUSH1 0x40 MLOAD PUSH32 0x8C379A000000000000000000000000000000000000000000000000000000000 DUP2 MSTORE PUSH1 0x4 ADD PUSH2 0x9CD SWAP1 PUSH2 0x1499 JUMP JUMPDEST PUSH1 0x40 MLOAD DUP1 SWAP2 SUB SWAP1 REVERT JUMPDEST PUSH1 0x0 DUP5 DUP5 TIMESTAMP PUSH1 0x40 MLOAD PUSH1 0x20 ADD PUSH2 0x9ED SWAP4 SWAP3 SWAP2 SWAP1 PUSH2 0x1718 JUMP JUMPDEST PUSH1 0x40 MLOAD PUSH1 0x20 DUP2 DUP4 SUB SUB DUP2 MSTORE SWAP1 PUSH1 0x40 MSTORE DUP1 MLOAD SWAP1 PUSH1 0x20 ADD KECCAK256 SWAP1 POP PUSH1 0x6 PUSH1 0x0 DUP3 DUP2 MSTORE PUSH1 0x20 ADD SWAP1 DUP2 MSTORE PUSH1 0x20 ADD PUSH1 0x0 KECCAK256 PUSH1 0x0 ADD PUSH1 0x15 SWAP1 SLOAD SWAP1 PUSH2 0x100 EXP SWAP1 DIV PUSH1 0xFF AND ISZERO PUSH2 0xA69 JUMPI PUSH1 0x40 MLOAD PUSH32 0x8C379A000000000000000000000000000000000000000000000000000000000 DUP2 MSTORE PUSH1 0x4 ADD PUSH2 0xA60 SWAP1 PUSH2 0x1505 JUMP JUMPDEST PUSH1 0x40 MLOAD DUP1 SWAP2 SUB SWAP1 REVERT JUMPDEST PUSH1 0x40 MLOAD DUP1 PUSH1 0x60 ADD PUSH1 0x40 MSTORE DUP1 DUP7 PUSH20 0xFFFFFFFFFFFFFFFFFFFFFFFFFFFFFFFFFFFFFFFF AND DUP2 MSTORE PUSH1 0x20 ADD DUP5 PUSH1 0x2 DUP2 GT ISZERO PUSH2 0xAA3 JUMPI PUSH2 0xAA2 PUSH2 0xFC8 JUMP JUMPDEST JUMPDEST DUP2 MSTORE PUSH1 0x20 ADD PUSH1 0x0 ISZERO ISZERO DUP2 MSTORE POP PUSH1 0x6 PUSH1 0x0 DUP4 DUP2 MSTORE PUSH1 0x20 ADD SWAP1 DUP2 MSTORE PUSH1 0x20 ADD PUSH1 0x0 KECCAK256 PUSH1 0x0 DUP3 ADD MLOAD DUP2 PUSH1 0x0 ADD PUSH1 0x0 PUSH2 0x100 EXP DUP2 SLOAD DUP2 PUSH20 0xFFFFFFFFFFFFFFFFFFFFFFFFFFFFFFFFFFFFFFFF MUL NOT AND SWAP1 DUP4 PUSH20 0xFFFFFFFFFFFFFFFFFFFFFFFFFFFFFFFFFFFFFFFF AND MUL OR SWAP1 SSTORE POP PUSH1 0x20 DUP3 ADD MLOAD DUP2 PUSH1 0x0 ADD PUSH1 0x14 PUSH2 0x100 EXP DUP2 SLOAD DUP2 PUSH1 0xFF MUL NOT AND SWAP1 DUP4 PUSH1 0x2 DUP2 GT ISZERO PUSH2 0xB34 JUMPI PUSH2 0xB33 PUSH2 0xFC8 JUMP JUMPDEST JUMPDEST MUL OR SWAP1 SSTORE POP PUSH1 0x40 DUP3 ADD MLOAD DUP2 PUSH1 0x0 ADD PUSH1 0x15 PUSH2 0x100 EXP DUP2 SLOAD DUP2 PUSH1 0xFF MUL NOT AND SWAP1 DUP4 ISZERO ISZERO MUL OR SWAP1 SSTORE POP SWAP1 POP POP DUP1 SWAP2 POP POP SWAP4 SWAP3 POP POP POP JUMP JUMPDEST PUSH1 0x0 DUP1 SLOAD SWAP1 PUSH2 0x100 EXP SWAP1 DIV PUSH20 0xFFFFFFFFFFFFFFFFFFFFFFFFFFFFFFFFFFFFFFFF AND DUP2 JUMP JUMPDEST PUSH1 0x3 PUSH1 0x20 MSTORE DUP1 PUSH1 0x0 MSTORE PUSH1 0x40 PUSH1 0x0 KECCAK256 PUSH1 0x0 SWAP2 POP SLOAD SWAP1 PUSH2 0x100 EXP SWAP1 DIV PUSH1 0xFF AND DUP2 JUMP JUMPDEST PUSH1 0x3 PUSH1 0x0 DUP5 PUSH20 0xFFFFFFFFFFFFFFFFFFFFFFFFFFFFFFFFFFFFFFFF AND PUSH20 0xFFFFFFFFFFFFFFFFFFFFFFFFFFFFFFFFFFFFFFFF AND DUP2 MSTORE PUSH1 0x20 ADD SWAP1 DUP2 MSTORE PUSH1 0x20 ADD PUSH1 0x0 KECCAK256 PUSH1 0x0 SWAP1 SLOAD SWAP1 PUSH2 0x100 EXP SWAP1 DIV PUSH1 0xFF AND ISZERO PUSH2 0xC38 JUMPI PUSH1 0x40 MLOAD PUSH32 0x8C379A000000000000000000000000000000000000000000000000000000000 DUP2 MSTORE PUSH1 0x4 ADD PUSH2 0xC2F SWAP1 PUSH2 0x17A1 JUMP JUMPDEST PUSH1 0x40 MLOAD DUP1 SWAP2 SUB SWAP1 REVERT JUMPDEST DUP1 PUSH1 0x2 PUSH1 0x0 DUP6 PUSH20 0xFFFFFFFFFFFFFFFFFFFFFFFFFFFFFFFFFFFFFFFF AND PUSH20 0xFFFFFFFFFFFFFFFFFFFFFFFFFFFFFFFFFFFFFFFF AND DUP2 MSTORE PUSH1 0x20 ADD SWAP1 DUP2 MSTORE PUSH1 0x20 ADD PUSH1 0x0 KECCAK256 DUP2 SWAP1 SSTORE POP DUP3 PUSH1 0x5 PUSH1 0x0 DUP5 PUSH20 0xFFFFFFFFFFFFFFFFFFFFFFFFFFFFFFFFFFFFFFFF AND PUSH20 0xFFFFFFFFFFFFFFFFFFFFFFFFFFFFFFFFFFFFFFFF AND DUP2 MSTORE PUSH1 0x20 ADD SWAP1 DUP2 MSTORE PUSH1 0x20 ADD PUSH1 0x0 KECCAK256 PUSH1 0x0 PUSH2 0x100 EXP DUP2 SLOAD DUP2 PUSH20 0xFFFFFFFFFFFFFFFFFFFFFFFFFFFFFFFFFFFFFFFF MUL NOT AND SWAP1 DUP4 PUSH20 0xFFFFFFFFFFFFFFFFFFFFFFFFFFFFFFFFFFFFFFFF AND MUL OR SWAP1 SSTORE POP PUSH32 0xA7A8C16B3FF27BF6A39D141C5C28CADCA6B06341ED9CF03B462D263D2E4758A6 DUP4 PUSH1 0x40 MLOAD PUSH2 0xD29 SWAP2 SWAP1 PUSH2 0x10EA JUMP JUMPDEST PUSH1 0x40 MLOAD DUP1 SWAP2 SUB SWAP1 LOG1 POP POP POP JUMP JUMPDEST PUSH1 0xA DUP2 JUMP JUMPDEST CALLER PUSH20 0xFFFFFFFFFFFFFFFFFFFFFFFFFFFFFFFFFFFFFFFF AND PUSH1 0x0 DUP1 SLOAD SWAP1 PUSH2 0x100 EXP SWAP1 DIV PUSH20 0xFFFFFFFFFFFFFFFFFFFFFFFFFFFFFFFFFFFFFFFF AND PUSH20 0xFFFFFFFFFFFFFFFFFFFFFFFFFFFFFFFFFFFFFFFF AND EQ PUSH2 0xDC9 JUMPI PUSH1 0x40 MLOAD PUSH32 0x8C379A000000000000000000000000000000000000000000000000000000000 DUP2 MSTORE PUSH1 0x4 ADD PUSH2 0xDC0 SWAP1 PUSH2 0x180D JUMP JUMPDEST PUSH1 0x40 MLOAD DUP1 SWAP2 SUB SWAP1 REVERT JUMPDEST DUP1 PUSH1 0x4 PUSH1 0x0 DUP5 PUSH1 0x2 DUP2 GT ISZERO PUSH2 0xDE1 JUMPI PUSH2 0xDE0 PUSH2 0xFC8 JUMP JUMPDEST JUMPDEST PUSH1 0x2 DUP2 GT ISZERO PUSH2 0xDF3 JUMPI PUSH2 0xDF2 PUSH2 0xFC8 JUMP JUMPDEST JUMPDEST DUP2 MSTORE PUSH1 0x20 ADD SWAP1 DUP2 MSTORE PUSH1 0x20 ADD PUSH1 0x0 KECCAK256 DUP2 SWAP1 SSTORE POP POP POP JUMP JUMPDEST PUSH1 0x1 PUSH1 0x0 SWAP1 SLOAD SWAP1 PUSH2 0x100 EXP SWAP1 DIV PUSH20 0xFFFFFFFFFFFFFFFFFFFFFFFFFFFFFFFFFFFFFFFF AND DUP2 JUMP JUMPDEST PUSH1 0x5 PUSH1 0x20 MSTORE DUP1 PUSH1 0x0 MSTORE PUSH1 0x40 PUSH1 0x0 KECCAK256 PUSH1 0x0 SWAP2 POP SLOAD SWAP1 PUSH2 0x100 EXP SWAP1 DIV PUSH20 0xFFFFFFFFFFFFFFFFFFFFFFFFFFFFFFFFFFFFFFFF AND DUP2 JUMP JUMPDEST PUSH1 0x0 DUP1 REVERT JUMPDEST PUSH1 0x3 DUP2 LT PUSH2 0xE74 JUMPI PUSH1 0x0 DUP1 REVERT JUMPDEST POP JUMP JUMPDEST PUSH1 0x0 DUP2 CALLDATALOAD SWAP1 POP PUSH2 0xE86 DUP2 PUSH2 0xE67 JUMP JUMPDEST SWAP3 SWAP2 POP POP JUMP JUMPDEST PUSH1 0x0 PUSH1 0x20 DUP3 DUP5 SUB SLT ISZERO PUSH2 0xEA2 JUMPI PUSH2 0xEA1 PUSH2 0xE62 JUMP JUMPDEST JUMPDEST PUSH1 0x0 PUSH2 0xEB0 DUP5 DUP3 DUP6 ADD PUSH2 0xE77 JUMP JUMPDEST SWAP2 POP POP SWAP3 SWAP2 POP POP JUMP JUMPDEST PUSH1 0x0 DUP2 SWAP1 POP SWAP2 SWAP1 POP JUMP JUMPDEST PUSH2 0xECC DUP2 PUSH2 0xEB9 JUMP JUMPDEST DUP3 MSTORE POP POP JUMP JUMPDEST PUSH1 0x0 PUSH1 0x20 DUP3 ADD SWAP1 POP PUSH2 0xEE7 PUSH1 0x0 DUP4 ADD DUP5 PUSH2 0xEC3 JUMP JUMPDEST SWAP3 SWAP2 POP POP JUMP JUMPDEST PUSH1 0x0 DUP2 PUSH1 0x7 SIGNEXTEND SWAP1 POP SWAP2 SWAP1 POP JUMP JUMPDEST PUSH2 0xF03 DUP2 PUSH2 0xEED JUMP JUMPDEST DUP3 MSTORE POP POP JUMP JUMPDEST PUSH1 0x0 PUSH1 0x20 DUP3 ADD SWAP1 POP PUSH2 0xF1E PUSH1 0x0 DUP4 ADD DUP5 PUSH2 0xEFA JUMP JUMPDEST SWAP3 SWAP2 POP POP JUMP JUMPDEST PUSH1 0x0 DUP2 SWAP1 POP SWAP2 SWAP1 POP JUMP JUMPDEST PUSH2 0xF37 DUP2 PUSH2 0xF24 JUMP JUMPDEST DUP2 EQ PUSH2 0xF42 JUMPI PUSH1 0x0 DUP1 REVERT JUMPDEST POP JUMP JUMPDEST PUSH1 0x0 DUP2 CALLDATALOAD SWAP1 POP PUSH2 0xF54 DUP2 PUSH2 0xF2E JUMP JUMPDEST SWAP3 SWAP2 POP POP JUMP JUMPDEST PUSH1 0x0 PUSH1 0x20 DUP3 DUP5 SUB SLT ISZERO PUSH2 0xF70 JUMPI PUSH2 0xF6F PUSH2 0xE62 JUMP JUMPDEST JUMPDEST PUSH1 0x0 PUSH2 0xF7E DUP5 DUP3 DUP6 ADD PUSH2 0xF45 JUMP JUMPDEST SWAP2 POP POP SWAP3 SWAP2 POP POP JUMP JUMPDEST PUSH1 0x0 PUSH20 0xFFFFFFFFFFFFFFFFFFFFFFFFFFFFFFFFFFFFFFFF DUP3 AND SWAP1 POP SWAP2 SWAP1 POP JUMP JUMPDEST PUSH1 0x0 PUSH2 0xFB2 DUP3 PUSH2 0xF87 JUMP JUMPDEST SWAP1 POP SWAP2 SWAP1 POP JUMP JUMPDEST PUSH2 0xFC2 DUP2 PUSH2 0xFA7 JUMP JUMPDEST DUP3 MSTORE POP POP JUMP JUMPDEST PUSH32 0x4E487B7100000000000000000000000000000000000000000000000000000000 PUSH1 0x0 MSTORE PUSH1 0x21 PUSH1 0x4 MSTORE PUSH1 0x24 PUSH1 0x0 REVERT JUMPDEST PUSH1 0x3 DUP2 LT PUSH2 0x1008 JUMPI PUSH2 0x1007 PUSH2 0xFC8 JUMP JUMPDEST JUMPDEST POP JUMP JUMPDEST PUSH1 0x0 DUP2 SWAP1 POP PUSH2 0x1019 DUP3 PUSH2 0xFF7 JUMP JUMPDEST SWAP2 SWAP1 POP JUMP JUMPDEST PUSH1 0x0 PUSH2 0x1029 DUP3 PUSH2 0x100B JUMP JUMPDEST SWAP1 POP SWAP2 SWAP1 POP JUMP JUMPDEST PUSH2 0x1039 DUP2 PUSH2 0x101E JUMP JUMPDEST DUP3 MSTORE POP POP JUMP JUMPDEST PUSH1 0x0 DUP2 ISZERO ISZERO SWAP1 POP SWAP2 SWAP1 POP JUMP JUMPDEST PUSH2 0x1054 DUP2 PUSH2 0x103F JUMP JUMPDEST DUP3 MSTORE POP POP JUMP JUMPDEST PUSH1 0x0 PUSH1 0x60 DUP3 ADD SWAP1 POP PUSH2 0x106F PUSH1 0x0 DUP4 ADD DUP7 PUSH2 0xFB9 JUMP JUMPDEST PUSH2 0x107C PUSH1 0x20 DUP4 ADD DUP6 PUSH2 0x1030 JUMP JUMPDEST PUSH2 0x1089 PUSH1 0x40 DUP4 ADD DUP5 PUSH2 0x104B JUMP JUMPDEST SWAP5 SWAP4 POP POP POP POP JUMP JUMPDEST PUSH2 0x109A DUP2 PUSH2 0xFA7 JUMP JUMPDEST DUP2 EQ PUSH2 0x10A5 JUMPI PUSH1 0x0 DUP1 REVERT JUMPDEST POP JUMP JUMPDEST PUSH1 0x0 DUP2 CALLDATALOAD SWAP1 POP PUSH2 0x10B7 DUP2 PUSH2 0x1091 JUMP JUMPDEST SWAP3 SWAP2 POP POP JUMP JUMPDEST PUSH1 0x0 PUSH1 0x20 DUP3 DUP5 SUB SLT ISZERO PUSH2 0x10D3 JUMPI PUSH2 0x10D2 PUSH2 0xE62 JUMP JUMPDEST JUMPDEST PUSH1 0x0 PUSH2 0x10E1 DUP5 DUP3 DUP6 ADD PUSH2 0x10A8 JUMP JUMPDEST SWAP2 POP POP SWAP3 SWAP2 POP POP JUMP JUMPDEST PUSH1 0x0 PUSH1 0x20 DUP3 ADD SWAP1 POP PUSH2 0x10FF PUSH1 0x0 DUP4 ADD DUP5 PUSH2 0xFB9 JUMP JUMPDEST SWAP3 SWAP2 POP POP JUMP JUMPDEST PUSH2 0x110E DUP2 PUSH2 0xEED JUMP JUMPDEST DUP2 EQ PUSH2 0x1119 JUMPI PUSH1 0x0 DUP1 REVERT JUMPDEST POP JUMP JUMPDEST PUSH1 0x0 DUP2 CALLDATALOAD SWAP1 POP PUSH2 0x112B DUP2 PUSH2 0x1105 JUMP JUMPDEST SWAP3 SWAP2 POP POP JUMP JUMPDEST PUSH1 0x0 DUP1 PUSH1 0x0 DUP1 PUSH1 0x0 PUSH1 0xA0 DUP7 DUP9 SUB SLT ISZERO PUSH2 0x114D JUMPI PUSH2 0x114C PUSH2 0xE62 JUMP JUMPDEST JUMPDEST PUSH1 0x0 PUSH2 0x115B DUP9 DUP3 DUP10 ADD PUSH2 0x10A8 JUMP JUMPDEST SWAP6 POP POP PUSH1 0x20 PUSH2 0x116C DUP9 DUP3 DUP10 ADD PUSH2 0x10A8 JUMP JUMPDEST SWAP5 POP POP PUSH1 0x40 PUSH2 0x117D DUP9 DUP3 DUP10 ADD PUSH2 0xF45 JUMP JUMPDEST SWAP4 POP POP PUSH1 0x60 PUSH2 0x118E DUP9 DUP3 DUP10 ADD PUSH2 0x111C JUMP JUMPDEST SWAP3 POP POP PUSH1 0x80 PUSH2 0x119F DUP9 DUP3 DUP10 ADD PUSH2 0xE77 JUMP JUMPDEST SWAP2 POP POP SWAP3 SWAP6 POP SWAP3 SWAP6 SWAP1 SWAP4 POP JUMP JUMPDEST PUSH2 0x11B5 DUP2 PUSH2 0x103F JUMP JUMPDEST DUP2 EQ PUSH2 0x11C0 JUMPI PUSH1 0x0 DUP1 REVERT JUMPDEST POP JUMP JUMPDEST PUSH1 0x0 DUP2 CALLDATALOAD SWAP1 POP PUSH2 0x11D2 DUP2 PUSH2 0x11AC JUMP JUMPDEST SWAP3 SWAP2 POP POP JUMP JUMPDEST PUSH1 0x0 PUSH1 0x20 DUP3 DUP5 SUB SLT ISZERO PUSH2 0x11EE JUMPI PUSH2 0x11ED PUSH2 0xE62 JUMP JUMPDEST JUMPDEST PUSH1 0x0 PUSH2 0x11FC DUP5 DUP3 DUP6 ADD PUSH2 0x11C3 JUMP JUMPDEST SWAP2 POP POP SWAP3 SWAP2 POP POP JUMP JUMPDEST PUSH2 0x120E DUP2 PUSH2 0xEB9 JUMP JUMPDEST DUP2 EQ PUSH2 0x1219 JUMPI PUSH1 0x0 DUP1 REVERT JUMPDEST POP JUMP JUMPDEST PUSH1 0x0 DUP2 CALLDATALOAD SWAP1 POP PUSH2 0x122B DUP2 PUSH2 0x1205 JUMP JUMPDEST SWAP3 SWAP2 POP POP JUMP JUMPDEST PUSH1 0x0 DUP1 PUSH1 0x40 DUP4 DUP6 SUB SLT ISZERO PUSH2 0x1248 JUMPI PUSH2 0x1247 PUSH2 0xE62 JUMP JUMPDEST JUMPDEST PUSH1 0x0 PUSH2 0x1256 DUP6 DUP3 DUP7 ADD PUSH2 0x10A8 JUMP JUMPDEST SWAP3 POP POP PUSH1 0x20 PUSH2 0x1267 DUP6 DUP3 DUP7 ADD PUSH2 0x121C JUMP JUMPDEST SWAP2 POP POP SWAP3 POP SWAP3 SWAP1 POP JUMP JUMPDEST PUSH1 0x0 DUP1 PUSH1 0x0 PUSH1 0x60 DUP5 DUP7 SUB SLT ISZERO PUSH2 0x128A JUMPI PUSH2 0x1289 PUSH2 0xE62 JUMP JUMPDEST JUMPDEST PUSH1 0x0 PUSH2 0x1298 DUP7 DUP3 DUP8 ADD PUSH2 0x10A8 JUMP JUMPDEST SWAP4 POP POP PUSH1 0x20 PUSH2 0x12A9 DUP7 DUP3 DUP8 ADD PUSH2 0xF45 JUMP JUMPDEST SWAP3 POP POP PUSH1 0x40 PUSH2 0x12BA DUP7 DUP3 DUP8 ADD PUSH2 0xE77 JUMP JUMPDEST SWAP2 POP POP SWAP3 POP SWAP3 POP SWAP3 JUMP JUMPDEST PUSH2 0x12CD DUP2 PUSH2 0xF24 JUMP JUMPDEST DUP3 MSTORE POP POP JUMP JUMPDEST PUSH1 0x0 PUSH1 0x20 DUP3 ADD SWAP1 POP PUSH2 0x12E8 PUSH1 0x0 DUP4 ADD DUP5 PUSH2 0x12C4 JUMP JUMPDEST SWAP3 SWAP2 POP POP JUMP JUMPDEST PUSH1 0x0 PUSH1 0x20 DUP3 ADD SWAP1 POP PUSH2 0x1303 PUSH1 0x0 DUP4 ADD DUP5 PUSH2 0x104B JUMP JUMPDEST SWAP3 SWAP2 POP POP JUMP JUMPDEST PUSH1 0x0 DUP1 PUSH1 0x0 PUSH1 0x60 DUP5 DUP7 SUB SLT ISZERO PUSH2 0x1322 JUMPI PUSH2 0x1321 PUSH2 0xE62 JUMP JUMPDEST JUMPDEST PUSH1 0x0 PUSH2 0x1330 DUP7 DUP3 DUP8 ADD PUSH2 0x10A8 JUMP JUMPDEST SWAP4 POP POP PUSH1 0x20 PUSH2 0x1341 DUP7 DUP3 DUP8 ADD PUSH2 0x10A8 JUMP JUMPDEST SWAP3 POP POP PUSH1 0x40 PUSH2 0x1352 DUP7 DUP3 DUP8 ADD PUSH2 0x121C JUMP JUMPDEST SWAP2 POP POP SWAP3 POP SWAP3 POP SWAP3 JUMP JUMPDEST PUSH1 0x0 DUP1 PUSH1 0x40 DUP4 DUP6 SUB SLT ISZERO PUSH2 0x1373 JUMPI PUSH2 0x1372 PUSH2 0xE62 JUMP JUMPDEST JUMPDEST PUSH1 0x0 PUSH2 0x1381 DUP6 DUP3 DUP7 ADD PUSH2 0xE77 JUMP JUMPDEST SWAP3 POP POP PUSH1 0x20 PUSH2 0x1392 DUP6 DUP3 DUP7 ADD PUSH2 0x121C JUMP JUMPDEST SWAP2 POP POP SWAP3 POP SWAP3 SWAP1 POP JUMP JUMPDEST PUSH1 0x0 DUP2 SWAP1 POP SWAP2 SWAP1 POP JUMP JUMPDEST PUSH1 0x0 PUSH2 0x13C1 PUSH2 0x13BC PUSH2 0x13B7 DUP5 PUSH2 0xF87 JUMP JUMPDEST PUSH2 0x139C JUMP JUMPDEST PUSH2 0xF87 JUMP JUMPDEST SWAP1 POP SWAP2 SWAP1 POP JUMP JUMPDEST PUSH1 0x0 PUSH2 0x13D3 DUP3 PUSH2 0x13A6 JUMP JUMPDEST SWAP1 POP SWAP2 SWAP1 POP JUMP JUMPDEST PUSH1 0x0 PUSH2 0x13E5 DUP3 PUSH2 0x13C8 JUMP JUMPDEST SWAP1 POP SWAP2 SWAP1 POP JUMP JUMPDEST PUSH2 0x13F5 DUP2 PUSH2 0x13DA JUMP JUMPDEST DUP3 MSTORE POP POP JUMP JUMPDEST PUSH1 0x0 PUSH1 0x20 DUP3 ADD SWAP1 POP PUSH2 0x1410 PUSH1 0x0 DUP4 ADD DUP5 PUSH2 0x13EC JUMP JUMPDEST SWAP3 SWAP2 POP POP JUMP JUMPDEST PUSH1 0x0 DUP3 DUP3 MSTORE PUSH1 0x20 DUP3 ADD SWAP1 POP SWAP3 SWAP2 POP POP JUMP JUMPDEST PUSH32 0x4167656E742069732066726F7A656E20616E642063616E6E6F74206F70657261 PUSH1 0x0 DUP3 ADD MSTORE PUSH32 0x74652E0000000000000000000000000000000000000000000000000000000000 PUSH1 0x20 DUP3 ADD MSTORE POP JUMP JUMPDEST PUSH1 0x0 PUSH2 0x1483 PUSH1 0x23 DUP4 PUSH2 0x1416 JUMP JUMPDEST SWAP2 POP PUSH2 0x148E DUP3 PUSH2 0x1427 JUMP JUMPDEST PUSH1 0x40 DUP3 ADD SWAP1 POP SWAP2 SWAP1 POP JUMP JUMPDEST PUSH1 0x0 PUSH1 0x20 DUP3 ADD SWAP1 POP DUP2 DUP2 SUB PUSH1 0x0 DUP4 ADD MSTORE PUSH2 0x14B2 DUP2 PUSH2 0x1476 JUMP JUMPDEST SWAP1 POP SWAP2 SWAP1 POP JUMP JUMPDEST PUSH32 0x4B657920616C72656164792070726F6365737365640000000000000000000000 PUSH1 0x0 DUP3 ADD MSTORE POP JUMP JUMPDEST PUSH1 0x0 PUSH2 0x14EF PUSH1 0x15 DUP4 PUSH2 0x1416 JUMP JUMPDEST SWAP2 POP PUSH2 0x14FA DUP3 PUSH2 0x14B9 JUMP JUMPDEST PUSH1 0x20 DUP3 ADD SWAP1 POP SWAP2 SWAP1 POP JUMP JUMPDEST PUSH1 0x0 PUSH1 0x20 DUP3 ADD SWAP1 POP DUP2 DUP2 SUB PUSH1 0x0 DUP4 ADD MSTORE PUSH2 0x151E DUP2 PUSH2 0x14E2 JUMP JUMPDEST SWAP1 POP SWAP2 SWAP1 POP JUMP JUMPDEST PUSH32 0x4E487B7100000000000000000000000000000000000000000000000000000000 PUSH1 0x0 MSTORE PUSH1 0x11 PUSH1 0x4 MSTORE PUSH1 0x24 PUSH1 0x0 REVERT JUMPDEST PUSH1 0x0 PUSH2 0x155F DUP3 PUSH2 0xEED JUMP JUMPDEST SWAP2 POP PUSH2 0x156A DUP4 PUSH2 0xEED JUMP JUMPDEST SWAP3 POP DUP3 DUP3 MUL PUSH2 0x1578 DUP2 PUSH2 0xEED JUMP JUMPDEST SWAP2 POP DUP1 DUP3 EQ PUSH2 0x158A JUMPI PUSH2 0x1589 PUSH2 0x1525 JUMP JUMPDEST JUMPDEST POP SWAP3 SWAP2 POP POP JUMP JUMPDEST PUSH1 0x0 PUSH1 0x40 DUP3 ADD SWAP1 POP PUSH2 0x15A6 PUSH1 0x0 DUP4 ADD DUP6 PUSH2 0xFB9 JUMP JUMPDEST PUSH2 0x15B3 PUSH1 0x20 DUP4 ADD DUP5 PUSH2 0xEFA JUMP JUMPDEST SWAP4 SWAP3 POP POP POP JUMP JUMPDEST PUSH1 0x0 DUP2 MLOAD SWAP1 POP PUSH2 0x15C9 DUP2 PUSH2 0x1091 JUMP JUMPDEST SWAP3 SWAP2 POP POP JUMP JUMPDEST PUSH1 0x0 PUSH1 0x20 DUP3 DUP5 SUB SLT ISZERO PUSH2 0x15E5 JUMPI PUSH2 0x15E4 PUSH2 0xE62 JUMP JUMPDEST JUMPDEST PUSH1 0x0 PUSH2 0x15F3 DUP5 DUP3 DUP6 ADD PUSH2 0x15BA JUMP JUMPDEST SWAP2 POP POP SWAP3 SWAP2 POP POP JUMP JUMPDEST PUSH32 0x556E617574686F72697A65643A204E6F7420746865206167656E742773206F77 PUSH1 0x0 DUP3 ADD MSTORE PUSH32 0x6E65720000000000000000000000000000000000000000000000000000000000 PUSH1 0x20 DUP3 ADD MSTORE POP JUMP JUMPDEST PUSH1 0x0 PUSH2 0x1658 PUSH1 0x23 DUP4 PUSH2 0x1416 JUMP JUMPDEST SWAP2 POP PUSH2 0x1663 DUP3 PUSH2 0x15FC JUMP JUMPDEST PUSH1 0x40 DUP3 ADD SWAP1 POP SWAP2 SWAP1 POP JUMP JUMPDEST PUSH1 0x0 PUSH1 0x20 DUP3 ADD SWAP1 POP DUP2 DUP2 SUB PUSH1 0x0 DUP4 ADD MSTORE PUSH2 0x1687 DUP2 PUSH2 0x164B JUMP JUMPDEST SWAP1 POP SWAP2 SWAP1 POP JUMP JUMPDEST PUSH1 0x0 DUP2 PUSH1 0x60 SHL SWAP1 POP SWAP2 SWAP1 POP JUMP JUMPDEST PUSH1 0x0 PUSH2 0x16A6 DUP3 PUSH2 0x168E JUMP JUMPDEST SWAP1 POP SWAP2 SWAP1 POP JUMP JUMPDEST PUSH1 0x0 PUSH2 0x16B8 DUP3 PUSH2 0x169B JUMP JUMPDEST SWAP1 POP SWAP2 SWAP1 POP JUMP JUMPDEST PUSH2 0x16D0 PUSH2 0x16CB DUP3 PUSH2 0xFA7 JUMP JUMPDEST PUSH2 0x16AD JUMP JUMPDEST DUP3 MSTORE POP POP JUMP JUMPDEST PUSH1 0x0 DUP2 SWAP1 POP SWAP2 SWAP1 POP JUMP JUMPDEST PUSH2 0x16F1 PUSH2 0x16EC DUP3 PUSH2 0xF24 JUMP JUMPDEST PUSH2 0x16D6 JUMP JUMPDEST DUP3 MSTORE POP POP JUMP JUMPDEST PUSH1 0x0 DUP2 SWAP1 POP SWAP2 SWAP1 POP JUMP JUMPDEST PUSH2 0x1712 PUSH2 0x170D DUP3 PUSH2 0xEB9 JUMP JUMPDEST PUSH2 0x16F7 JUMP JUMPDEST DUP3 MSTORE POP POP JUMP JUMPDEST PUSH1 0x0 PUSH2 0x1724 DUP3 DUP7 PUSH2 0x16BF JUMP JUMPDEST PUSH1 0x14 DUP3 ADD SWAP2 POP PUSH2 0x1734 DUP3 DUP6 PUSH2 0x16E0 JUMP JUMPDEST PUSH1 0x20 DUP3 ADD SWAP2 POP PUSH2 0x1744 DUP3 DUP5 PUSH2 0x1701 JUMP JUMPDEST PUSH1 0x20 DUP3 ADD SWAP2 POP DUP2 SWAP1 POP SWAP5 SWAP4 POP POP POP POP JUMP JUMPDEST PUSH32 0x4167656E7420616C726561647920696E697469616C697A65642E000000000000 PUSH1 0x0 DUP3 ADD MSTORE POP JUMP JUMPDEST PUSH1 0x0 PUSH2 0x178B PUSH1 0x1A DUP4 PUSH2 0x1416 JUMP JUMPDEST SWAP2 POP PUSH2 0x1796 DUP3 PUSH2 0x1755 JUMP JUMPDEST PUSH1 0x20 DUP3 ADD SWAP1 POP SWAP2 SWAP1 POP JUMP JUMPDEST PUSH1 0x0 PUSH1 0x20 DUP3 ADD SWAP1 POP DUP2 DUP2 SUB PUSH1 0x0 DUP4 ADD MSTORE PUSH2 0x17BA DUP2 PUSH2 0x177E JUMP JUMPDEST SWAP1 POP SWAP2 SWAP1 POP JUMP JUMPDEST PUSH32 0x556E617574686F7572697A656400000000000000000000000000000000000000 PUSH1 0x0 DUP3 ADD MSTORE POP JUMP JUMPDEST PUSH1 0x0 PUSH2 0x17F7 PUSH1 0xD DUP4 PUSH2 0x1416 JUMP JUMPDEST SWAP2 POP PUSH2 0x1802 DUP3 PUSH2 0x17C1 JUMP JUMPDEST PUSH1 0x20 DUP3 ADD SWAP1 POP SWAP2 SWAP1 POP JUMP JUMPDEST PUSH1 0x0 PUSH1 0x20 DUP3 ADD SWAP1 POP DUP2 DUP2 SUB PUSH1 0x0 DUP4 ADD MSTORE PUSH2 0x1826 DUP2 PUSH2 0x17EA JUMP JUMPDEST SWAP1 POP SWAP2 SWAP1 POP JUMP INVALID LOG2 PUSH5 0x6970667358 0x22 SLT KECCAK256 0xEF 0xC7 0x5E PUSH13 0xA969142EA26B94A153711F3AF8 0xBA ADDMOD PUSH18 0xBFB01C51F7D0847F36E53FFA64736F6C6343 STOP ADDMOD EQ STOP CALLER "
				},
				"gasEstimates": {
					"creation": {
						"codeDepositCost": "1248600",
						"executionCost": "infinite",
						"totalCost": "infinite"
					},
					"external": {
						"HIGH_RATE()": "381",
						"LOW_RATE()": "426",
						"MEDIUM_RATE()": "383",
						"agents(address)": "infinite",
						"freezeAgent(bool)": "28350",
						"generateIdempotencyKey(address,bytes32,uint8)": "infinite",
						"getUserAgent(address)": "infinite",
						"idempotencyKeys(bytes32)": "7629",
						"isAgentFrozen(address)": "2934",
						"operationRates(uint8)": "2746",
						"owner()": "2578",
						"processIdempotencyKey(address,address,bytes32,int64,uint8)": "infinite",
						"registerAgent(address,address,uint256)": "infinite",
						"setOperationRate(uint8,uint256)": "25013",
						"setSpendingCap(address,uint256)": "infinite",
						"spendingCaps(address)": "2904",
						"token()": "infinite"
					}
				},
				"methodIdentifiers": {
					"HIGH_RATE()": "c99de22f",
					"LOW_RATE()": "71d6a0e2",
					"MEDIUM_RATE()": "1ee8866c",
					"agents(address)": "fd66091e",
					"freezeAgent(bool)": "7043d6e0",
					"generateIdempotencyKey(address,bytes32,uint8)": "883c522d",
					"getUserAgent(address)": "5b424e48",
					"idempotencyKeys(bytes32)": "399bd823",
					"isAgentFrozen(address)": "983ea7da",
					"operationRates(uint8)": "1a50c4f3",
					"owner()": "8da5cb5b",
					"processIdempotencyKey(address,address,bytes32,int64,uint8)": "6ff00940",
					"registerAgent(address,address,uint256)": "a77e6222",
					"setOperationRate(uint8,uint256)": "f710a6c3",
					"setSpendingCap(address,uint256)": "7ee1ce1d",
					"spendingCaps(address)": "54a97bbb",
					"token()": "fc0c546a"
				}
			},
			"storageLayout": {
				"storage": [
					{
						"astId": 37,
						"contract": "controller.sol:ZeroComController",
						"label": "owner",
						"offset": 0,
						"slot": "0",
						"type": "t_address"
					},
					{
						"astId": 40,
						"contract": "controller.sol:ZeroComController",
						"label": "token",
						"offset": 0,
						"slot": "1",
						"type": "t_contract(IERC20)22"
					},
					{
						"astId": 103,
						"contract": "controller.sol:ZeroComController",
						"label": "spendingCaps",
						"offset": 0,
						"slot": "2",
						"type": "t_mapping(t_address,t_uint256)"
					},
					{
						"astId": 107,
						"contract": "controller.sol:ZeroComController",
						"label": "isAgentFrozen",
						"offset": 0,
						"slot": "3",
						"type": "t_mapping(t_address,t_bool)"
					},
					{
						"astId": 112,
						"contract": "controller.sol:ZeroComController",
						"label": "operationRates",
						"offset": 0,
						"slot": "4",
						"type": "t_mapping(t_enum(OperationType)82,t_uint256)"
					},
					{
						"astId": 116,
						"contract": "controller.sol:ZeroComController",
						"label": "agents",
						"offset": 0,
						"slot": "5",
						"type": "t_mapping(t_address,t_address)"
					},
					{
						"astId": 121,
						"contract": "controller.sol:ZeroComController",
						"label": "idempotencyKeys",
						"offset": 0,
						"slot": "6",
						"type": "t_mapping(t_bytes32,t_struct(IdempotencyData)90_storage)"
					}
				],
				"types": {
					"t_address": {
						"encoding": "inplace",
						"label": "address",
						"numberOfBytes": "20"
					},
					"t_bool": {
						"encoding": "inplace",
						"label": "bool",
						"numberOfBytes": "1"
					},
					"t_bytes32": {
						"encoding": "inplace",
						"label": "bytes32",
						"numberOfBytes": "32"
					},
					"t_contract(IERC20)22": {
						"encoding": "inplace",
						"label": "contract IERC20",
						"numberOfBytes": "20"
					},
					"t_enum(OperationType)82": {
						"encoding": "inplace",
						"label": "enum ZeroComController.OperationType",
						"numberOfBytes": "1"
					},
					"t_mapping(t_address,t_address)": {
						"encoding": "mapping",
						"key": "t_address",
						"label": "mapping(address => address)",
						"numberOfBytes": "32",
						"value": "t_address"
					},
					"t_mapping(t_address,t_bool)": {
						"encoding": "mapping",
						"key": "t_address",
						"label": "mapping(address => bool)",
						"numberOfBytes": "32",
						"value": "t_bool"
					},
					"t_mapping(t_address,t_uint256)": {
						"encoding": "mapping",
						"key": "t_address",
						"label": "mapping(address => uint256)",
						"numberOfBytes": "32",
						"value": "t_uint256"
					},
					"t_mapping(t_bytes32,t_struct(IdempotencyData)90_storage)": {
						"encoding": "mapping",
						"key": "t_bytes32",
						"label": "mapping(bytes32 => struct ZeroComController.IdempotencyData)",
						"numberOfBytes": "32",
						"value": "t_struct(IdempotencyData)90_storage"
					},
					"t_mapping(t_enum(OperationType)82,t_uint256)": {
						"encoding": "mapping",
						"key": "t_enum(OperationType)82",
						"label": "mapping(enum ZeroComController.OperationType => uint256)",
						"numberOfBytes": "32",
						"value": "t_uint256"
					},
					"t_struct(IdempotencyData)90_storage": {
						"encoding": "inplace",
						"label": "struct ZeroComController.IdempotencyData",
						"members": [
							{
								"astId": 84,
								"contract": "controller.sol:ZeroComController",
								"label": "agent",
								"offset": 0,
								"slot": "0",
								"type": "t_address"
							},
							{
								"astId": 87,
								"contract": "controller.sol:ZeroComController",
								"label": "predictedTokenUsage",
								"offset": 20,
								"slot": "0",
								"type": "t_enum(OperationType)82"
							},
							{
								"astId": 89,
								"contract": "controller.sol:ZeroComController",
								"label": "processed",
								"offset": 21,
								"slot": "0",
								"type": "t_bool"
							}
						],
						"numberOfBytes": "32"
					},
					"t_uint256": {
						"encoding": "inplace",
						"label": "uint256",
						"numberOfBytes": "32"
					}
				}
			},
			"userdoc": {
				"kind": "user",
				"methods": {},
				"version": 1
			}
		}
	}
}